:020000040001F9
:208000002DE9F04F0F460446ADF1240D03F092F9754D2068286060686860A068A8607348F2
:208020008047734829680160724CC46069684160A968816004F1C00101616F4880476F4839
:208040002968016069684160A968816004F11801C16004F5DA740461E7B169483978017084
:2080600079784170B9787E688170F9784660C170FA6AC261BC688460FB68C3607969416175
:20808000B969FE698161306800B95F485D49486000274F705D4C5E495020621C04F1100303
:2080A00004F016FE002700B101270026381C0BD0052003F0E7FC0C270820ADF818002968BF
:2080C000ADF81A7006A8884768688047514F834604A904227E7030463E7004F0F0FB049894
:2080E0004FF00808B0F5801F0ED020B904F03DFD04F0B4FC0AE004F08CFC04F0A5FC4FF02A
:208100000409A7F8029003E004F02FFD4FF00409414FA660B246C7F808A003F003FB786014
:208120003E484680012707700A2004F0BCFDFF210A22606203F07AFDE01CFF21022203F0D2
:2081400075FD0A2004F0AFFD3549086008680A22314603F06BFD304601F0FDFD384603F0BD
:2081600095F830480188FF2906D1022101807822001D314603F05AFD032000F094FD2A4840
:20818000314607AA05AB80F80090102004F0A0FD606A9DF81C1001719DF81C104F46417238
:2081A000401D9DF81C1000F8011B29687F1EF8D1ADF800801420ADF80200684688471527DD
:2081C000ADF808800198ADF80A702968606102A888470398A968801EA0615846884703F044
:2081E00025FF09B0BDE8F08F30460020014C01102C4F002084CF010001500010E8480020EA
:20820000E44600202848002083BA0100304800209BBF0100E048002024460020DC4800203D
:208220003C46002058480020E845002003F082B800BF00BF04F04CBD00BF00BF03F022BC98
:2082400000BF00BF04F03BBB00BF00BF04F08DBC00BF00BF04F002BC00BF00BF04F0D9BBC5
:2082600000BF00BF04F0F0BB00BF00BF03F05ABA00BF00BF04F017BD00BF00BF03F0D6BC13
:2082800000BF00BF01F067BD00BF00BF02F0FEBF00BF00BF00F007BD00BF00BF03F0C6BEF7
:0482A00000BF00BF5C
:2082A400282808DA4FF6FF72914204D0C24A22F810100020704702207047282803DABE4901
:2082C40031F8100070474FF6FF70704770B504460D46BA4E1C220021304603F0A5FC347761
:2082E400757704F077FD01000EBF012100211220317070BD10B5B14CE160A06010220021BF
:2083040003F066FF012805D1A068BDE81040102100F0ABBE10BDA94948607047A7484068C6
:2083240070472DE9FC41A54D0446002695F81E80042C0F4624DA2878032818BF102054D128
:2083440000F0E7FC28B900F041F910B900F040F908B1122049E0012C18BF022C1DD1BFB1A5
:2083640006220021684603F05FFC00F040F838B90622FF21684603F057FC00F038F808B186
:20838400022032E006223946684603F04FFC0BE00621684600F069FE06E0032C04D1686841
:2083A400694600F01DFD0646854FAC770421387803F095FA002028849EB9ACB1684600F048
:2083C40055F8064668B9032C0ED11D20FFF775FF288448B138784EF66022042103F0B9FA44
:2083E40002E00EB185F81E803046BDE8F68106226946384603F0DCBE70B504460025200095
:208404006E4E05D121B1062206F1100003F00EFC307801280CD10125200004D1022030703D
:2084240001F065F904E000203070204600F0A2F8284670BD38B50024B0B101785F4A0B001B
:2084440006D14378857803EB0523D382C07810761078022808D1012408000CBF032000209A
:208464001070084600F086F8204632BD10B5534CA17F81B10146062204F1240003F0D6FB65
:20848400A07F04F1240100F008F804F12400BDE8104004F0A3BC002010BD79B102000DD058
:2084A4004A79012808BF42F0C00006D002F03F0203284A7102D142F040004871704701006E
:2084C40018BF01210846704770B53C4D0446287FFF2815D00A2003F0B5FB060010D0D0204C
:2084E400307074700820B0700622A87FF07005F12401301D03F09AFB287F314603F060FCA0
:20850400E87F01280FD12F48006818B18068010018BF8047BDE87040294800784EF66022B4
:20852400042103F016BA70BD2448806870472348C068006870472148C1680A68521C0A6089
:20854400007FFF281CBF4FF4804103F07DBC70471A48807F704738B50446184D05F11000F5
:2085640004F040FC05F110001CB9A97F09B105F1240032BD70B5114D0446287FFF2819D07D
:208584000E2003F05FFB060014D0D020307074700020B070062205F11001F01C03F046FB4F
:2085A400E88A70813146287E3073287FBDE8704003F006BC70BD00006C460020404600203E
:2085C400D8460020DC46002000F026BC264800E02648006800B101207047010001D0172887
:2085E40001DBFF2801D101207047002070472DE9F04D0D4693460024BBF1200F80461F464A
:208604002C7003DB0020BDE8F08D0419E0B25845F8D2E4B23E5D641C002EF3D0E4B2311902
:208624008B45EFDB17F804A05046FFF7D6FF641C0028E7D0701EC2452870E6D1E4B238195E
:20864400E1E70B490A7810430870704708490A7832EA0000087006D10648006818B1406891
:20866400010018BF00477047BC450020B8450020C0450020C445002070B5DFF804660546E3
:2086840030680C4608B1112070BD00F0E7F801D1122070BDDFF8EC05806800281CBF0078AA
:2086A400002801D1102070BD0C2004F0FAFA306040B30120FFF7C5FF306805700021306827
:2086C40041700A222146801C03F0B0FA00F0CFF9040002D000F0B4FA15E0DFF8AC050078F8
:2086E400032810D11D20FFF7E8FDDFF8A015088048B1DFF89C0500784EF66022042103F077
:2087040028F900E01324204670BDF8B50C46DFF8841509781546052211421E4627D0012C3D
:20872400DFF8601502D18F680FB301E0CF68F7B1202D02DA2A0002D00EB90220F2BD087068
:208744001F220021781C03F06FFA2A463146781C03F06CFA3D70284624B1791CBDE8F44091
:2087640004F044BB791CBDE8F44004F043BB1220F2BD38B5DFF80845216809B9122032BD44
:208784000978814201D0032032BDDFF804552878022103F0A4F8DFF8EC1400204880042148
:2087A400287803F09CF8DFF8E414002008800320216848700020BDE8324004F01FBBF8B501
:2087C400044600F04BF801D11220F2BD1CB12078FFF703FF08B90220F2BD6078801C2028BA
:2087E40023DA207800F0AEF908B11820F2BDDFF894546B680021002202E0B61C71181B6814
:208804005BB15E68767828B9C9B27718BF1C202FF3DB0120B61CB218F1E7D0B238B16078D9
:20882400D2B28018801C202801DB0B20F2BD082004F037FA06000FD0082200F087F86868E3
:2088440030B100E0084601680029FBD1066000E06E6074600020F2BD1320F2BDDFF83404FF
:20886400007805210842704780B500F027F801D1002002BD00F066F900B1406802BD10B534
:2088840000F01CF801D1002010BDDFF8F8335968002201E00A46096869B14C68247884425A
:2088A400F8D14C680868002A14BF10605860084604F0EAF900E00024204610BDDFF8D41388
:2088C4000978052211427047DFF8C80300780521084218BF00F043B91220704770B5DFF8B0
:2088E400A443A06818B104F0CFF90020A060E06818B104F0C9F90020E0600521DFF89453D5
:20890400287808421CD004F1100000F064FA287800260521084211D000F077F9A06060B1A2
:2089240000F013F800F071F9E06010B100F00DF804E0A06804F0A8F9A6601326304670BD85
:20894400002000F048FA002070BD2022002103F06BB92DE9F0478288DFF82463DFF82453F7
:20896400316842F20607D31B4FF0010805D09B1E012B60D99B1E0FD00BE08068007841B11B
:20898400020003D10120487004F038FA01006BD038E04FF0000867E0806807780029F8D0C4
:2089A4004878BD4C012833D100F058F9DFF8E092B0B10120FFF781FC8246BAF1420F0AD39D
:2089C40099F800004EF66022022102F0C2FFAAF13C00688010E04FF47A7000FB0AFA02E0A9
:2089E400FFF76BFC8246BAF1000F05D099F800005246022102F056FF316802204870207821
:208A040018B9384600F004F92EE0002020702BE0207848BB032003F015F948B1D021017033
:208A240047700421817001463068007803F0C8F900F006F918E080680778287842F208012F
:208A44008A420CBF01260026FF280DD0042003F0F9F8010008D0D02008704F700220887008
:208A6400CE70287803F0ACF94046BDE8F087F0B5834F386885B070B3847800F04AF928B163
:208A84000A20FFF71AFC05460B200DE000F0E6F828B10620FFF711FC0546072004E00820EB
:208AA400FFF70BFC05460920FFF707FC064676480078FFF704FD3968CA7A039203468A7A08
:208AC400029228460A1D01922246C9780091314604F098F900E0012005B0F0BD38B5014609
:208AE40067486B4D02682878664C01291ED161880B0002D0684B1B7823B112B31078BDE864
:208B0400324036E63C29A8BFA1F13C000CDA022102F0E5FE60884FF47A7101FB00F22878A7
:208B2400022102F0BFFE0020608031BD4AB159490978490705D5022102F0D1FE0020608045
:208B44007CE031BD4F49496800E0096829B14A6812788242F9D10846704700207047F8B500
:208B64004C48007800240521084201D11220F2BD444DA86810B900F048F8A860E86810B9E3
:208B840000F043F8E860A86800281CBFE968002901D11320F2BDFFF7D8FEE868FFF7D5FE38
:208BA4006E6812E09B1C50185918401C117071684978491C0170716809784170801C71688C
:208BC4004A78496803F032F83668AA6896B13CB97068117843785F18BF1C202FE2DB012476
:208BE4007368E9685B780A789B1C88189A18401C0A70DCE71078511C04F0F8F8E868411CC8
:208C0400007804F0F7F80020F2BD202004F049B838B51B4D0446286878B1032003F012F879
:208C240048B1D021017044700321817001462868007803F0C5F804B100E031BDBDE8314074
:208C440010B50F4C206840B104F01EF8002020600120BDE81040FFF7F9BC10BD80B50948B9
:208C6400806858B10278431C69460120FFF7BFFC20B10078C00701D5012002BD002002BD00
:208C8400BC450020BC4600205E46002060460020D84600205D4600205F4600204F494870ED
:208CA40070474E49087002F029BB70B50C4620044A4D14D5287802F0F5FF06000CD000F0A1
:208CC4002AF830B96878FF2803D0314603F078F810B1304602F0CBFF84F4004070BDE00712
:208CE40009D5A86820B1416808001CBF0020884784F0010070BDA00709D5686820B14168C5
:208D040008001CBF0120884784F0020070BD002070BD002070470178912907D141780E29BA
:208D240002D03E2901D001E012E001E00020704710B581780124022907D12849896829B178
:208D440049680A0002D0884700E00024204610BD38B58288012441F20905531B1F491AD05F
:208D640040F6F9755B1B12D0DB1E0BD05B1E24D09B1E022B21D9DB1E16D05B1E11D09B1EE0
:208D840024D022E080680078FFF79EFB1EE08068FFF750FB17E08068411C0078FFF72CFBF2
:208DA40011E083681B788BB1896879B10B6819000CD001461046984705E0496831B109681C
:208DC4000A0003D08847044600E00024204632BD024988607047014948607047D84600206F
:208DE40038B504000D4618BF002D01D1022032BD0321684600F039F900F030F82A46694619
:208E0400204600F077F8040004D103226946E81C02F00CFF204632BD30B504000D4618BF73
:208E2400002D83B001D102203EBD0322E91C684602F0FCFE00F012F801AA6946204600F071
:208E440059F8010009D10322294601A803F0B0F9012801D100203EBD01203EBD9DF8021030
:208E640001F03F0141F040018DF80210704730B50C46002818BF002C8DB0154600D00DB96D
:208E8400022010E0014600F010F81022214604A803F078F900F061F80446102208A92846F0
:208EA40003F070F920460DB030BD1022684603F069B980B52020FFF700FA38B10246064869
:208EC4000078BDE80840012102F0ECBC01BD02480078012102F003BDC145002070B58CB092
:208EE40000F020F800F019F8280A8DF81E008DF81F50AAE070B58CB000F014F800F00DF8C0
:208F0400032229460DF11D0003F03CF900F025F8044603220DF12D019CE01022214668460B
:208F240003F030B904460D46164630220021684602F07ABE70B58CB0FFF7F4FFFFF7EDFFE1
:208F440000F08EF800F009F89DF82F109DF82E2001EB022131800CB070BD6846CFE0F0B544
:208F640095B005460C4616461F463022002108A802F05AFE1022294608A803F003F910226B
:208F84000021684602F050FE07223146FFF78EFF072239460DF1070003F0F4F81C9901B1A8
:208FA40001218DF80E101A9901B101218DF80F101022002104A802F037FE1B99062205A80E
:208FC40003F0E0F81D9906220DF11A0003F0DAF8102221460CA803F0D5F869460CA800F0A7
:208FE4001AF808A800F08BF80446102210A90CA802F01CFE04A90CA800F00DF808A800F04D
:209004007EF805461E98102210A903F0BBF845EA040015B0F0BD10B51022037811F8014BD8
:209024006340521E00F8013BF7D110BD70B50C468CB0154601461E46FFF737FF08222146DA
:2090440004A803F09FF800F00BF8FFF786FF0446102208A9304603F095F820460CB070BDF6
:209064000822294606A803F08DB870B504460D4600260BE003F094F8F6B2010AA155761CE0
:20908400F1B2A94202D2F6B2A055761CF0B2A842F0D370BD00688208920000F0030102F055
:2090A40004021143C208D20002F0080211430209120102F010021143400941EA4010C0B2BA
:2090C40070470268920841EA820222F004038A0802F0010243EA820222F00803CA0802F0F0
:2090E400010243EAC20222F0F0030A0902F0010243EA0212490942EA41110160704700F151
:20910400200200F1100103F081BE704780B500F024F803F07FFE03F081FEBDE804400FF231
:20912400390103F07FBE7CB53D4D3E4E2A68019104460A20ADF8000024328DF80240306888
:209144001268694690472A683748283240EA042130681268904773BD704738B5334C304A9B
:2091640002202080214612682E480068243212689047812801D0032032BD00202C49FF2281
:20918400002501EBC003401C04281A705A705D60F7DB002000222389012585402B4209D06D
:2091A40001F8320001EBC205521CD2B20123042A6B7002D0401C1028EDDB002032BD70B54C
:2091C40004461C48006884B00D4680470646A06810B9A56004E0084601680029FBD1056010
:2091E4000020286005200E4A1268ADF8000024320C48019402950068126869469047812840
:2092040006D0206800280EBF25606068056065603046094909688847002004B070BD000077
:20922400184700201447002001000904CC4F0020AC4F00203446002038460020DFF80404B5
:209244009021017088214170012181700221C1700021017180214171002181712021C171BB
:209264000021DFF8E4038160C1601F21017000214170418041601F20DFF8D01308707047FC
:209284002DE9F04100F049F80D4616461F4642D5DFF8B403007840073DD5DFF8B48398F82A
:2092A400000098B10C2002F0CDFCA0B39121017084803E214170C5800321817006810021EE
:2092C400C1704781014698F8000023E0152002F0B9FC00B3012101700422FF21417000F1AD
:2092E400080141600A704C713E224A70CD710A228A704E720322CA70CF7200220A71220AE2
:209304008A712A0A0A72320A8A723A0A0A730146D048007866E1BDE8F0810446C948C079DD
:209324008006704738B5FFF7F8FF27D5C648807A000623D5C64D287858B1062002F082FCBE
:20934400E0B1902101704480572141700146287813E00D2002F076FC01000FD000F07EF9B7
:2093640057204A68507002204A6890704868C470200A4A681071B74800787AE131BD2DE915
:20938400F54FFFF7CBFF81B08846994605D5AE4E31787078C90702D4810740F1E480AC49C8
:2093A40009780F9C109DDDF844A0DDF848B0002950D0222002F046FC070058D09120387003
:2093C4003E2078709DF8040038B9F87006220C9907F1080002F02AFC07E03120F8700622A4
:2093E400002107F1080002F01FFC707880071AD50A20B8700D9830B10146062207F1150089
:2094040002F014FC01E000F0BBF80E9830B10146062207F11B0002F009FC01E000F0AAF84F
:2094240087F8079008E00120B87000F0A9F800F0A1F809F00100F871A7F8048039469DF82D
:209444000800B871FC813D82A7F812A087F814B07F4882E080074CBF1F2013208DF8000055
:209464009DF800000B30C0B202F0ECFB07007AD001203870FF20787007F1080078600420B0
:20948400796808703E207968487079689DF8000088707178786889074CBF0A210121C17028
:2094A40079689DF804000871786880F805804FEA18207968887179689DF80800C8717178ED
:2094C400786889074EBF80F8089009F00101017278680C9921B10622093002F0A7FB03E05E
:2094E4000622093002F0A0FB71780F20890718D578680D9921B106220F3002F097FB03E0BF
:2095040006220F3002F090FB78680E9921B10622153002F08BFB03E00622153002F084FB64
:209524001B2079680C54401C7A68C0B2210A00F01CF80D54401C7A68C0B2290A00F015F88B
:2095440001F800A0401C7A68C0B24FEA1A2100F00CF801F800B039463E48007803B0BDE8D8
:20956400F04F02F02DBCBDE8F78F1154401C7968C0B270470622002107F11B0002F054BB7A
:209584000622002107F1150002F04EBB2DE9F0412F4F044638780D469046C8B12E48007827
:2095A400B0B905F10C0080B202F04CFB060017D0912030702A46FF207070B570B48006F1D4
:2095C4000C00B060414602F031FB3878314609E043462A462146BDE8F041FF2003F026BC8C
:2095E400BDE8F081BDE8F04102F0EABB38B5044614484078000623D5154D287870B116481A
:20960400007858B9032002F01DFBC8B1912101708470102141700146287810E00C2002F029
:2096240011FB01000CD000F019F810204A68507001204A6890704868C4700648007818E025
:2096440031BD0000004F0020C8450020084F0020E0450020C2450020284F00200120087069
:20966400FF20487001F10800486004204A6810707047BDE8344002F0A3BB704730B540F625
:209684007B44851FA5423CBF8D1FA54212D2814210D3B2F5FA7F0DDAA3F10A0040F67744CE
:2096A400A04207D2501C49004843B0EBC30F8041C00F30BD002030BD80B500F060FC8DF8AE
:2096C4000000FFF7BBFD4449002008706A4643490880012140F603401CE080B50FF294127C
:2096E400412141F2020003F0A5FB002002BD80B500208DF800006A46394800788DF8010054
:20970400042100208DF80200364800788DF8030042F2020003F08EFB002002BD0120704792
:209724000120704780B5012300F091FD00F01BF842F21E00EEE780B5012100F041FE00F0D6
:2097440012F842F21D00E5E780B530B101460822254802F06BFA002000E0122000F003F876
:2097640040F66340D6E78DF800006A460121704780B51D218DF8001004218DF8011010B9B5
:2097840003F05CFB00E011208DF802006A4603214FF61D400DE080B51C208DF800006A46DA
:2097A40004208DF8010003210C208DF802004FF61C40FFF7EBFE002002BD80B530B10B495B
:2097C40002780A7040784870002000E01220FFF7CAFF42F201009DE7244F0020264F00204F
:2097E400084700200A470020D0450020C845002000B585B06A460DF1020101A803F022FBCF
:209804008DF80800222107208DF8090002AA02A8817002218DF80B109DF804108DF80C106B
:20982400BDF802108DF80D10090A8DF80E10BDF80010C171090A017241F20100092103F037
:20984400F9FA002005B000BD10B582B004460DF1030100F03FFF8DF800008DF80140200A99
:209864008DF802006A46042141F2054003F0E2FA002016BD000000800000C000000000E02E
:209884000000002802000000000000040000F7C3A3780000000000000000000000000000C1
:2098A400000000000000000000000000000000000000000000000000F8B5012001F000FBEA
:2098C40001282D4C2D4D46D12D4E06F19A0041880A001CBF007802F0B7FA06F11007387ABC
:2098E40001280AD1B87AA87120B1787AC0EB401030441B30A86000203872B87803280FD08C
:2099040006F15900017801290AD18178E97121B14178C1EB411131445C31E96000210170BC
:209924000B2603F093FA3A8890FBF6F60B2707FB160080B24FF47A667043A16840F6C413D1
:2099440080B203FB02004018A060207B00F0F00040F002002073E87E00F0E00040F086004D
:20996400E8760848E8610020608060836086BDE8F14003F06FBA00BF244C0020584D00201D
:20998400EC49002000204E002DE9F041079D002600274FF6FF7435F817C0A4451CBF761CB6
:2099A400F6B27F1C062FF6DB00270DE00CF1010C5FFA8CFCE646B64505DA35F8178035F864
:2099C4001EE0F045F2D17F1CB74208DA35F817C0A44504D0614528BF07F1010CE8D2B74211
:2099E4000ED17EB1884203D0180009D0994207D30698114603F032FA47F6FF71884201DBAB
:209A0400012000E00020BDE8F08110B5854C0821601C01F01FFD607840F00100607010BD1D
:209A24008148824B40F602010180002141804160816001730121417300218173C1737C4916
:209A4400098801827B49C96A8A681B78126803EB43031A44B2F801204282496841617047CD
:209A640030B583B0FFF7DCFF0020CDE90000724D72482D686C4C0068103500232D680222D4
:209A84002146A8476E4AC2E900016088B0F5806F1CBF8920FFF7AAFD66486A4AC068127857
:209AA40041881143624A118000786749800643BF66480068400A0020087037BD70B582B055
:209AC40004461020ADF8000004EB440559485A4AC66AB0680068126828442432B0F8010051
:209AE400ADF80200694655481268006890474F484D490470B06800682844B0F801004882B6
:209B040073BD4C484949C06A80680978006801EB4101405670474E48817B012903D1007D68
:209B240008B10C2070470020704702B10422012804D0022806D004280AD00BE0C2EBD10069
:209B44000A3803E04800C2EBE0000B3880B27047002070471B20704702B10422012804D03C
:209B6400022806D004280CD00DE050180A30C00405E050180B30C00000EBD070C003000C44
:209B84007047002070474FF4A47070472A4B1B6840F2024188422F48B0F9001027480068E7
:209BA4000CBF0122002214331B68184710B588B040F60302ADF80820ADF816100022ADF8D1
:209BC4000A200392049200219DF814201A4CADF8181002F060028DF814208DF81A008DF8DE
:209BE4001B1000239DF81520144802F0F00242F001028DF815200791CDE9001124680068C7
:209C040010340222246802A9A0470D4AC2E90001BDF80A00B0F5806F1CBF8820FFF7E6FC09
:209C240008B010BDD04E00204C470020B94C0020944C002080D60100184700201447002034
:209C4400D845002009470020C04C002080130050EC490020104700207047FFF7C7BCF0B5A3
:209C64000C46114640F67B42A51F95423CBF8E1F964283B024D2A14222D3B3F5FA7F1FDA0E
:209C8400089AA2F10A0640F67747BE423FBF5B1C4E005E43B6EBC20F12D290F8920000288B
:209CA4001CBF01FB03F000280AD10C980A9B099A01900B9800902046FFF766FE012801D168
:209CC4000120FEBD0020FEBD80B54FF49E720FF62C31DFF8640A01F06FFBDFF8600A0021DD
:209CE40001700122DFF8581A0A7302220A70DFF8541AC0F80D10DFF8501AC0F82D1001BD5A
:209D04002DE9F0410FF63040DFF8401A2722036844688568C6680769D0F814C0D0F818E00B
:209D2400D0F81C800B604C608D60CE600F61C1F814C0C1F818E0C1F81C8020302031521E75
:209D4400E5D142688368006808604A608B60BDE8F0810721F0B5DFF8F849DFF8F85920709C
:209D640083B00020A861DFF8F00901700D21418040F222218180DFF8E409DFF8E419E961FB
:209D84008A7E0270FF2ACB7E437008BFFF2B0E7F86704F7FC77091F81EC080F804C0C97FBC
:209DA400417116D1FF2E08BFFF2F12D1BCF1FF0F08BFFF290DD1DFF8AC190A7802704A7827
:209DC40042708A788270CA78C2700A79027149794171DFF894190278DFF89069DFF890398D
:209DE4000A7042784A7082788A70C278CA7002790A714079DFF87C294871FF21DFF87809AD
:209E0400017041708170C1700171417101202871101D017141718171C17101724172002160
:209E240001708172A0218181032181730721C1730021017428214182012101750021817532
:209E440002F15A0100224A7001220A7042750020DFF82819DFF828290880F16A4878A87065
:209E640008781070801C8A782A708A681279521E1A70CA786A70CA682A618969DFF8042960
:209E840069614FF4967111801821484380B202F008FFDFF8F418886010B94FF4804122E090
:209EA400DFF8E8080068804707460820ADF800001E20ADF802004FF40050DFF8D4180968E2
:209EC40001906846884701F09DFDF068697800880843DFF8C01808803846DFF8BC18096808
:209EE40088474FF40051207801F0AEFFF7BD70B50C46E0070DD502F0B5FF38B10021816040
:209F0400DFF898080068010018BF804784F0010070BDA00508D5DFF88808016841F0004159
:209F2400016084F4007070BD600504D5FFF7EDF884F4806070BD600405D58120FFF756FBE3
:209F440084F4804070BDA00417D5DFF808584FF0FF30A861FFF764FD2E69366805F13003A5
:209F640005F1440205F1200105F16000B047E86000F005F884F4005070BD002070BD80B591
:209F8400DFF8D037D8681B69183300221B684FF0FF319847DFF8D407DFF80818C06A806822
:209FA40040790870FFF75CFDDFF8FC0702F05EFF02F060FF02F062FFDFF8B80700F10E01BA
:209FC40000220A70A0224A8007224A7103220A7100220A738A7200F8592F0122CA72002136
:209FE4004270817000F026FFFFF70FFDDFF8BC1700200870DFF8B8170880DFF8B817087015
:20A0040002BD10B5040001D1122010BDFFF7FDFCDFF8A4072278417811404170627881784A
:20A0240011408170002010BD38B50C00054606D0DFF83817C96A89680979884201D3122037
:20A0440032BDFFF73BFDDFF85C07057001202070002032BDDFF81427D26A926812799042CB
:20A0640001D312207047DFF8081708700020704730B5DFF84007017883B009B121203EBD35
:20A08400DFF83817DFF838470B7B496003F0E00343F085030B7341F60A024B7B0A8003F07C
:20A0A400F00343F002034B73002266238B734A808023CB7340F6C412DFF808378A600B61E7
:20A0C4004C615A6001251A7A1D8002F0FE021A722525DA7A9D7002F0F002002542F0010257
:20A0E400DD705D72DD60DA7225800D220270DFF86446DFF8D426E068DFF8D036CDE900251F
:20A104002569083502222D68A8473EE030B5282983B003DA050018BF012D01D012203EBD5C
:20A12400DFF89046207808B121203EBD480000F6621081B20120FFF739FDDFF89416DFF859
:20A144008C36496040F608000880002048808860012D087B00F06000087300F056F80CBF75
:20A1640003200A2088730022DFF868064861002008828861CDE90022C87C00F041F8C8746F
:20A1840002220B2000F048F8A847208100203EBD30B5282883B001DB12203EBDDFF81446EF
:20A1A400217809B121203EBD400000F6621081B20020FFF7FBFCDFF82016DFF81036496051
:20A1C40040F6070008800022002048808860CDE90022087B00F060000873022200F015F87D
:20A1E40002208873DFF8EC05086100204861C87B00F006F8C8730C2000F00EF8A847C4E71C
:20A2040000F0F00040F001007047487B00F0F00040F00200487370472070DFF838452569B9
:20A22400E06808352D68704780B5DFF8880500780B281CBF0C280D2801D0212002BD40F2BE
:20A244000140FFF7A3FCFFF79AFE002002BD2DE9F04F0D462828B8BF262D83B080461646A0
:20A264000FDA310018BF012E0DD0022E18BF032E09D0042E18BF052E05D0062E18BF072E7B
:20A2840001D012209AE0DFF82C9599F8001009B1212093E0DFF82445DFF82875DFF820A546
:20A2A40041F60A0121804000002161806460A1606630217B01F06001217340F6C41B617BA7
:20A2C40001F0F00141F002016173A07329468020E0732761C4F814A000203880BD701846C0
:20A2E400012818BF0228FE701BD10022FFF734FCB0F5BC7FD8BFC7F804B02EDDB0F57A7FFB
:20A30400D8BF41F2883027DDB0F5CB6FD8BF41F64C5021DD40F6490188421EDA42F2107076
:20A324001AE003280CBF082002204143C9001B2202FB001000F5BC7080B2F93040F2712108
:20A3440090FBF1F140F27122796002FB110000B1012040180BFB00F07860387A00F0FE0048
:20A364003872002100207872F860F87AFFF748FFF8720020AAF80000DFF860048180C18054
:20A3840080F800808021457086700172DFF8E003DFF810140078DFF8BC630870092089F8BD
:20A3A4000000FFF75DFB00F06FF83569F068083502222D682146A84730810020BDE8FE8FAF
:20A3C40030B5282883B001DB12203EBDDFF8E4130B780BB121203EBDDFF8E04341F6090382
:20A3E4002380420000236380A3606632237BA27303F0600323738022637BE27303F0F00379
:20A4040043F0020363736460DFF8D423DFF8D43322616361002515600F2515710125557133
:20A42400DFF8B0539560552515735573957300251561D57B05F0F00545F00105D5730022FD
:20A444001A805A809A8080229A7100229A60C14DDFF88823107000205070FF209070002072
:20A464009080D080802010720A200870FFF7F8FA00F00AF8022221462C69E86808342468A2
:20A48400A047288100203EBDDFF85C03CF4B0021CDE90001704770B5C64C2078092818BF57
:20A4A4000A2801D0212070BD40F20240FFF76EFB2078CA4909280BD1C14800888880B94802
:20A4C4000078FFF7FBFA0021002002F0DBFC19E00A2817D1C34A538810889688CB801D18DA
:20A4E40075198D809279802A18BF812A0FBF7F22BE4B93F90030D21A0A72012102F0C2FC18
:20A50400FFF7AEFA0020207070BDF8B50446914D0020170028710FD0012A05D0032A18BF34
:20A52400022A0DD0042A41D1079800283ED00698002818BF012839D1032A18BF022A09D11F
:20A5440043F66170A4F1A00686423CBFA1F1A00686422BD2100018BF042A09D143F6E17079
:20A56400A4F1200686423CBFA1F1200686421DD2A1421BD3180018BF012B17D10998010074
:20A5840018BF012803D0022818BF03280ED10899072631420AD0774EB77B012F01D10C2099
:20A5A400F2BD002A1CBF012A042A01D11220F2BD01F00701F174B274307523B90020307111
:20A5C4000622664905E0012B07D1012030710622694906F1080001F029FB34820120287197
:20A5E4000020F2BDF8B5734C2178092918BF0A293CD00B291CBF0C290D2937D0554909799A
:20A60400002908BF012857D05A4D68B3012853D1A87B01282AD0012000F025FC28600026C1
:20A624000120A87302F032FC1821714871434718387B40F080003873A87C012807D026B9A4
:20A6440000F0F1FB00F5C87000E00020B860761C032EE9DB207828B9A97C6648405C2070D6
:20A6640002F0F8FB0020F2BDA87B08B92120F2BD464800688047064602F00CFC012804D04E
:20A6840002F0F0FB2968884205D140F20240FFF77DFA012700E000270020A873284602F0FD
:20A6A400FDFB207800281CBF002F02F0D3FB3A49096830468847D5E71220F2BD017841F094
:20A6C400030101700020704710B14B494978017000207047374810B500780C280C4606D1B3
:20A6E4001C49C868096940310968884703E00A2806D13C488079C0B2802818BF812801D1C9
:20A704007F2002E039490978401A2070002010BD1A4B10B1012803D00CE01980002070475C
:20A72400188810701888000A50706E2090701920D070F3E71220704704040021A3030021D1
:20A744006C030021110400215104002100C00021844C0020084700208C4C00206C4C0020A9
:20A76400B63F0050E81200507C4C002080D60100854C0020EC490020744C0020984C0020DD
:20A78400BC4C0020964C0020F44E00203446002030460020944C002038460020C44C00202B
:20A7A40004000940B94C00208C4A00208A4C0020BE4C0020B84C0020D04E0020284E002015
:20A7C400204F0020A84E002001000080AFB00100784D002029417671404E0020DC4E0020C1
:20A7E400844E0020C44E002002000080C04C0020244C0020C0D90010B04C00209904002170
:20A804001905002179040021F0B5174C40216118C878022805D00948002101600849884743
:20A82400F0BD256E074E3560600728432066276824600E48804727603560F0BD2C11044018
:20A84400A56500002840044010B5074CA17D002905D10121A175480204493E39884720686C
:20A86400002800D0804710BD540200218B39000010B50549054A72B6C878012802DC01201B
:20A884004870121D62B61047940200216D470000F8B51A4E0546316B1948CC09E401002DAF
:20A8A40011D01849097802290FD0007B044372B60120154F4002B847114820380088C10914
:20A8C400C90704D016E0C07AF0E7407BEEE70F493463CC61400AC0070CD001208003F16A31
:20A8E400002D01D0014300E081430846F1620749403948630020B84762B6F8BD80020021CA
:20A904008800002196020021DF3C0000404004400749002800D00420064A72B60978C907BD
:20A9240001D0105800E0802062B640B2704700006B02002158600440546100007F140200C5
:20A94400060005000F0008004800520080FF3F000000000000000000000000000000000079
:20A96400304000400140034007400F404F40CF40CF41CF43CF47CF4FCF3FCF2FCF1FCF0F3D
:20A98400000000000000000000000F00080000003F00000040003F000000040068000E0064
:20A9A400DC00060043001A00050000000000020000000000000000000400C0000000040085
:20A9C400C0000000070000000000000000000000000000000000000050C00091007070C06B
:20A9E4000091007082312100319110B10070018101B100A18231329110B10191111041810A
:20AA040041226340F106007051C0019130181039833108D01831416F3100319110B18314C1
:20AA240014166F680070251050C00091F4C340C12014036F311041045082F02284405126C8
:20AA440022C082312100319110B163393110410482C082312100319110B163393110A2C0BF
:20AA640082312100319110B150101531051405920070536452C0311031066131C102566465
:20AA840012C13110213971065131E1025664007051C0019101CCE2C05664536411C1C2C067
:20AAA400566454B0007154A064B0F0800022B54011C122C1566451C00191E2C0823160828B
:20AAC4000200329110B100C3C86853644012B09032B000C3CE6840C2D0688012B09032B0E7
:20AAE4000070536401C122C1566401C1C2C0566453829D64C012B09032B00070536472C2A9
:20AB040081C0566422C111C1566402C011C1566462C031C3566462C311C1566402C311C161
:20AB24005664538253399D64E2C35B641122F84042C281C8566452C211C1566472C2E1CE9C
:20AB4400566402C281C8566402C201C85664B0C00C690070536442C201C8566452C211C0B1
:20AB6400566472C2E1C0566402C001C1566462C001C3566422C101C1566462C301C15664AA
:20AB840002C301C1566453829D64007002C1623101C0A080001E3241101A34612010101A49
:20ABA400136F236E1116121634690070E092D08200223B45C0B200700000000000000000DA
:20ABC400000000000000000000000000000000000000000000000000000000000000000071
:20ABE400067305720B720E7250B00071818060B050A09280F0EFF19202933A65412278452A
:20AC04008080F1C11004301601110114016C8B618C618D618E618F6190619161936195611D
:20AC240097619961706273629180F2C0210421318280422A1214321601112114016CA661A6
:20AC4400C761AC617362A661C761AC6173629B619B619B619B619B619B61AC649B61D564A8
:20AC64009B61E2649B610E659B612A659B618280E0DFF2923A65B0B0A261B1B00673057200
:20AC840030B05861D0CF3A6584C203C0C0C368649078509160781031617810140092507828
:20ACA4004031617810004031717810001092B07860928178219230784031417810003092C0
:20ACC40010C0F0919B6154A0F0805022CF45408000226646C76100C86091598150B09180DF
:20ACE40041222E46C0CF3A651282823182394239281077641282F11212042F101F312F143C
:20AD040040C120140D6F6D39DE10F4C34E0482C082312E006D39A2C082312D001A828A3977
:20AD24002082803180390BC00B18AC7830824039021011C0013010C00118021882312100DB
:20AD4400C126919103B013B063B053B003823914418001226646B481C491D5819518B51C9A
:20AD64001C4EC51C544A6591F08010220C422C623D9110B13E9110B165910F925981F914D5
:20AD8400AB18BC10F0805022C74110222C460C62B0CF3A6563B030820010F2C02004021049
:20ADA40011C0013010C00118021882312100C1269191919113B003B063B053B064B054B0E7
:20ADC400007141800122664663B064B0F0805022C741B181C191D1819118619131B0446265
:20ADE40012828231823942392810776459810582591420820BC00B18AC7880C0007163B079
:20AE0400626A0C62018262818231823DA0EFF19202933A6503A09B61A28077649B6150B03E
:20AE240000719B617047024800683C30006800471847002070B50021FF225548554B09E011
:20AE4400182486684C43264400257570491C85682A55C9B21C78A41CA142F1DB002182705F
:20AE64000180416070BD10B50023494A916818245C4321444C78D4B90C78FF2C02D054683D
:20AE8400A14214D0087000234B604B6101234B7053780343537013785B1C1370DBB2012B04
:20AEA4001CBF8028402800D15160084610BD394909785B1CDBB2891C8B42D7DB002010BDEE
:20AEC40010B5334A9268002118234B43D45C844202D1D018407810BD00F017F8F4DB002024
:20AEE40010BD10B52A4A9268002118234B43D45C844202BFD3185B78012B01D1012010BD03
:20AF040000F003F8F1DB002010BD224B1B78491CC9B29B1C9942704710B51D498B68002220
:20AF2400182151435C5C844202BF59184C78012C01D1084610BD17490978521CD2B2891C3A
:20AF44008A42EDDB002010BD1CB50446104844606069010018BF80476068017B01F00F01A8
:20AF640002290CBF8068FFF75EFFA06000210A480A4BCDE9000102226168094C09482468FE
:20AF8400006808342468A0470749088013BD0000F44E0020BC4C002002048080AFB00100FE
:20AFA4001847002014470020104700200120704700B583B00820ADF800001E2000F00CF85D
:20AFC40001F058FF07BD00B583B00820ADF800001F2000F001F807BDADF802004FF4803026
:20AFE40002490968019068460847000030460020704738B50446002506E0EDB204EBC50021
:20B00400001D01F04FFF6D1C2178E8B28842F4D30020607032BD01784078081AC0B2704728
:20B02400F0B50346002001E0401CC0B21C78A04215DA03EBC0046579ED07F5D500256619F8
:20B044004F5DB679BE4202D16D1C062DF7DB062D02BF6479C4F340049442E5D1F0BD10207B
:20B06400F0BD10B50446FFF7DBFF102807D004EBC000417941F004014171002010BD1F20B4
:20B0840010BD002107E000EBC102491C537903F0FB035371C9B202799142F4DB00207047D4
:20B0A400684940F2AD200880704710B51446200248BF00F0BCF814F0030018BF00F00EF8DD
:20B0C400002C02D5BDE8104000E010BD80B58220FEF7C3FDBDE80140FEF7BEBD5A4A5B489E
:20B0E40012785B4902B97047F0B5521E032A83B008D9083A012A4BD9921E012A66D9921EFB
:20B1040068D083E05349544D544A0A604FF4A0536E88534A0680022E41F2024436D94FF401
:20B124008067F61B1AD0361F012E21D94FF47F77F61B1FD04FF44067F61B0FD0B61E012E95
:20B144000CD9361F0AD0761E012E11D940F2F937F61B012E1AD9361F0CD057E0038003B0F7
:20B1640040480A600121BDE8F040007800F06CBE3D4AF4E73D48807C012803D16C806C8395
:20B184006C86ECE76B806B836B86E8E783203EE04A88028040F2044082421CBF41F20840A8
:20B1A400824238D041F60400824211D1304C314A2468314800680023CDE9002308342F4BC8
:20B1C40024680222A0472E490880F7BD4988018085201CE04A880280022A0DD940F2044052
:20B1E400121A18D040F6FC70121A05D0083A12D04FF47F70121AEBD1887B801CC0B2B52868
:20B20400A8BF6620887300204880F7BD8420BDE8FE40FEF722BDF7BD1A48012101700A494F
:20B224000978092904BF002101707047704706480078042804D9801F1CBF8620FEF70DBDE6
:20B2440070470000CE000021B84C00200A4F0020284E0020C44C0020244C0020E1D9001087
:20B26400BD980100844C002051CD0010EC490020184700200200008014470020AFB0010025
:20B28400104700200720024010B50400214804700020214908700020204908700020204998
:20B2A400087000201F49087000201F490870FDF7C5FF00201D49087010BD70B504000D0059
:20B2C400280416D51348007800F0ECFC0600002E0BD03078032802D03078012802D1F068F8
:20B2E40000F07BFC300000F0C2FC95F4004080B200E0002070BD0849087070470749087095
:20B304007047074908707047064908707047064908707047C2450020C3450020E045002063
:20B32400E1450020E2450020E3450020284F00201448B0B5B0F1FF3F01D001F0E3FC124DFD
:20B344001248A84210D01248124CA0420CD0001BC71054F8040B10F8011B55F8212054F804
:20B36400041B90477F1EF4D1FEF787F90A4D0B4CA54205D002E054F8040B8047A542FAD1DC
:20B38400B0BDC046FFFFFFFFB8D60100C4D60100D4D60100C4D601000000000000000000CA
:20B3A40030B502FB01F403FB00444FF00005E2FB00542146284630BD002A4AD05FEA000CA0
:20B3C4008B071CD1830722D1102A08D370B4103A78C978C0103AFBD270BC103238D0042AB6
:20B3E4002CD3082A05D30C2A24BF08C908C008C908C008C908C092072AD0920F22E00B78A3
:20B404000370491C401C521E22D08B07F7D1C30714D18307D8D0121F12D308C903801B0CC6
:20B424004380001D121FF8D20AE008C903701B0A43701B0A83701B0AC370001D121FF4D2A3
:20B44400121D05D00B780370491C401C521EF9D160467047002213460A46194671B510F046
:20B46400030F0BD0002A82BF00F8011BB2F1010210F0030FF6D1002A08BF71BD11F0FF01BD
:20B4840041EA0121042A18D341EA0141082A0FD30E46102A08D30C460D46B2F10F0312F0FC
:20B4A4000F0272C0103BFCD812F0080F18BF42C012F0040F18BF40F8041B12F0020F18BF07
:20B4C40020F8021B12F0010F18BF017071BD2DE9F0411C4615468C4208BF854282BF0023E7
:20B4E4000022E5E0002C08BF002D0AD100290EBF00286FF000006FF0000100F0E1F8BDE81B
:20B50400F0815FF000085FF0000E002C08BF8D429CBF2C1C0025070C47EA01470E0CB442DC
:20B5240008BFBD429EBF5FEA044444EA15445FEA0545070A47EA01670E0AB44208BFBD42BB
:20B544009EBF5FEA042444EA15645FEA0525470847EAC1774E08B44208BFBD4200F2938030
:20B56400870847EA81778E08B44208BFBD427CD8C70847EA4177CE08B44208BFBD4266D8E1
:20B58400070947EA01770E09B44208BFBD4250D8470947EAC1674E09B44208BFBD423AD825
:20B5A400870947EA81678E09B44208BFBD4224D8C70947EA4167CE09B44208BFBD420DD86E
:20B5C400E60146EA5566EF01B14208BFB84201D3C01BB14158EB08085EEB0E0EA60146EAC1
:20B5E40095664FEA8517B14208BFB84201D3C01BB14158EB08084EEB0E0E660146EAD566A8
:20B604006F01B14208BFB84201D3C01BB14158EB08084EEB0E0E260146EA15762F01B142B4
:20B6240008BFB84201D3C01BB14158EB08085EEB0E0EE60046EA5576EF00B14208BFB84268
:20B6440001D3C01BB14158EB08084EEB0E0EA60046EA9576AF00B14208BFB84201D3C01BAA
:20B66400B14158EB08084EEB0E0E660046EAD5766F00B14208BFB84201D3C01BB14158EB44
:20B6840008085EEB0E0EA14208BFA84201D3401BA14158EB08085EEB0E0EA34208BFAA423C
:20B6A4003EBF2D0A45EA0465240A89D3734642461E4617460B46024631463846BDE8F0818A
:20B6C4007047EFF3108062B6704700207047EFF3108072B670470020704700000246B2482D
:20B6E400006800E0006828B103899942FAD1837A9A42F7D17047F8B5AC4C0646201D00689D
:20B704000D468047074629463046FFF7E7FF002814BF45680025A168384688472846F8BDB7
:20B724000EB50820ADF800001220ADF80200A04801686846884701980EBD2DE9F84F9C4E23
:20B74400044670688047984D05F10802116809191160B1688847286800285BD0A9464FF012
:20B76400000807463546C2466868804756461FFAA4F3834683B95FFA94F36BB93979E0B2BD
:20B78400884204DD79682046884209D20AE03879E1B2401A387108E079682046884201D310
:20B7A400314601E07968091A7960B88878B9FB8853B9FB6843B13B8933B1B87A194600F0D0
:20B7C40043FBF8687860B88808B9FB880BB13B896BB9B8F1000F04BF3868C9F8000003D018
:20B7E4003868C8F8000038683E46074601E0B8463F68A9685846884756B1B08828B9F088D8
:20B8040018B9B07A318900F01FFB304601F03CFA002FA9D1BDE8F88FF8B5FFF781FF654922
:20B82400614C0F686668B7F57A7F13D0801B4FF47A720023A7FB0001FFF749FE05464FF42F
:20B844007A720023FFF7ACFD3A460023FFF73FFE301800E0851B6060574C584F206820F0F6
:20B864000200206038688047554E316872684919B1F57A7F0AD34FF47A73B1FBF3F7D21936
:20B884007260B1FBF3F707FB03F2891A31604849896888472846FFF750FF206840F0020053
:20B8A4002060F8BD2DE9F04106463F48006817460D4608B9FFF7B0FF3D4C606880478046D9
:20B8C40029463A46304600F022F8A168074640468847002F14BF00200820BDE8F08170B5C5
:20B8E4000546364800680C468047064621462846FFF7F4FE041C1CBF002020812C488168D8
:20B9040030468847002C14BF0020062070BDF8B514460646FFF7E2FE0D46002818BF44604D
:20B9240016D1102001F0BDF91F490F68002808BF00200DD086720581446000220260C260B2
:20B944002FB1394600E011460A68002AFBD10860F8BD2DE9F0411B4D8046281D006816464A
:20B964000C4680470746214632464046FFF7CFFF041C18BFE660A96838468847002C14BF9A
:20B9840000200820BDE8F08107480068002808BF002107D00C494268914288BF111C0068F9
:20B9A4000028F8D1084670472446002030460020304600204448002010E000E034460020C1
:20B9C400D4480020304600208EC2F528ADF1080D01208DF800009DF800000028FBD102B090
:20B9E400704710B5FFF773FE002400B10124204610BD10B5FFF765FE002400B101242046B5
:20BA040010BD00001649086820F4806008600004000C40F480300860124848601249012050
:20BA2400086012490020086070470D480C38006870470B4808B50068C00A01D2FFF7E2FF5C
:20BA44000B4908684008FCD30A48006841680220884706490A6882420CBF0748086008BDE7
:20BA64001480024004010100A8025042E445002008800240CC010010EFBEADDE7047704714
:20BA8400054908B510B90A78012A03D0C91C0A680021904708BDC046294800201849042816
:20BAA40024D005281DD0062816D00F280FD0102821D311492F2805D9303801220B468240F1
:20BAC400181D17E0103801228240084612E00B48026822F002020DE00846026822F4802299
:20BAE40008E00846026822F4003203E00846026822F480320260704780E100E010E000E0CD
:20BB040024ED00E0144904281ED0052818D0062812D00F280BD010281AD310492F2887BF67
:20BB240030387C3910388039012282400FE009490A6842F002020AE00A6842F4802206E0FB
:20BB44000A6842F4003202E00A6842F480320A607047C04610E000E024ED00E080E100E0A2
:20BB640001462F48006800E0006840B100F108028A42F9D88288121808328A42F4D3704712
:20BB840010B503460C46FFF7EBFF58B11A1B00F108011C1BA14205D88188091808319142FC
:20BBA40028BF131C184610BDF8B51E4C0546201D00688047064605F1080080B201F071F89C
:20BBC400071C05D01649BD8008680F6038600837A168304688473846F8BDF8B5114C054641
:20BBE400606880470E4906460868A0B1002700F10802AA4204D8828812180832AA4204D234
:20BC0400074600680028F2D105E007B90F460168396001F039F8A16830468847F8BDC04659
:20BC24000447002030460020FFF718BC034610461A4628B111F8013B401E02F8013BF9D1BA
:20BC44001046704710B5041C05D004F10C0080B201F027F808B9002010BD00210160048121
:20BC6400FF2383720C3010BDBF480078704708B5002808BF052009D010F8021CFF2918BF9B
:20BC8400042003D10C3800F0FFFF002008BD10B580F08004022C01DB00F056F9B248C01CB9
:20BCA400005D10BD2DE9F843C44D0746686880478146AD48836800246FF00B0680469C4231
:20BCC40013D013F8020C874208D134B16BB138464FF4004100F0B8F80CE01C460CB9A3F178
:20BCE4000C0653F80C3C002BEBD138464FF4004100F0F5F8ACB168688047D8F80810A4F164
:20BD04000807A14219BF54F80C1C316057F8041CC8F80810002147F8041CFF26BE71A96824
:20BD24008847A968484688472046BDE8F8832DE9F041904606460F1C08BF05243DD036F085
:20BD44007F0001D000F000F9052EA8BF032407DA57F80C0C18B917F8020CFF2804D005248B
:20BD64003846FFF784FF28E007F8026CAD4C7E4D6068B8F1010F13D080470246002047F8BD
:20BD84000C0CA868002808BFAF6005D0014651F80C0C18B941F80C7C104606E00146F6E70A
:20BDA4008047A96847F80C1CAF60A168884730464FF4004100F048F800242046BDE8F0818F
:20BDC40070B502460D4632F07F0004D110460022FFF7ADFF70BDFFF747FF63498C78A5F160
:20BDE4000C06FF2802D0496A08184479FF2C02D100F0AAF80DE01046FFF749FF01462A46DC
:20BE0400FF20B072204600F008F820B12846FFF72EFF012070BD002070BD00B5ADF1140D16
:20BE24008DF804000823ADF800308DF8061000208DF8080006237B4803920168ADF802306C
:20BE44006846884705B000BDF8B506460C4636F07F0014D1052E10DA724D68688047A049BE
:20BE6400096831F81620144321F81640A9688847C348006800F049F82FE00320F8BD042099
:20BE8400FFF7E0FE071C08BF042027D04FF6FF7038807C80FFF7E8FE33498C78A7F10C0558
:20BEA400FF2802D0496A08184479FF2C06D13846FFF7DDFE00F048F80120F8BD3046FFF732
:20BEC400E6FE01463A46FF20A8722046FFF7A5FF18B13846FFF7CBFEEEE70020F8BD70B5A5
:20BEE40006460D46052E0EDAC04C241F606880477B490A6832F81610A94322F81610A168EB
:20BF04008847002070BD032070BD0EB508210190B748ADF800100B21ADF802100168684686
:20BF240088470EBD70B5B24C0546201D0068804706460D48016AA94202D10069FFF7E5FF7C
:20BF4400A1683046884770BD08B50520FFF798FD0820ADF800000C20ADF80200A5480168FF
:20BF64006846884708BDC0463048002008B5A24B002113F8012FFF2A04D1187041F080019F
:20BF8400C8B208BD9042F9D0491C0229F1D3FFF7DBFFFF2008BD10B504466088002818BFC5
:20BFA4006FF0010008D1A079FFF7E0FFE071FF280CBF6FF00300002010BDC0463046002028
:20BFC40010B50821ADF1180DADF800108D4C04901B21ADF80210E069029001210191874938
:20BFE400844803910168684688470299E16106B010BD10B5804CADF1180D01907F48A41E29
:20C004000390E0690491082202907D48ADF8002013220168ADF80220684688470298E061A8
:20C0240006B010BD3046002073482DE9F04F1E300068ADF1240DFFF7C3FF08B1FFF784FF64
:20C04400DFF89CB06E4D6F4E4FF00809FFF79CFC079020B1FFF7E0FB4FF0FF300790002401
:20C0640029E0706A9DF816C0A7F10C0805212246401E10F8013F9C4504D0491E02F101027C
:20C08400F7D116E05FFA82FABAF1FF0F11D098F80400FFF76BFF98F80610012903D00229AD
:20C0A40008BFB87000E0387050463946FFF788FE01E0FFF749FF0720ADF810902968ADF8B3
:20C0C400120004A88847069F0028CAD0DBF800006700C35B33B9641CE4B2052CF8DB20E00A
:20C0E4003C460020052C1CDA68688047DBF80010002231F80780CA53A9688847424850F858
:20C10400242034704146204690470446FF20307068688047DBF800107A5A14437C52A968E2
:20C124008847FFF731FC07460798B8421BD007B9364FB069B84238BF071C686880470446E5
:20C14400F369ADF800901C20ADF802002968019368468847316A3846491C3162FFF749FF76
:20C16400A968204688470A20ADF80A004FF0FF37ADF808902968039702A8884766E7C046F3
:20C18400404800200346104609181A46491E28B111F80139401E02F8013BF9D110467047E5
:20C1A40008B50221684600F081FEBDF8000008BD10B5401E491E4AB111F8013F10F8014FDE
:20C1C400A34218BF002002D1521EF5D1012010BD28B142B1401E10F8013F994201D000204A
:20C1E4007047521EF7D101207047C0463446002030460020304600203248002029BF010025
:20C20400304600203048002070CF01008EC2F5282DE9F0470C468046E00BC00318BF84F4DD
:20C22400004437D1002C08BF002034D0DFF870904E4670688047194B824618880025012279
:20C24400294602FA01F73C4203D1491C0F29F8DB1BE0CA004546C601E901A6EBC0001B1D2B
:20C26400A1EBC501461A551AB6182A189958F618BDB211B1D2185068884740462946FFF7FD
:20C284003AFA10B9002030607060D9F80810504688476C40A0B2BDE8F087C04658480020EF
:20C2A400304600202DE9F84308AF3E7881461C461546884606F10C0080B2FFF7C3FC071CC7
:20C2C40016D0802038707C7040F27F637B801349A7F804803246BD7107F10C04FE7107F19D
:20C2E4000C00BC60FFF7A2FC48463946FFF768FDBDE8F88302460023921E012A09D9921E1E
:20C3040004D0802807DB902805DA05E0042902D102E0102900D0022318467047EF450020C6
:20C324002DE9F04FC80BADF1240DC003049108BF002000F0B282C74D2878FFF7B3FC061C24
:20C3440000F0A782C64C216849B1B1F1FF3F06D0C8480078FFF734FD4FF0FF302060307830
:20C36400813832D0401E40F09182B488B77996F802B04FF000084FF00109012C17D1381FB5
:20C38400C24612D00C380DD0C01E012807D9801E0BD0801E0BD10A20C846E87108E04FF0FC
:20C3A400020A05E0307AFCF779FCC14600E0CA463046FFF75CFCB9F1000F00F06A82CDF861
:20C3C40018B0A1460597544657E2B2469AF806009AF802703F26BAF8049005904FF0000820
:20C3E4000697B6EBA92F40F04F81C9F3C210002800F04A814946C1F3C2173F1F00F0C18007
:20C404007F1E40F03F81C948036801F07F075446781E00F09080401E17D0401E00F0AE80A7
:20C42400401E03D0401E00F0998095E0C048A7680088002F00F0A280C6493960B880922673
:20C44400BE7101253D817D8173E0207A617A8446FFF750FF0F46002840F090806046BE4D82
:20C464000790D4F80CB085F8018000F045FA061C15D044468FB130460DF10E01012200F005
:20C484001CFA1BF804009DF80E10884205D1641C761CE4B2B6B2A742EDDCA74249D0FE1C3A
:20C4A4004FF6FC7707EA06046E8840F6FC713019814204DA00F0A3FA00F0CEFA6E88FF1CEC
:20C4C40044F40040ADF808703319ADF80A0002A901229FB2384600F052FABDF80A0002A985
:20C4E40001226FF3DF30ADF80A00384600F047FAA0105946C2B2304600F041FA079802A998
:20C50400012240F40040ADF80800384600F037FABDF8080002A901226FF3DF30ADF808008B
:20C52400384600F02CFA687848BB68880019001D6880404623E0267A617A3046FFF7DAFE2A
:20C544000D46D8B9E468304600F0D6F920B121462A4600F0B2F9ECE7012010E09B684046C2
:20C5640001460A4698474FF00408E871010A070C2972060E6F720020AE7200E00220074660
:20C584005CE001F07F01504631290CDC31291ED0002943D0891F6FD0491E63D0491E5BD07B
:20C5A400283930D06EE033394FD0491E06D0491E48D0491E44D0481E42D063E0007AFCF7DE
:20C5C4005EF9002801903BD001A9042214E04FF6FF740089ADF80C40FF2807DA262805D01B
:20C5E400282803DAFBF769FEADF80C00BDF80C00844225D003A90222ED1D90462846FFF770
:20C6040015FB002035E10189262919D0282917DA0A4641891046FBF743FE2AE1417AC46837
:20C6240001290AD1007AFBF751FE071C06D12046FBF771FEFCF752F900E00227384618E1B7
:20C64400022016E1FCF740F913E18068FCF7B7F80FE1C046E8450020007AFCF78AF808E1F8
:20C6640020470020047A417A827AC3682046FCF74CF8FEE0C2450020027AC1681046FBF740
:20C68400FBFFF6E00120F4E04C4642F211015246A14237DBA14200F0BD8041F20900A0423E
:20C6A40019DBA04200F0CF80A4F60140002800F0DD80801E00F0D780603800F0D080A0F2C2
:20C6C4009E30002800F0C880401E00F0C280401E00F0BC8049E041F20540201A00F0AF8014
:20C6E400A0F6FC30002800F0A680801E00F0A080001F00F09A80083800F09480401E00F0CD
:20C704008E8032E04FF60140A04213DBA04263D0491C601A79D0401F72D0401F6DD0401EC7
:20C7240067D0401E5FD0401E5AD01EE01C470020B0D60100001D241A092C0FD90C3C28D0E9
:20C74400A41F21D0241F1AD0641E14D0641E0ED00BE0C04602020200E0480020DFE804F034
:20C764003733052E2B272420051D012482E0107AFCF7FEFF7DE01089FDF70DF879E0107A8D
:20C78400518900F09BFB74E0107A518900F09AFB6FE0107A00F09AFB6BE000F09BFB68E081
:20C7A400906800F09BFB64E000F09CFB61E0107A00F09CFB5DE000F07DFB5AE0107A917A66
:20C7C40000F098FB55E0906800F098FB51E09068D16800F097FB4CE0107A00F097FB48E0DE
:20C7E40000F098FB45E0107A517A927AFCF79AFF3FE0107AFCF79FFF3BE000F08FFB38E0B9
:20C804009068D16800F08EFB33E0107AD16800F08DFB2EE0107AD16800F08CFB29E000F0DB
:20C824008DFB26E000F08EFB23E000F08FFB20E000F090FB1DE09068FCF7BFFF19E01089BD
:20C84400FDF702F815E000F0C5FA12E000F086FB0FE0FCF742FF0CE0FCF7CAFF09E0906833
:20C86400FCF772FF05E0FCF727FF02E0906800F079FB04465046FFF7FAF9CDF80080069868
:20C88400059A23464946FFF70DFD02E03046FFF7EEF9049880F4004080B209B0BDE8F08F69
:20C8A40013491D23090BC9B291FBF3F25A43891A00EB013000F5E8307047F8B517460D465B
:20C8C400FFF7EEFF0B4C06466068804703E016F8011B05F8011B39464A1E002997B2F6D1F9
:20C8E400A1688847F8BD0B460146184600F068B900E001003046002038B50546A44800887D
:20C90400001F84B2042C1EDB204669460422FFF7D4FFBDF80000854204D19DF80200241A6B
:20C92400A0B238BDBDF80210C80BC00307D1081D844203DA0020FFF7A3F804E0641A241F59
:20C94400A4B2042CE0DA002038BD10B500F02EF9C4B24CB18F48006842688F480021904777
:20C9640000F024F90028FBD1204610BD08B528B18A480068426888480121904708BD2DE961
:20C98400FC4717460C460546FFF78AFF854E8046706880478146FFF7D8FF8246BA00214622
:20C9A4004046FFF7A0FF5046FFF7E0FFB84602E02D1D241DADB24046411E5FFA81F8C8B1F3
:20C9C400284669460422FFF778FF611E0420ADF1010C11F8012F1CF8013F00279A4218BFEE
:20C9E40001271FB9401EF4D1002FE1D06C49012048700870B16848468847BDE8FC8708B5CF
:20CA04000020012269460090FFF7B9FF08BDF8B5644C201D006880470546FFF796FF064632
:20CA24000020FFF73DFF00F0D9F807463046FFF79DFF1FB15A49012048700870A16828464F
:20CA44008847F8BD08B54FF480100122694600900020FFF794FF08BD2DE9FC41FFF775FF31
:20CA640080464B4800880027011F8CB26FF00301401880B204285ADBFF254FF6FF762046BA
:20CA840069460422FFF719FFBDF80000864237D0002835D0C10BC9032FD185422DD0C5B22B
:20CAA400381F80B2042815DBB0F5805F12DA00F18852126801A90A60BDF804108D4207D095
:20CAC400BDF80610401A001F80B20428ECDA01E0012300E00023BDF802001BBB211A001DFD
:20CAE4008BB282B207F188511846FFF7E6FEBDF80200C119091D8FB214E0BDF8020011E024
:20CB0400BDF8020003466FF30E0363B9011D8C4208DA0020FEF7B4FF4046FFF727FF00202A
:20CB2400BDE8FC81241A241FA4B2042CA7DAFFF76EFF3FB11C484FF088513A46FFF7D3FE31
:20CB4400FFF780FF4046FFF711FF154A507800281CBF0020011C03D1C7F58054391DA0B25D
:20CB64005180BDE8FC811CB540F6FC74204669460422FFF7A2FE0098B0F1FF3F03D1241FE8
:20CB8400A4B2042CF2DA0248241D04801CBDC046E2480020D801001000400340D8010010B2
:20CBA400E04800203046002004E001000348006801092CBF042000F00300704700400340B5
:20CBC40008B5054B303B1B689B699847014A0021116008BD84046042D8010010054908B5B3
:20CBE4003039096849698847014A0021116008BD84046042D80100100EB508218DF80400AC
:20CC04001F48ADF800101721ADF802100168684688479DF805000EBD2DE9F843074688464E
:20CC2400052F02DA174D287810B90120BDE8F883134E70688047814668880124B8F1000F3E
:20CC44000ED1214603464FF6FF72B9404A40104068807BB170B90020FFF7CEFF044609E065
:20CC640018B92046FFF7C8FF68882146B940084380B26880B168484688472046BDE8F8830B
:20CC840030460020DC4800200EB5082101900D48ADF800100521ADF802100168684688476C
:20CCA4000EBD0EB5082101900748ADF800100421ADF8021001686846884700280CBF0298D5
:20CCC40000200EBD304600203046002030B51546ADF1140D0822ADF804001C460291084822
:20CCE400ADF8002000220168ADF80220684688479DF80C1029700499216005B030BDC0468C
:20CD040030460020F8B506460F4D104F7388002417E0A20002EBC402921951689068D268C4
:20CD240052B9AF420BD00A7855F822200346491C08461946904701E0FEF73EFB7388641C4B
:20CD4400A4B2A342E5DCF8BDB8D60100C4D60100D0F8032008460021FEF780BBD0F803207F
:20CD6400C31D08461946FEF727BBF8B5844640F6FF741CF8013B002210E0481B401E10F800
:20CD8400015B7F1E01F8015BF9D103E01CF8010B01F8010B521C5B08082AEADA5808F5D281
:20CDA4001CF8010B1CF8015B05F00F07FF1CC5F30315122F45EA001508D11CF8016B300AD1
:20CDC40024BF1CF8010B60F3DF16BF19AC42D4D1F8BD0000DFF800F065970010DFF800F04A
:20CDE40049980010DFF800F0C9560010DFF800F0A1980010DFF800F0BD980010DFF800F045
:20CE0400D9980010DFF800F06D980010DFF800F0D5570010DFF800F0B1AD0010DFF800F0B2
:20CE240015830110DFF800F091830110DFF800F0818C0010DFF800F0DD8A0010DFF800F070
:20CE4400D5700010DFF800F09D580010DFF800F00DB50010DFF800F035A30010DFF800F09E
:20CE640019870010DFF800F03DAC0010DFF800F089D10010DFF800F0C9B40010DFF800F0F2
:20CE840019570010DFF800F071940010DFF800F0E5730010DFF800F0E1AC0010DFF800F0D8
:20CEA400EDAB0010DFF800F0F5D10010DFF800F001580010DFF800F0AD9E0010DFF800F010
:20CEC40009A10010DFF800F0F1A00010DFF800F0D19F0010DFF800F0699F0010DFF800F03F
:20CEE4000D9F0010DFF800F0ED9E0010DFF800F0CD9E0010DFF800F08D9E0010DFF800F005
:20CF04002D9E0010DFF800F0D19D0010DFF800F0099D0010DFF800F08D9C0010DFF800F0A9
:20CF2400159C0010DFF800F0F59A0010DFF800F0319A0010DFF800F0159A0010DFF800F0D7
:20CF4400F9990010DFF800F0C9990010DFF800F0F5980010DFF800F029980010DFF800F02F
:0CCF64003D970010DFF800F07195001000
:20CF7000F39E0100BFB2010015C20100AF8C010025C30100A7CC01008DCC0100DFBB010037
:20CF900031BC01002DBC010081BA0100A7CC01008DCC01001DCC010049BC0100C5BD01002C
:20CFB0004DBE010031BC01002DBC0100ADBB0100DFBB010085BB0100A9B80100E3B801003A
:20CFD000E3BE01000F910100F7B90100E7B9010009BB0100A1BA010081BA010009BA01008B
:20CFF00037BA0100D1B90100B1AF0100D1B90100D1B90100D1B90100D1B90100B5AF0100B2
:20D01000CBAF0100D1B90100F5AF0100D1B90100C2450020E1450020E0450020E2450020D1
:20D03000C345002080D60100D1B90100D1B90100D1B90100D1B90100D1B90100D1B901001F
:20D05000D1B90100D1B90100D1B90100D1B90100D1B90100D1B90100D1B90100D1B9010068
:20D07000D1B90100D1B90100D1B901005F910100158301103D830110698301109183011072
:20D09000C3910100B983011085840110A9840110C5840110CD840110D1840110D5840110FA
:20D0B000F98401104985011051850110E185011069860110756901107969011085690110B4
:20D0D000996A0110F56A0110796B0110296C0110456C0110796C0110056D0110296D01103F
:20D0F000A16D0110C96D01108D6E0110A16E0110D56E011065730110FD7401107D760110CB
:20D110003978011095780110F578011071770110ED750110098B0110998A0110C58A0110FC
:20D13000198A0110358A0110DD8A0010A18B0010D1B90100D1B90100F1A0001009A1001037
:20D15000799D0010D1B90100AD9D0010D19D00109B970100D1B90100699F0010ED9E0010C5
:20D1700095A00010D1A00010F19F0010AD9E0010CD9E00108D9E0010D1B90100D1B9010012
:20D19000D1B90100D1B90100D1B9010075970100B19F00100D9F0010D1B90100819F0010FA
:20D1B0002D9E0010D19F0010D59C0010D1B90100D1B90100099D0010F1950100D1B90100A5
:20D1D000D1B90100159A0010F9990010D1B90100D1B90100D1B90100F59A0010D1B9010088
:20D1F000D1B90100519B0010F5980010F3960100D1B9010029980010D1B90100159C0010C9
:20D21000C99900103B970100319A0010A1980010D9980010D1B90100BF970100D1B90100A7
:20D2300049980010D1B90100D1B90100BD980010D1B901008D9C001029970100D1B9010062
:20D2500065970010DF9601003D970010F5970100D1B901004D980100D1B90100BD9601007B
:20D27000CDD70010818C0010598C0010318D0010D1B90100D1B901007195001081960100C6
:20D2900091950100A194001039570010818D0010D1B9010019570010D1B90100D1B9010033
:20D2B000D1B90100AD8E0010D1B90100D1B90100D1B901009BA4010071940010C5A3010029
:20D2D00053A20100D1B901000590001039B60010F5B50010D1B90100D1B90100D1B90100BE
:20D2F000D1B90100D1B90100D1B90100D1B901000DB50010D1B90100C9B400108DB50010B6
:20D31000EDB400102570001015A701007D6B0010D1B90100816B0010856B0010A17000104A
:20D33000D1B901002DA201001D700010ADA2001021700010496F001075A0010095A10100D0
:20D3500011A10100D1B90100D1B90100D1B90100D1B90100D1B9010059A20010D5700010F3
:20D37000FD6E0010016E0010D1B90100F96E001007A0010059A00100D96A001001A20010F9
:20D39000D1B90100D1B901002DA0010011A20010D1B90100D1B90100D1B90100D1B90100AA
:20D3B000D1B90100D5570010579D0100B9570010F39E010001580010D1B90100F55700109F
:20D3D000D5A1001005610010C9560010D1B90100795800109D580010D1B90100D1B901008B
:20D3F000D1B90100E1910010D1B90100C1A60100D1B90100A157001065570010839F01009B
:20D41000D1B90100E9A50100895F00100FA50100E9560010D1B90100D1B901002D61001032
:20D43000D1B90100D1B90100D1B90100D9D20010F7AF0100F5D1001087B0010025B00100F5
:20D450001BB0010029D2001089D100106DD3001067B00100E7AE010051CD0010D1B90100C4
:20D47000BD980100D1B901006BAE0100D1B90100D1B90100D1B901001B9B0100E9720010DE
:20D49000D1B90100D1B90100D1B90100D1B90100D1B90100D1B90100D1B90100D1B9010024
:20D4B000D1B90100E5720010ED720010D1B90100D1B90100D1B90100D1B90100D1B9010044
:20D4D000D1B9010019870010F186001039A9001095A80010EDAB0010D1B90100D1B901007D
:20D4F000A9AC0010D1B901003DAC00102BAE0100D1B90100D1B90100D1B90100E1AC00101B
:20D51000D1B901001DAF0100C5AE0100079B0100D1B90100D1B90100919B01000F9A01009F
:20D5300029AE0100D1B90100D1B90100D1B90100D1B90100F1890010D9890010D1B9010050
:20D55000D1B90100B1AD0010D1B90100D1B90100D1B90100D1B90100D1B90100F172001098
:20D57000D1B90100D1B90100D1B901005D91010041AE001045AE001049AE0010D1B9010077
:20D59000D1B90100D1B90100D1B90100659A0100B19B0100D1B901004DAF010035A300101D
:20D5B00039AE0100E1720010D1B90100C19A0100E5730010B1AE0010D1B90100D1B901003C
:20D5D000D1B90100D1B90100D1B90100D1B90100D1B90100D1B90100D1B90100D1B90100E3
:20D5F000D1B90100D1B90100D1B90100D1B90100D1B90100D1B90100D1B90100D1B90100C3
:20D61000D1B90100D1B90100D1B90100D1B90100D1B90100D1B90100D1B90100D1B90100A2
:20D63000C9D80010F5D80010D1B90100D1B90100E1D900105F9C0100D1B90100D1B901005A
:04D65000D1B901004B
:20D654000061310054D60100010000000000D0020A05000000000000020100000000000014
:20D674001000000000000000EC00002100000000000000007CD6010060D6010000000000EF
:1ED6940064D6010068D601006CD6010070D6010074D6010078D60100E44600206E1909
:20D6B8006FCD010061CD010055CD0100D8D601004046002088D90100B845002000000000EF
:20D6D80001000000A40200000000000000000000000000000000000000000000000000008B
:20D6F80000000000FF0000000000000000000000000000000000B400002800280028307542
:20D71800A000A000A000A00000080008E001F0001000100010001000100010005000500090
:20D73800500010001000D0070000000000000F0001000500307507001000010081FF000038
:20D7580000000100FF00000000000000000000000000000057890100E18A0100738A010066
:20D7780000FF0000000000000000000003081B000000000058D6010000000000000000003D
:20D79800000000000000000034080000000000000000000000000000000000000000000035
:20D7B8000000000000000000000000000000000001000000CD9C010000000000059D010043
:20D7D80000000000C4090000A5B001000000000001001A01000000000000000000000000F2
:20D7F800000000000000000000000000000000000000000000000000000000000000000011
:20D818000000000000000000000000000000000000000000000000000000000000000000F0
:20D838000000000000000000000000000000000000000000000000000000000000000000D0
:20D858000000000000000000000000000000000000000000000000000000000000000000B0
:20D87800000000000000000000000000000000000000000000000000000000000000000090
:20D89800000000000000000000000000000000000000000000000000000000000000000070
:20D8B800000000000000000000000000000000000001000083BA0100FF0000000000000012
:20D8D800000000000000000000000000000000000000000000000000000000000000000030
:20D8F800FF0000000000000000000000000000000000000000000000000000000000000011
:20D918000000000000000000000000000000000000000000000000000000000000000000EF
:20D938000000000000000000000000000000000000000000000000000000000000000000CF
:20D958000000000000000000000000000000000000000000000000000000000000000000AF
:18D978000000000000000000010000000000000002000000880000000C
:20E00000FF0000000000000000000000000000000000000000000000000000000000000001
:20E020000000000000000000000000000000000000000000000000000000000000000000E0
:20E040000000000000000000000000000000000000000000000000000000000000000000C0
:20E060000000000000000000000000000000000000000000000000000000000000000000A0
:20E08000000000000000000000000000000000000000000000000000000000000000000080
:00000001FF
