:20000000B84100207142000001CA011001CA011001CA011001CA011001CA011001CA0110EC
:1C00200001CA011001CA011001CA011001CA011001CA011001CA01103FCA011082
:20003C002DE9F04114460F4600F04AF81FFA80F81F480068007808B905F04EF8E7B1386870
:20005C004FF0FF3518B140280AD3810B08D17E681EB1310A04D0310E02D1B9680F2908D98E
:20007C003DB10CB128462070082002F009FD002418E07968BA6803E04FF4807001220146FC
:20009C0004F0E2FC0B49012008600B4908684008FCD30A4800684168022088470CB1002188
:2000BC0021700446404600F00FF82046BDE8F081B0590000A802504208800240CC01001064
:2000DC00DFF800F049C10110DFF800F019C20110034A1168506813688B42FAD17047C04621
:0400FC00082009408F
:200100003C000000000000000000000034010000000000000000000001000000000000006D
:1C01200000000000000000000000000001000000000000000800000000000000BA
:20013C00340000000000000000000000680100000000000000000000010000000000000005
:14015C00010000000000000000000000080000000000000086
:2001700030000000000000000000000098010000040000000000000001000000FFFFFFFFA5
:10019000FF00000001000000080000000000000057
:2001A0002C0000000000000000000000C4010000040000000000000001000000FFFFFFFF4D
:0C01C000FFFFFFFF08000000000000002F
:2001CC0034050000E401000099A1011095A70110A5C2011009B2011045B80110000000000B
:0801EC00000000002F000000DC
:2001F400280000000000000000000000140200000000000000000000FFFFFFFF00000000B1
:080214000800000000000000DA
:20021C00300500003002000069C201106DC101101FC2011095BA011000000000000000008E
:04023C002D00000091
:20024000300500005402000075C20110A9B601109DBF011049B601100000000000000000DE
:040260002E0000006C
:200264002400000000000000000000008002000000000000000000000000000008000000CC
:040284000000000076
:20028800240000000000000000000000A40200000000000000000000000000000800000084
:0402A8000000000052
:2002AC00240000000000000000000000C8020000000000000100000000000000080000003B
:0402CC00000000002E
:2002D00000000000680F0020040000000000000000000000200000007001000030000000B2
:2002F0001C020000700F00200400000000000000000000000C0000003004000018000000D5
:2003100040020000780F002004000000000000000000000024000000480400001800000058
:2003300000000000800F002004000000000000000000000010000000A00100002C0000001D
:20035000CC010000880F00200400000000000000000000002000000064020000240000005B
:20037000FFFFFFFF900F0020040000000000000000000000280000008802000024000000D8
:20039000FFFFFFFF980F0020040000000000000000000000580000003C01000034000000BD
:2003B000FFFFFFFFA00F0020040000000000000000000000100000006004000018000000D2
:2003D000FFFFFFFFA80F00200400000000000000000000001C000000AC0200002400000048
:2003F000FFFFFFFFB00F002004000000000000000000000038000000F401000028000000B9
:20041000FFFFFFFFB80F002004000000000000000000000054000000000100003C00000054
:1804300018000000000000000000000040040000080000000000000050
:1804480018000000000000000000000058040000080000000000000020
:18046000180000000000000000000000700400000800000000000000F0
:0804780001000000F059000032
:04048000FFF72CBE98
:040484000100000073
:0404880000000E0062
:04048C0000000F005D
:040490003200000036
:040494000100000063
:04049800100F002021
:04049C00000200005A
:0404A0000000000058
:0404A40001CA011078
:0404A8000000000050
:0404AC00000000004C
:0404B0000800000040
:0404B4000000230021
:0404B800F80D00201B
:0404BC00010000003B
:0404C000280F0020E1
:0404C400080000002C
:0404C8000000000030
:0404CC00000000002C
:0404D0000000000028
:0404D4000000000024
:0404D8000000000020
:0404DC00010000001B
:0404E000600E00208A
:0404E400060000000E
:0404E800010000000F
:0404EC00640D00207B
:0404F0000000000008
:0404F4000000000004
:0404F80000020000FE
:0404FC0000000000FC
:02050000704742
:020502002900CE
:020504000100F4
:020506002500CE
:020508002D00C4
:02050A002E00C1
:02050C002F00BE
:02050E000100EA
:0105100001E9
:0805140003000000CC590000B7
:08051C000000000000000000D7
:0405240000000100D2
:0405280000000300CC
:04052C0087C401106F
:04053000380500008A
:040534003805000086
:0405380000000000BF
:04053C00900000002B
:040540009000000027
:0405440000000000B3
:04054800280F002058
:04054C00B3530000A5
:040550002000000087
:040554008C590000BE
:0405580054590000F2
:04055C000DC30110BA
:040560007F4E0000CA
:0405640083540000BC
:0405680099C801101D
:04056C009BC8011017
:040570000000000087
:0405740053590000D7
:04057800D058000057
:04057C00E85800003B
:04058000B858000067
:0205840008006D
:0205860009006A
:02058800010070
:02058A0000006F
:01058C00016D
:040590000000000067
:040594000000000063
:04059800000000005F
:04059C00000000005B
:0405A000B55500004D
:0405A400CD45000041
:0405A800114F0000EF
:0405AC00AD48000056
:0405B00013490000EB
:0405B400554B0000A3
:0405B800DD3600002C
:0405BC007554000072
:0405C000F13B00000B
:0405C40011C8011049
:0405C80021C8011035
:0405CC000800000023
:0405D0002400000003
:0405D400180000000B
:0405D80028000000F7
:0405DC0020000000FB
:0405E0003C000000DB
:0405E4000C00000007
:0405E80034000000DB
:2005EC002DE9F84F8046DD480122A0F130010A60D7490F68002FFCD0D74CD64AC02704F1A7
:20060C00040B1760DBF80010890804D22168090C41F0F00100E07221E34AE44D4FF0000A24
:20062C0082F85412A5F1D407C0F800A0A66838683146C0F304601628A8BF203800EB217050
:20064C00401C162805DA10F10A0FB8BF6FF0090000E01520E64AE74F00F01F0040F4F85016
:20066C001080386880083ABFE348C0F800A041F04061E24AA946C80E8F0EA9F13C0580F08F
:20068C00010000F00100106087F0010000F0010090602868C0F38367C0F38F21B00C22D253
:2006AC0046F3072000280BD542425046490805D17F0806BF0127391C4FF6FF71521EF5D1D1
:2006CC00002810DD4FF6FF72490041F001018A4207D27F0047F001070F2F92BF01210F277D
:2006EC00111C401EF0D141EA0741182004F022F828682F68C34DC0F3870140F2FF3253467B
:20070C0007F0030041EA002188B22C210090A5F1400003F01BFD4D46A5F110073868C0F3FC
:20072C000D011C2004F006F8B54957F8080C014000F07C400143142003F0FCFF57F80C1C46
:20074C0001F47C000904090C0143102003F0F2FF57F8042CDBF80010C2F30350C2F303433D
:20076C00490812D221680C0510EB247003D41028A8BF0F2000E05046090413EB217303D47E
:20078C00102BA8BF0F2300E0534643EA001302F47F4002F0FF01B8F1220F40EA034041EAA7
:2007AC00000124BF02F0804211430C2003F0C2FFB8F1220F32BF01202868C0F30070914CE5
:2007CC00B8F1220F4FEA400040F0200084F8090126BF2868C0F3407001208B4FB8F1200F39
:2007EC0040F0100084F8090138BF514606D33968C80C00F44070C1F384510143282003F09F
:20080C0099FFB8F1200F26BF3868C0F301505046B8F1220F4FEA400040F0600084F80C01D1
:20082C0026BF2868C0F3C0605046B8F1220F4FEAC00040F0800084F8010126BF2868C0F3A5
:20084C0045505046B8F1200F4FEA800040F47C40A4F89C0138BF6D490AD3386801038A15DA
:20086C00920501F47C1100F00F00114341EA0031082003F05FFF4F464FF480002060A7F1BB
:20088C00D000816D40F20F226FF31F418A4213D901680068C1F30363C0F3034003B15B1EA3
:2008AC00072805D006280EBF0720801C00F00F003D4943EA00100870C6F381435B1E02D068
:2008CC005B1E27D022E03968880C1FD24FF4804020604F48D0F802204B0A03F0800322F093
:2008EC008F021343C1F303321A43C0F80220D0F801300A0A62F30303C0F80130026801F039
:20090C00E70322F0E70243EA020102E04FF0004120460160DBF80000C0F3C0030BB9402020
:20092C00A0624FF4007020642868C0F3C14040F0300084F8C800C6F381503A4E4FF04008F1
:20094C00B0B3401E0CD0401E29D0022128E0C0469402224300600C40AC3F005040100940EB
:20096C00012004F05FFB05460420294603F058FB042004F057FB8542FAD12648056825F0EC
:20098C007F4004F051F8304614300068036807214FF06022280E98474FF4806020600321FD
:2009AC00042003F03DFB0AE0026008408C1300500420012103F034FB174804F035F8203F12
:2009CC0038681649164B47F6180500F03F0084F8CB0F32460D8018681068C16802208847B5
:2009EC001248114FC0F8008001213960BDE8F88F6E6208400000094094042A430000204349
:200A0C00FCFCFC0040A00C409813005000803F400A600840A83F0050BD37860070B00C40E1
:200A2C002C200940A00100109404604200600C402DE9FE43974C0F460546F80B80F00081B0
:200A4C00B80880F0ED80B80F6ED2A07A00284FD138094FD30025012665708F48267204F09D
:200A6C000BFD8E492A4604F1600004F090FD6079012821D1A079F8B9DFF82482E669D4F8EF
:200A8C001490D8F8000078B1FFF72AFBA0EB09004346000B3618A0611868B6EBC01F24BF38
:200AAC00281CE0610AD2E66104F1BC004FF0005104F00EFC284619E06671284640F6090355
:200ACC00A38694F8413003F0F00343F0010384F84130E58694F840302A4603F0F00384F8A1
:200AEC004030704EA26304F134013160606118E0380914D2B80BC0F0C48004F1240004F058
:200B0C004FFD061C08D0706830B17568F068B6F91C1000222023A84727F40057B1E0002043
:200B2C00A07227F00807ACE0A968088840F60208804507D00A8B4FF61F60104040F43470E7
:200B4C00088306E00A8A4FF61F60104040F4347008826069D0B1042004F064FAB0B1FFF7F7
:200B6C00BFFA6169814226BF401A401E401A000BE860E868698A401840F6C411E860814228
:200B8C0003D340F2EE22824200D9E960AE699EB14548B04210D094F8410010F00F0F0BD1BF
:200BAC00698C08F10700884206D128466FF4807100224FF00073B0473C4904F1600000220A
:200BCC0004F0E5FCA07958B10220ADF80000684604F0C4F80026A671BDF80800A4F85C00FB
:200BEC000120607020794FF00008401C207104F1200084F8078004F0D3FC002808BF47F02A
:200C0C00020702D0192004F0EFFB6E692EB1414628464FF080630A46B04727F0005730E044
:200C2C0004F12C05284604F0BBFC01F067FD284604F0B6FC27F0020708B147F0020720E0E7
:200C4C00FFF746FA014604F1280004F0A9FC0646B569A80810D27EB125EA0500B0610846B7
:200C6C00FFF73AFA706850B12A46F068B6F91C1075680023A84702E00846FFF72DFA27F46B
:200C8C00804727B104F1BC00394604F021FBBDE8FE83C04640090020112D0000A54E0000A3
:200CAC00481A00200010044017250000052300002DE9F04F0128ADF1140D40F0F280DFF838
:200CCC001492D9F8DC00012840F0E9800220C9F8DC0004F035FD0290012003F05BFA20B142
:200CEC0001210646C9F8DC10D5E004F025FD03906E484FF00008C0F80080012004F092F99A
:200D0C00012818BFCDF8008004D1404603F01AF80120009066486E4CC0F800801934D4F8B8
:200D2C00FF0F112004F0DEFB00280CBF46460126102004F0D7FB08B146F002060F2004F0E5
:200D4C00D1FB08B146F004060B2004F0CBFB30B1584800685849006B0246088890470A200F
:200D6C0004F0C0FB0028404618BF01204FF0805B0BF5DC7528B128685049006B0246088862
:200D8C0090474F480127076028688069014646F0200088474B48076004F09EFB00F00101EC
:200DAC000191400815D2484804F050FB8246BAF1040FF8D0BAF1010F06D1DBF8D801406863
:200DCC0002464148032190474049086820F003000860404600F08AF92868D4F8FF1F806B69
:200DEC008047019801280ED0BAF1010F06D1DBF8D801406802463448394690473349086894
:200E0C0040F0030008602A480760286840690146304688470B2004F065FB28B12868264936
:200E2C00C06A0246088890470A2004F05BFB28B128682249C06A02460888904720480760DD
:200E4C000322C9F8DC201F4BC3F800802868406B0146304688470128F8D1042003F09AF99C
:200E6C00124807601A48D4F8FF1F01688909FCD30098012802D1384602F064FF04F026FB13
:200E8C00082003F087F906460398C9F8DC7004F04FFC02F04BFE029804F046FC02E0042661
:200EAC0000E00126304605B0BDE8F08F0C40094000022243B80100104E5800004A580000C3
:200ECC002820086080010443004003402422084014100940680B00202DE9F04F08274FF0BA
:200EEC00010AADF1540DADF8107004A8ADF812A003F052FD7C4C9DF81400643C20700026AB
:200F0C0066700698206103F097FC4FF003094FF0040B0720207204F164010E914FF47A72D0
:200F2C0084F802A004F1090084F806906C49E67109680670B2FBF1F189B20F9100F13A01EE
:200F4C00109100F10F01119100F11B011291153013900A20ADF80200ADF800704FF0FF3550
:200F6C000195684603F018FD002840F0858030460A90ADF81C700925ADF81E5007A803F098
:200F8C000BFDDDF824800028CDF8288074D1BDF82000102865D120789DF82210884260D14D
:200FAC0045462878D0285CD1A978081C40D0801E23D0401E012838D86D78002D49D1032900
:200FCC0018D0A58995B1E3788BB10E9804F0EEFA10B10E9803F0F8FF0F9845430E982946FB
:200FEC0004F09EFB0E9804F097FB00E0E67084F8019030E0022060702DE06B78002B28D1D3
:20100C00EB78617953B9607802280CD00E9804F0CDFA40B9504604F01FF904E0109A30469D
:20102C0003F0C2F968706D789DB9012E13D018E06B7821796BB91198ED1C2A461368036038
:20104C00928882805046129A84F801A003F0ACF908B184F801B065691DB12D680DB16078C4
:20106C00A8470A9D45B1ADF80870ADF80A90CDF80C8002A803F090FC60894108FFF469AFC5
:20108C0020F00100E5786081002D3FF462AFA079E5798DF82C0013998DF82D500A680DF13E
:2010AC002E031A60898899800621207A657A8DF834000C4A8DF835500BA803F0D7FB0028F6
:2010CC003FF447AF606984F801B000283FF441AF016800293FF43DAF5846884739E7C04656
:2010EC00E8590000895500006C0200202DE9F84FDFF8ECB10746ABF13500DFF8D8A1006890
:20110C00800880F0D78003F015FE79490831D1F8008000254FEA28725FEA985102F101020A
:20112C000AD2C0F13E0110F10A0F4FEAE101D8BF08218A42B8BF0A1C634BD3F87C11C1F3BF
:20114C0004611629A8BF20391B68C3F30443162BA8BF203B99468918162905DA11F10A0FE3
:20116C00B8BF6FF0090100E01521584B584E01F01F0242F4F8521A80326812F0030F18BF73
:20118C000125D20828BF45F002050FB145F00405524692F90730C31A052B04DA9379AB42E4
:2011AC0008BF918866D0DFF830E10F28A0F10F0C25DB0CEB0013A3F1F00C4FEA2C26072EE8
:2011CC0088BF07263446062C88BF06245EF82470042303EB84037446E358DB1B03F0FF040B
:2011EC00EF0824BFC3F307273C44AF0824BFC3F307473C446F0828BF04EB136401E00024BE
:20120C0026465EF826E0EF080EF0FF0324BFCEF307273B44AF0824BFCEF307473B446F0813
:20122C0028BF03EB1E63A4B2ACEB0626A9EB01017443002904F1800403EB1423D8BF012166
:20124C00342408F0FF074C43A1B27943B1FBF3F14FF6FF738B4238BF191C802889B291805A
:20126C0005DA10F1800FB8BF6FF07F0000E07F20D0719571194800681F2910604FF0000018
:20128C0008D340F2FF128A4206D24908401C8A42FBD301E01F219180124F0F39090940EA22
:2012AC00C10047EA0001CBF8FB1F0026CBF8FF6FBDE8F88F0C490D4F524608200F60921D40
:2012CC001070BDE8F88FC0463C1100506E620840242208404C1A00209C1300500820094017
:2012EC003500094000E7A48030100940FDFDA400AC3F00502DE9F0411C4615468C4208BF5E
:20130C00854282BF00230022E5E0002C08BF002D0AD100290EBF00286FF000006FF00001D7
:20132C0000F0E1F8BDE8F0815FF000085FF0000E002C08BF8D429CBF2C1C0025070C47EA40
:20134C0001470E0CB44208BFBD429EBF5FEA044444EA15445FEA0545070A47EA01670E0A99
:20136C00B44208BFBD429EBF5FEA042444EA15645FEA0525470847EAC1774E08B44208BFF2
:20138C00BD4200F29380870847EA81778E08B44208BFBD427CD8C70847EA4177CE08B4425B
:2013AC0008BFBD4266D8070947EA01770E09B44208BFBD4250D8470947EAC1674E09B44273
:2013CC0008BFBD423AD8870947EA81678E09B44208BFBD4224D8C70947EA4167CE09B442BB
:2013EC0008BFBD420DD8E60146EA5566EF01B14208BFB84201D3C01BB14158EB08085EEB83
:20140C000E0EA60146EA95664FEA8517B14208BFB84201D3C01BB14158EB08084EEB0E0E00
:20142C00660146EAD5666F01B14208BFB84201D3C01BB14158EB08084EEB0E0E260146EA0A
:20144C0015762F01B14208BFB84201D3C01BB14158EB08085EEB0E0EE60046EA5576EF00E8
:20146C00B14208BFB84201D3C01BB14158EB08084EEB0E0EA60046EA9576AF00B14208BF19
:20148C00B84201D3C01BB14158EB08084EEB0E0E660046EAD5766F00B14208BFB84201D325
:2014AC00C01BB14158EB08085EEB0E0EA14208BFA84201D3401BA14158EB08085EEB0E0E3E
:2014CC00A34208BFAA423EBF2D0A45EA0465240A89D3734642461E4617460B460246314600
:2014EC003846BDE8F08170472DE9F843814603F0E7FF002100B901216B4E30680028FCD063
:20150C006C4D01242D1DEF6A346009B103F0DEFFDFF89881C7F3072008F1BC01086003F03E
:20152C00CFFF002100B9214630680028FCD02F68346009B103F0CAFFC7F38440C8F8C00065
:20154C0003F0BEFF0146002001B92046014630680028FCD0ED69346009B103F0B7FFC5F370
:20156C008120C8F8D000B9F5C061C8F8B81000F0968098F8D80068B9C8F8D410D8F8C00014
:20158C00C8F8C800D8F8BC70C8F8C470D8F8D060C8F8CC60D8F8D410D8F8BC60002954BFFF
:2015AC0002206FF00100454605F1C8031A6801EB41014018411000EB917002EBA0021A6003
:2015CC00D5F8C810C5F8C46000291CDD1E293DDDD5F8CC0030B93429B4BF15391E21C5F85A
:2015EC00C81025E02A29BABFD5F8C8000B381E20C5F8C800D5F8C4003F28B4BF401C3F2075
:20160C00C5F8C4001FE0D5F8CC00032812D011F10B0FC6BFD5F8C8000B30201CC5F8C80066
:20162C00D5F8C4000028CCBF401E0020C5F8C400032009E011F1150FC6BFD5F8C8001530CA
:20164C00201CC5F8C8000020C5F8CC00B5F8C400174E30214FF47F4208230090304602F0C6
:20166C0075FD009404214FF400321123304602F06DFDB5F8C80004214FF4F802122300901C
:20168C00304602F063FDB5F8CC0020214FF440620A230090304602F059FDBDE8F88300201C
:2016AC0088F8D800BDE8F88300800C40680B002000A00C4000A00C402DE9F04FADF1840DEB
:2016CC0000F08CFD02F01EFD0026012804D103F07BFD022808BF01265F490868C0F3815035
:2016EC00012806D151F80C0C0127010E07FA01F006435A48614F007807F12C00036802F0C0
:20170C0001FD03F07F03012804D103F05DFD022808BF5B1C524D2B602C463BB1FF2104F1FA
:20172C0040001F467F1E00F8011BFBD14D4800684FF0000900F0FF01FE291BD0DFF824C178
:20174C0000F0FF0749460122FF2F0CD0BB427FD902FA07F73E427BD100F0FF0047EA09097E
:20176C00201880F840105CF8040F491C00F0FF07FE2FE9D1092001F0F5F93A4800212422C3
:20178C000823606017A803F0C3FF4FF0010804F1240017AA8DF87480414603F0B5FF23688A
:2017AC0043B3002794354FF0040BBA4608FA07F0064219D119EA000F04BF07F0FF0141F4BD
:2017CC00C04105D03819274990F8400051F82010254801F085F8F8B24FF0FF3103F030FC12
:2017EC002368C5F800A001E0C5F800B07F1C2D1D9F42DBD301A800213022082303F080FF7A
:20180C000025FF20102101AB0990184A009504F1080003F071FF0DA828220823294603F01F
:20182C0067FF04F160000DAA1395114914952B4603F05AFF0F4951F80D0C20F4F85040F478
:20184C00005041F80D0C4746C1F8FF7F0A4E376021B0BDE8F08FC046B43F0050581A002057
:20186C005818002000590000007FC767695000002D4200000D30094008000940181300504C
:20188C002DE9F04F6C4CE2680746880FADF1140DC0F0C2805068406808B18047E26851686D
:2018AC005F4E886808B9CD687DB13568002DFCD00022326010B18047E0684168C86800B1B7
:2018CC0080475E48503803F049FA4FF00008C6F80080544846F81C0C534803F0CDFD40F6BC
:2018EC000A09A4F834906379A4F83680BD6894F84000C34604F1340A00F0F00084F8400072
:20190C00012BC4F838B094F84100A5F8028000F0F00040F0010084F8410001D17B7C93B124
:20192C00B8680088A9F10801814205D0298B4FF60F400840288304E0298A4FF60F4008400A
:20194C00288287F811803948016883680193C368406B00911022694620F0784040F0805048
:20196C0003903348029301F0E7FA494600E01D466B6813B118888142F9D1C5F804A0687B0C
:20198C0000F0F000687304F1200003F009FE80680088A9F10701814220D0491C81421DD097
:2019AC003B8CEBB197F82C0097F82D30C7F824B000F0F00087F82C0003F0F00040F00100DF
:2019CC0087F82D0007F12002A2639AF80D00A7F8228000F0F0008AF80D0001E0C4F81480B0
:2019EC0030680028FCD0C6F80080012003F01AFB012808D0687B00F0F00040F00100687318
:201A0C000C4803F039FDB9680A8A4FF6FF3010400882B86846F81C0C05B0BDE8F08FC046D5
:201A2C001C10044001010E043D0A00004C13005018000021953B0000400900205100070650
:201A4C002DE9F04F08260127ADF1440DADF8186006A8ADF81A7002F09FFF614D9DF81C00F7
:201A6C002870089805F114040021A860204603F037FE4FF0030BEC6040F2023039468DF85C
:201A8C003E700DF13E028DF83FB000246C60A146ADF8349000F03AFD40F2033002210DAA34
:201AAC0000F034FD40F20530192105F1200200F02DFD4FF441701E2105F1390200F026FDAF
:201ACC0040F2063039460DF13F0200F01FFD06204FF4965102F0ACFD07204FF4965102F09A
:201AEC00A7FD30464FF4965102F0A2FD09204FF4965102F09DFDA8463A4D6878E8B908F137
:201B0C00100095F802A06861182003F00DFA071C13D00421224603F029FC03F05BF83872E4
:201B2C0087F809A02046B872FC603C617C6103F00BFA2D4A394602F009FD4FF0090A183586
:201B4C00052403F0C9FDADF800600A20ADF802004FF0FF370197684602F01EFF0028F0D10E
:201B6C00CDF83090ADF82460ADF826A009A802F013FF0B990C9148B9081C07D0ADF8086041
:201B8C00ADF80AB0039102A802F006FFD8F80C0003F09EFD0028D4D1D8F80C00074603F052
:201BAC0093FD874208BF4F4602D0876803F0DCFA381CEBD00188012908D18178012905D146
:201BCC002A680DF136010A60AF888F800590ADF81060ADF8124004A802F0DEFED6E7C046A4
:201BEC0000060020080200207D5500002DE9F84F994692468B460646FEF76AFA604C0090F1
:201C0C00B4F93210B4F930000AAF401A40F6F8710140082980F29E80B4F9300004F5947559
:201C2C00401C6FF31F3020860820B4F93080EB7F33F07F0304D0401E05F12005F7D1002517
:201C4C0006F1700003F0C0F9C5F808B085F81EA0C5F80490A5F81C804A48EE6097E80C00C0
:201C6C00202100271940104005F1100383E8030004F12000EF770368002B5ED1294602F02F
:201C8C00A7FD00285FD0A6F8B880E87F40F08000E87796F8BA00012804BF86F8BA70A771FD
:201CAC00607A40B1607830B10120A0726772A7712079401C20710098FEF70EFA606A002863
:201CCC005BD16078002834D1E079012855D0FEF7FFF90646207A40BBA86802F0FBFB2B49E6
:201CEC00294AE36809681060B0B1DD681068401BB0FBF1F0012898BF012104D9DB681068FA
:201D0C00C01AB0FBF1F19834204603F009FD204603F002FD30462EE03046FEF7DDF904F113
:201D2C00BC00042103F0D4FA27E0194901200870F0E7192003F058FB1FE004F1200029461A
:201D4C0002F046FD48B9B4F9300000F6FF706FF31F3020866FF001080CE0A6F8B880E87F17
:201D6C0040F08000E87796F8BA00012804BF86F8BA70A7710098FEF7AFF94046BDE8F88F6D
:201D8C0040090020F1EFFF9F481A0020E8590000441A00202DE9FC415E4C574D574EDFF8F2
:201DAC0060815A4F94F8E410481E0B2861D8DFE800F07B2C430623430623430676640429B5
:201DCC0007D001220A2945F8212C14BF0220032004E02021012045F8211C024684F8E200C2
:201DEC00002045F8390C0827C5F8FF7FC5F8F37F45F8392CBDE8FC81052914BF0920062088
:201E0C00002584F8E400356070E094F8E1700120383D002FC5F81B0004BF0620002102D0F6
:201E2C000021F160032084F8E400032045F8010C31603068800859D294F8E4000125032897
:201E4C000DD00021404660220523009102F07EF994F8E400062814BF0A200720D1E70220B2
:201E6C000090002160220523404602F06FF90420C7E703F025FCBDE8FC8122490026224818
:201E8C000E60012505600E2000F002FE022002F0FBFD84F8E45084F8E360BDE8FC81002062
:201EAC0038600C2578601FE01948006800680146202088472C3D41F61D560F2000214FF449
:201ECC00C072072345F8010C4046C5F803600225009502F03BF9404600214FF4C072072382
:201EEC0002F004FA0120386084F8E45004F1780003F012FCBDE8FC8139400C4038600C4044
:201F0C0000A00C402C500C4004800C4034600C40A0010010680B00202DE9F8435C4C04F11F
:201F2C00200003F03DFB15460E460090FEF7D0F805F001078146B6F1FF3F0CD1606A20B925
:201F4C00B4F93200401C06B202E0606AB0F91C60002084F85F00304602F0AAFE0326002855
:201F6C0000F08A80616ADFF81C81814258D0009FB8422ED03FB100990A68904209D0096883
:201F8C0000290091F7D1832E41D04846FEF7A4F83DE004F1980003F017F800980168AA0873
:201FAC0002D20A6802600846002202600091009818B94846FEF790F828E0C17F41F0040118
:201FCC00C177684603F030F90146404602F000FCEDE704F1980002F0F7FFA8083ABF206ABC
:201FEC000068002020624846FEF776F80099C87F40F00400C877684603F016F9014640460A
:20200C0002F0E6FB009808B1A808EFD28326E079012834D004F1BC00022103F059F92EE0C9
:20202C00A90803D3216A009100262662C27F0121B9401143C17703F07FFB0446002F14BFA2
:20204C001148124802F08AFE4846FEF745F8A80801D3009820B9204603F06AFB83260EE03D
:20206C00C17F41F00401C177684603F0DDF80146404602F0ADFBECE74846FEF72DF83046D8
:20208C00BDE8F8836C090020010002040100010440090020F8B5414C201D0368B3F1FF3F45
:2020AC0008BF002302F02EF8002876D13C4E20683468070F04F0FF04802C28BF002402F03F
:2020CC0021F84FF0FF3578B1401E07D0401E012802D9801E13D014E08FB112E0381C5CD081
:2020EC00801E0ED114340BE03846401E55D0801E53D0001F51D0401E03D1163400E00A3488
:20210C0065B2162D49DB27482749002501270560264E0F60264C376020680028FCD1274ACA
:20212C00161D2449244F306820F0030001433868C0080CD2106810F0030F0AD041F00300B3
:20214C003060106800F003000328FAD101E041F001011B483160006820B11A480068184619
:20216C00FEF73EFA184819490560194F0A686FF35B4247EA0200086016490868C0F30130D8
:20218C00012806D10A681448104040F400320A60086020680028FCD1F8BDFEE7181300504B
:2021AC00A0100050840460425C600C40082204430C00684204000020B03F005000400340D4
:2021CC0080012843000120438C210840482003400000390104000940FFFFFCFC2DE9F0413F
:2021EC00444C94F8E700ADF1280D00286FD1394F387B01250021242284F8E7507E6884F8B8
:20220C00E6000823C4F80C6101A803F055FA002604F10C00069601ABADF814602E490796F1
:20222C00324603F045FA2D4904F1300001AB324603F03EFA2A4904F1540001AB324603F02B
:20224C0037FAB868014628468847DFF89C8025487B7B0078D8F80410C1F381571BB1032F61
:20226C0003D184F8E150032F16D0022F14D0012F26D103201D4C009031464FF040521C23DA
:20228C00204601F063FF009531464FF400720923204601F05BFF13E0022002F00DFC032F99
:2022AC000CBF4FF47A7142F21071114800685434B1FBF0F1204603F033FA204603F02CFA89
:2022CC00D8F80000C00802D2304602F0F5FB0AB0BDE8F081A0590000973400000D3100005C
:2022EC0025330000581A0020B03F005000A00C40E8590000680B0020F8B502F07DFF3F4E41
:20230C003D4F0446A00822D3796A01B33D46002068628A69086906F108032040104340F0F1
:20232C00020088610A6918689043186001F1100090E80C0030681A1C9043306005F12C008F
:20234C0002F046FA022105F1BC0002F0C1FF786AA10814D200F110020CCA002122400B40A0
:20236C0008BF002A0BD0016985690C40B8622C434FF48041846107F1BC0002F0A9FF786A3F
:20238C00002837D107F12004204603F009F9051C30D0F868E968884226D1A86802F09AF863
:2023AC0017490860E0B906F1080128690A6810430860326805F1100393E80300081C10435A
:2023CC00306000233361A86846F80C0C06F1100000680028FAD0204602F026FF7D62F8BDD2
:2023EC00086801F04FFAF8BD07F1BC004FF4805102F06EFFF8BDC046400900200C100440C7
:20240C00481A00202DE9F0430646ADF11C0D03F04BF902F0F1FA4FF000090546CDF80C90CA
:20242C0003F072F830F0010002D00398A84202D16FF0040066E070684C4658B1B0F1FF3FED
:20244C0005D004A902F0C0FA30B1804659E04FF0FF3000E02046049003F03EF904994FF014
:20246C000108471802E00A463BE004936868049903F016F900282DD0684601F039FCD8B90B
:20248C009DF8040005A902F0EDF888B9B368BDF814009DF80610029A984748B1BDF8140005
:2024AC009DF80670B081029BB773C846336111E0029903A802F0BAFB0498641CB0F1FF3F92
:2024CC00D4D00028D2D003F007F93B1A02D004989842CAD2039F02F015FE05F1080647B1B3
:2024EC003A4652F80C1C0029BDD1316842F80C1C376002F005FF24B1686803F0CDF8641EC0
:20250C00FAD1404607B0BDE8F083FEE7F8B53B4D0E46A0F202311746082906D8DFE801F038
:20252C00302A5B4C221B6D140DC0282865DA022E63D1398802F07CF8F8BD012E5DD1387827
:20254C0004285ADA093513E0012E56D13878082853DA08350CE0012E4FD1387804284CDA01
:20256C00ED1D05E0012E48D13878042845DCAD1D2870F8BD022E40D138880C352880F8BD65
:20258C00012E3AD1E9783878E87051B9002834D06878012818BF03282FD1012002F05CFEDE
:2025AC00F8BD387848BB6878022826D1144A0020082102F05BF9F8BD05F1430400211F2265
:2025CC00204600F029FF39463246204600F0B4FC6E7100200DE005F1240400211F222046A2
:2025EC0000F01AFF39463246204600F0A5FC2E7101203146224601F0D7FEF8BD0802002094
:20260C0083550000F8B5364C0D46A80846D2E80865D304F1200002F0C3FF00280EBFE0685E
:20262C00C068E06041682F4A09781160416812680978914207D087692FB16FF0FF01002273
:20264C004FF00073B847022002F036FA112000F089FA0120E071E168087C10B160790128D3
:20266C0003D00E2000F07EFAE16849681E488F680FB9CF681FB10021C1611C4F07601C4A44
:20268C0040F2FF711160002787611A4941611A4802F0F2FE192002F0FBFFF8BD04F12C06C2
:2026AC00304602F07DFF00F029F8304602F078FF25F0020504F1200158B9E80803D20846E4
:2026CC0002F06EFF58B104F1980002F07DFC042101E045F0020104F1BC0002F0F9FDF8BD02
:2026EC0040090020D0210840001004405100070600000460020000408D180000F8B5071C5F
:20270C0072D0B86840F6030120264A1C02E04068761EF6B260B15EB10388994218BF9A4266
:20272C00F5D1F9681CC820311CC149C881E849007868BA690025BD61C8B1F87F42F0020225
:20274C00002300F00700401E09D0401E04D0801E08D14FF0805304E04FF0804301E04FF05B
:20276C0000532A467C68F868B7F91C10A047FDF7AFFC1E4C0646B4F93200401C6FF31F3042
:20278C00608604F12C000168CD7702F04DFD3046FDF7A2FCF868B0F9B810B4F93220914292
:2027AC0022D1217801291FD090F8BA60BEB90668AEB1E2680E4912680968B2F1FF3F13D032
:2027CC00B6FBF1F2012A8CBFB6FBF1F10121703002F0A6FFF868703002F09EFFF8BD80F83B
:2027EC00BA50284601F04EF8F8BDC04640090020E8590000F0B5ADF1340DFFF7EFFC3049DB
:20280C0008682822082340F00200086001A8002102F06EFF2B4E2C490524002301AA079484
:20282C0006F1BC0002F060FF00213022082301A802F066FF0025FF271921244AADF81C50E6
:20284C0001AB099706F16000009502F055FF2822082301A8294602F04BFF1D49079406F12D
:20286C00F00001AA2B4602F03FFF01A829463022082302F045FF0124ADF81C40099706F188
:20288C007C001A2101AB134A009502F035FF12492A4606F19800134602F00AFF0F4802F0BA
:2028AC00EBFD86F85F507571F57135727572B5727561B4714FF6FF70A6F85C000DB0F0BDE3
:2028CC000020094040090020AD520000A54E0000A1330000A53D0000314E000011260000BC
:2028EC002DE9F0470D4606465FFA85FA280824BF2E4845402E494FEA8A03C85885EA00022C
:20290C003240C2F300672B4A06EA0504B043224006F4E0240243B4F5E02F01D1500E14D348
:20292C0006F4E020074310D002F4E027B7F5A02707D0B7F5803704BF22F4003242F4A022BA
:20294C0003E022F4803242F4C022DFF86C80CA5008F1D00739680122002002FA0AF40C42CF
:20296C0018BF101C5FEA000906D1F00D04D34146C5F3805001F80A00300E0BD3FDF7A8FB86
:20298C00290E34BF0021211C3A68A24311433960FDF7A2FBB9F1000F06D0F00D04D34046B5
:2029AC00C5F3805100F80A10BDE8F087006000A000100840FF7F077F00200240F8B502F0F7
:2029CC007FFD00F02BFF02F087FD044604F00C000C284FD0E0081ED202F080F9274E3768EB
:2029EC0005460120014602F00EFB31686943884211D2234C8220B0FBF7F0291A204602F0ED
:202A0C008FFE204602F088FE0120FEF751F9204602F0DAFA2FE020092CD21A4802F016FD16
:202A2C000428FAD01849620906D228B10A460846016821F0010104E00A460846016841F0E1
:202A4C0001010160D2F898004FF0805440F00300C2F89800D4F8B801806901462020884749
:202A6C00D4F8B801094C806B2168804701202060206800E030BF02F029FDF8BDE85900002F
:202A8C00740B0020004003408C2108402C2009402DE9F8430446FDF71BFB81462D48021982
:202AAC0092F8ED10491ECFB2002F82F8ED704BD12B4D05EB84052E78698836F07F07884677
:202ACC001AD1F10911D24FF08054D4F8B801806901464046884704F5DC742068406B014642
:202AEC00404688470228F8D121E000EB8800D0F80011002088471AE04FF08054D4F8B801B4
:202B0C00006A014640468847D4F8B801806A014640468847D4F8B801006B0146404688470C
:202B2C0001210D4A0D48116001688908FCD306F03F003F2801D0FFF7ABFF687800F03F0065
:202B4C003F2801D0FFF7A4FF4846FDF7C5FABDE8F883C046680B002028200860282008405E
:202B6C00205800002DE9F0410646FDF7B1FA2D4D8046A91991F8ED00421C002881F8ED201B
:202B8C004AD1294C04EB8604277807F03F003F2801D0FFF7E7FF607800F03F003F2801D0F8
:202BAC00FFF7E0FF668837F07F001AD1F80911D24FF08054D4F8B801406901463046884704
:202BCC0004F5DC742068406B0146304688470128F8D121E005EB8605D5F8001101208847A5
:202BEC001AE04FF08054D4F8B801C069014630468847D4F8B801406A014630468847D4F8FB
:202C0C00B801C06A0146304688470121074A0848116001688908FCD34046FDF75DFABDE8C6
:202C2C00F081C046680B00202058000028200860282008402DE9F041314C0546A0781F463A
:202C4C0016468846ADF1380D012803D0FFF7D2FD0120A070B8F1000F09D0C5F8048036B1B0
:202C6C00AE60FDF735FAE17819B1FDF735FA00203FE0491CC9B2E170FDF72EFA01243FB928
:202C8C001D494CC909A84CC006C909AF80E80600386828607868E860387C2874B8686C745B
:202CAC006861788A6882F86800B1A8610021A02205F1200000F0B0FB684600212422082365
:202CCC0002F026FD8DF8184005F1380000216A4602F01AFD684600212422082302F0ECFCD4
:202CEC000649069505F1700000226B4602F0E0FC28460EB0BDE8F0817859000077550000F8
:202D0C0040090020F8B5304D0C460646A0083CD2A00F51D3294F3868294C20F0020040F41A
:202D2C0000703860032144F8041C41F23003A360012121605022A26021604FF4CA60A06091
:202D4C002160204844F80C1C02F096FBA81C0078012803D006F1380002F09EFC002402205E
:202D6C003C6001F091FE1120FFF792FE307C10B90E20FFF78DFE2846144A047211784472CF
:202D8C00D1B11470BC30042114E005F12C06304602F006FCFFF7B2FC304602F001FC30B998
:202DAC0024F00204A00F07D34FF0005100E0022105F1BC0002F08CFAF8BDC0460000046088
:202DCC000C4104401126000040090020441A00202DE9F0412B482A490860FEF76DFC2D4CCC
:202DEC000025032004F1180141F80C5F401E8D60FAD1241F062004F14C010A46401E22F844
:202E0C000C5BFBD10820204F0880204A8F602049121D22F00303CF1A6762E3612362E66981
:202E2C0004F12008944618460A4601E026F8025BB142FBD8B910E82700EB810121F8045C01
:202E4C004FF6FC761F8006EA0C0300F1E807D21A676106EA0201EC39A0F8E810284600F077
:202E6C00DBF9A061D8F80000606100F06BFC01F07DFA01F011FB02F007FC2846BDE8F081AB
:202E8C003C090020E9410000754F0000591A0020B84100207C0C0020F0B520480127F84210
:202EAC0001D001F0E3F8204D204F214EBD4206D203CD0478A4003459401CA047F6E71D4845
:202ECC00002800D08047164D164FBD4202D210CDA047FAE7F0BD03251BE0416808300A1C10
:202EEC002A400BD11A1C2A40AB4305D0046804300C600431043BF9D1131C05D00478013022
:202F0C000C700131013BF9D1021C2A4001D0A84304300368002BE0D17047C046FFFFFFFF79
:202F2C000000000000000000C05C0000205D00007C5C000059C50110002A4AD05FEA000C4C
:202F4C008B071CD1830722D1102A08D370B4103A78C978C0103AFBD270BC103238D0042AB2
:202F6C002CD3082A05D30C2A24BF08C908C008C908C008C908C092072AD0920F22E00B789F
:202F8C000370491C401C521E22D08B07F7D1C30714D18307D8D0121F12D308C903801B0CC3
:202FAC004380001D121FF8D20AE008C903701B0A43701B0A83701B0AC370001D121FF4D2A0
:202FCC00121D05D00B780370491C401C521EF9D1604670472DE9F8432020EFF3118780F315
:202FEC001188214CA068012102F04AFB4FF001094FF0000865692168A4F81C906A1A216822
:20300C00A4F81E80461B401A904227D387F3118840462D18361A4846294602F02DFBB042AC
:20302C00F7D92021EFF3118781F31188E18B012903D14046294602F01FFBB0F1FF3F06D0CC
:20304C00A169801B814238BF081C291801E0A069411902F00DFBA4F820902560A4F81C8059
:20306C0087F31188BDE8F88378010020B0B50446A768ADF1280D5FBB0C2000F0CDF8071CC9
:20308C001DD0684600212422082302F015FB002306976A466168ADF810301848059302F0ED
:2030AC00E3FA386070B90820ADF824000C25ADF8265009A801F070FC384601F0A1FD6FF0AF
:2030CC00030018E0E06878602069B860A7600AE002F018F80546386801F076FF2069B86043
:2030EC00284602F00DF93868616802F019FB386802F012FB00200AB0B0BDC046915400001E
:20310C002DE99843FCF7E4FF1F4CDFF87880814604F1E000007850B94446A068014602208A
:20312C0088470746102001F035F82FB320E000F0CFFC002820460FD1144909683222B2FB3F
:20314C00F1F101B9012100F13004204602F0E8FA204602F0E1FA0FE044460022A16880F8F7
:20316C00E020022088470746102001F013F81FB1A0680146032088474846FCF7ADFFBDE8F6
:20318C009883C046A0590000680B0020E859000070B51E4DAC68064602F00AF84FF47A7123
:2031AC00001B4843030C01F0C5FD2969401A48BF404240F6B831F618B14210D306280EDA0D
:2031CC00E9688C420BD8286848B1114A091B51438A0C02EB1141884288BF011C08E00D4904
:2031EC00486840080ED208687D2100F0FF004143C82905D3B1F57A6F88BF4FF47A6103E0CA
:20320C00C82101E04FF4FA61084670BD301A002040420F00AC3F0050F8B5001D84B214F085
:20322C00030002D0241A241DA4B201F06BFF1A49102C02464F690A61C8BF8F693888002311
:20324C001E46C10BCD0319D126B984420ADD3B46012617E01988091889B28C42198011DCFC
:20326C001F4608469FB1001B80B20428B4BF3C88385344F400443C803F1D08E080F40040D4
:20328C00002680B23F1838880028DAD10027104602F036F83846F8BD780C0020F8B50E466B
:2032AC00044602F049FA0546304601F001FD071C03D1284602F03CFA28E0F87F10F0070FB1
:2032CC001DD114487968884202D079682166786002214FF0E04204F1580080E8060028462E
:2032EC0002F026FA04F138004FF0FF3102F0D8F904F168070020206697E80300F8BD2846A2
:20330C0002F016FAF87F10F0070FFBD102200021F8BDC046C54000001CB5042001F082FEDD
:20332C00022818D0032816D016480068C0F38150032814BF41F288324FF47A721248144C40
:20334C00016854342046B2FBF1F102F0E9F9204602F0E2F91CBD03200C4C009000214FF030
:20336C0040521C23204600F0F1FE012000214FF4007209230090204600F0E8FE022001F029
:20338C0083FB1CBDB43F0050E859000000A00C40680B0020F8B5FCF79BFE1C4C0746A06DCC
:2033AC0010F4602F27D0A06D400CC6B2700807D2B00803D2F00828BF022602E0012600E0D8
:2033CC000026751D68B200F011FDA36D06F111010120884023EA00013846A165FCF77CFE10
:2033EC0004EB8600C76C4FB1A06C294600224FF00063B84702E03846FCF76EFEA06D20B13E
:20340C0004F1F000002101F063FFF8BD40090020002213460A46194671B510F0030F0BD0EC
:20342C00002A82BF00F8011BB2F1010210F0030FF6D1002A08BF71BD11F0FF0141EA012115
:20344C00042A18D341EA0141082A0FD30E46102A08D30C460D46B2F10F0312F00F0272C0BE
:20346C00103BFCD812F0080F18BF42C012F0040F18BF40F8041B12F0020F18BF20F8021BCD
:20348C0012F0010F18BF017071BD704738B5054601201A4C68712879B0B901F033FE217884
:2034AC00002904BF6FF00704051C15D0491EC9B2217039B901F024FF606801F05DFB0020FA
:2034CC00687118E0054613E001F01CFE05462078FF2805D16FF00604284601F011FF0BE023
:2034EC00401CC0B20128207002D1606801F05BFB284601F005FF0024204638BD580F0020EE
:20350C0070B50646B079F4680628A4F10C042CDA3079062829DA01F0F5FD154DB2799100F5
:20352C000C3501EBC20149194968E1B101F0E8FE30792071B0796071307AA071B179880072
:20354C0000EBC1004019F1684068083001F06EFBB179880000EBC10040194068406802F0CE
:20356C009BF8002070BD01F0CBFE6FF0020070BDB80C002038B519491A4C00204822C1F83B
:20358C00F30F94F8E200C1F8FF2F20B3012817D0022807D003281ED151F8310C00F05EF8FE
:2035AC000B2016E051F8315C2846FDF79DFF40F2FF50A84202D8801CA842F1D2082008E06C
:2035CC0051F8310C00F026FA054800780028E7D0052084F8E400FEF7DDFB38BD39400C4099
:2035EC00AE590000680B00202DE9F04108250424ADF1180DADF800500646ADF802406846F0
:20360C00019401F0C9F900280CBF029F002712498868F7B101223A80BE708046ADF80C50D6
:20362C000C20ADF80E40CE68049003A801F0B4F960B9059951B18F60304602F011F8B8F18A
:20364C00000F06D0404602F027F802E0384601F08BFD06B0BDE8F0810006002038B51A4CC4
:20366C00A0F5C060D4F8B810C4F8D4000029B8BF49420028B8BF4042814220DAB4F8BC00F4
:20368C00124D30214FF47F4208230090284600F05DFDB4F8C00004214FF4F8021223009064
:2036AC00284600F053FDB4F8D00020214FF440620A230090284600F049FD012000E000202C
:2036CC0084F8D80038BDC046680B002000A00C402DE9F8438146EFF31188202080F3118831
:2036EC00174D154C134F012605F11C000660A4F114000660F86A016A14208847D9F8100038
:20370C00810C14BF000C04202060386802682321002090470948066054F8180C20F4C0202D
:20372C0040F4803044F8180C2E6088F31188BDE8F883C04684010010182009408002244372
:20374C0000002443B0B5ADF1400D01F0F9FF044600213C220823684601F07EFF11484168AB
:20376C0006918168006804900F480068002205900E480891694601F06BFF071C0DD001F061
:20378C00C1FC0546384600F0FFFB30B1284601F0B7FD204601F0C8FF01E000F053FB10B0BC
:2037AC00B0BDC046545700007C0C0020E553000030B5401E4FF00004ADF12C0D0AD0401E6A
:2037CC0004D0401E20D1FEF7E5FA1DE000F038FA044619E001A821462422082301F06CFFA7
:2037EC0006940D4DADF8144009490794012201AB05F1780001F05CFF064A23462C2105F15E
:20380C009C00009301F078FF20460BB030BDC046C139000081350000680B0020164880B51B
:20382C0007683FB315498B6803EA5300C00E21D2134A106880081DD2486880081AD21068E1
:20384C00096810F0050F4FEA114101F0F00101F5E0710AD1B9420DD2190F38BF40F001001E
:20386C00D90E38BF40F0040003E0B94202D920F00500106080BDC04628500940AC3F0050AD
:20388C0000000940B0B50746FCF722FC154C0546207918B3401EC0B22071F8B904F1BC003D
:2038AC00082101F015FDCFB1E068703001F08CFBE1680D48CA680068BA1AB2FBF0F2012A2A
:2038CC0098BF012103D9C9687F1AB7FBF0F19834204601F025FF204601F01EFF2846FCF70E
:2038EC00FBFBB0BD40090020E8590000F8B5844640F6FF741CF8013B002210E0481B401E6C
:20390C0010F8015B7F1E01F8015BF9D103E01CF8010B01F8010B521C5B08082AEADA58084C
:20392C00F5D21CF8010B1CF8015B05F00F07FF1CC5F30315122F45EA001508D11CF8016B50
:20394C00300A24BF1CF8010B60F3DF16BF19AC42D4D1F8BDD0B5044601F0A6FE00F014FB53
:20396C00071C08BF6FF002041FD001F0CBFB0146A2880F480023243030F80C6F5EB90280CB
:20398C004760A26882602373786820610024084601F0B6FC09E0964208BF6FF00204F6D0C9
:2039AC005B1C062BE8D300F04DFA2046D0BDC046940C00201648144A144908B5E430007846
:2039CC00801E0A2807D8DFE800F01814100614100614100609C001F073FE11E010688008C3
:2039EC00FCD250688008FCD20AE008688008FCD306E008688008FCD202E010688008FCD3D1
:203A0C00FEF7C8F908BDC04634600C4038600C40680B0020134910B50A684BF2F521484351
:203A2C00040AC2F38140012806D101F083F900F015FD604304EB90540C4901F1E50000786D
:203A4C0030B90948006820F07F402418640802E0002081F8E50006480460210C416001233D
:203A6C00836010BDB43F005010200940680B00203C600C40B0B5044601F046FD30F001004F
:203A8C0008BF6FF004041ED001F00EFE054601F039FB01460D480622403030F80C7F6FB18A
:203AAC00A388BB4208D1406800680022854208BF0122A260002403E0521EEED14FF0FF346C
:203ACC00084601F01DFC2046B0BDC046780C002008B5012001F0A6FA01281DD00F483421D4
:203AEC000122002300F002FC002808BF002014D00B48006801F06EF901F05AFB0A4A9368EB
:203B0C001168D060C01A074BA1EB91014343180C884228BF011C1160012008BD00A00C40EB
:203B2C008000001040420F00301A002098B5154B1B1D18680004070C21D001F0FBF8104944
:203B4C0091F90720824205DD10F1800FB8BF6FF07F00C8718C88BC4210D80A68D3F8D40FCA
:203B6C00801A801C1F2888BF1F203F1B4008C7404FF6FF70E719B84238BF071C8F8098BD61
:203B8C004C1A002030100940084610B500F0005100F0040008431CD0012001F043FA104CE0
:203BAC00012811D00B4801683220B0FBF1F2012A8CBFB0FBF1F101216434204601F0B0FD92
:203BCC00204601F0A9FD10BD034801F055FC0348046010BDE85900003D0A0000001004402A
:203BEC00740900201549096821280ADC212819D00C380FD00D380FD0001F0FD0C01E0FD0EA
:203C0C001AE0253810D0001F10D0401E10D0401E10D011E0086870474868704788687047C0
:203C2C00C8687047086970474869704788697047C8697047086A704700207047F001002060
:203C4C0038B5134D95F8E100002410B91148007860B1FCF73DFA95F8E310002906BF012114
:203C6C0085F8E3100124FCF737FA0CB1002038BD022000F021FF0E20FEF774FF01F0FAF802
:203C8C0001280EBF0120002085F8E20038BDC046680B0020AE59000010B5FCF719FA124CC4
:203CAC00611C097829B10F490C68FCF715FA204610BDFCF711FAFCF713FA0C4A002301F0B7
:203CCC00E3FA626C002314001B184FF07A024FF0905044EB0104C11842EB04021046001C37
:203CEC0010BDC046043004404009002000093D00D0B5044601F0D8FC00F07EFE061C08BFD5
:203D0C006FF004001DD001F0FDF9B168002908BF002709D051F80C2C0023B2600F4641F813
:203D2C000C3CFF2601F8026C01F0EAFAA7603FB117F8080C207117F8070CA0710020D0BD43
:203D4C000220D0BD012838B51ED1012001F06AF901281BD001F044FA0D4D0E4801223223C3
:203D6C0005F1E00100680A70B3FBF0F404B914463035284601F028F92846214601F0D0FC5E
:203D8C00284601F0C9FC01E000F0EEFC002038BD680B0020E859000038B51248104C016843
:203DAC00114D0C40E1430160A10908D34068800905D328464FF40051BC3001F089FA14F4D0
:203DCC00602F0BD0284600F158010A6804F46024F03014430C60002101F07AFA38BDC04663
:203DEC0020000E00081004404009002098B50446FCF76EF98446104890F85F10C90803D313
:203E0C0090F85E10A14213D0B0F85C300B4F012202FA04F11943A0F85C10391D0B6804F11A
:203E2C000C07BA4093430B600F680FB9002101706046FCF751F998BD40090020081004405A
:203E4C0000BF704708B5FFF7FBFFFEE738B50D4C0546A06820B10C48B0F1FF3F00D080471A
:203E6C000A4800688047606810B1014628468847206800B18047064800688047FFF7E2FF54
:203E8C0038BDC046400F0020FFFFFFFF600F0020640F0020DCB5044601F006FC00F0ACFD27
:203EAC00064601F031FB30F0010014BF002E6FF0040017D0606858B1B0F1FF3F05D06946ED
:203ECC0000F082FD30B107460BE04FF0FF3000E0002000907068009901F0E2FB002700B931
:203EEC0001273846DCBDFEE7F8B5044601F0DCFB00F04AF8071C19D001F004F984460D4888
:203F0C000021243030F80C6F6EB94FF6F872028047600025856021717868A060604601F06B
:203F2C00EFF92846F8BD491C0629EBD3FFF78AFFF8BDC046940C0020F8B516460C46FCF7D0
:203F4C00C7F802460F484178832554B1641E02D0641E10D00DE08179012904D0B0F85C10E2
:203F6C0005E0476A0FB9802506E0406A818B318002E0032500E031701046FCF7ADF82846FE
:203F8C00F8BDC046400900202DE9F843804601F0B9F80F4C03250026814654F80C7F5FB9D9
:203FAC003046C4F800800146A6600A4601F04CFB606018B9FFF746FF474501D1264601E0F7
:203FCC006D1EEAD1484601F09BF93046BDE8F883940C0020B0B5054601F066FB044601F0E9
:203FEC0093FA30F0010008BF6FF0040414D001F089F80A4A002132F80C7F4FB153681B681B
:20400C009C4204BF2971002404D0491C0629F2D36FF0040401F074F92046B0BDB80C00208C
:20402C007CB5114D04460E46600807D3B0B20021009001220B46284600F088F8A00807D31E
:20404C00B0B20090002102220123284600F07EF8E00807D3B0B2009000210C22022328468F
:20406C0000F074F87CBDC04600A00C40F8B506460F4D104F7388002417E0A20002EBC4028E
:20408C00921951689068D26852B9AF420BD00A7855F822200346491C08461946904701E083
:2040AC00FEF74AFF7388641CA4B2A342E5DCF8BD7C5C0000885C00002DE998430446276EFE
:2040CC009946904607B1B8470221002001EA080110EA090008BF00290AD104F1580090E89E
:2040EC00060008EA010119EA020008BF002907D004F1680080E8000304F1380001F0CCFA42
:20410C00BDE89883104A1068C0F30F314BF69A10884207D111680B20B0EB117F14BF0020BF
:20412C00042070472430884208BF01200BD04BF64130884208BF032005D0213888420CBF8E
:20414C0002204FF0FF30704718130050B0B500EB4100102B04AF00F5007403D3103B00F593
:20416C000174120C3D889D4045EA024501F0A8F9002700B90127064A394610680028FCD0B3
:20418C0025600120106009B101F0A0F9B0BDC04600800C4070B5104C0646204601F0DCF981
:2041AC000025B0B9204601F0F7F90446A06806420AD0E068226900210346304698470546CD
:2041CC00012D08BF012005D0204601F0E7F9041CECD1284670BDC046680B00200F4A014600
:2041EC005068ADF1080D08B9002050600846801E12D0801E10D0401E07D001208DF801008F
:20420C009DF801000028FBD106E001208DF800009DF800000028FBD102B070470006002064
:20422C002DE9F04101F07CF90D4D2B688046A3B105F194070024012606FA04F018EA000FDD
:20424C0007D057F8240020B1026812B1214690472B68641CE4B29C42EED3BDE8F081C04668
:20426C00581800200C4885460C4885446F4607208743BD460A486F4607600A48002803D002
:20428C007946491D8E460047FEF706FE00F0F0FF01F0D6F9FEE7C046B84100200004000032
:2042AC00C00F002039550000D0B504463C20FEF7B3FF071C14D000213C22082301F0CCF93C
:2042CC00207AB86160893862E068386160683946002201F0BDF90646384600F091FC16B995
:2042EC006FF00300D0BD0020D0BD7047F8B51E4640181446102E02D3103E801C240C054624
:20430C0001F0DEF8002700B9012707483B460768002FFCD02D88012101600BB101F0D6F8D5
:20432C002C403441A0B2F8BD00800C400E4938B5CA68824210D1487801280DD1FBF7C8FE23
:20434C000546084800F00AFD04462846FBF7C4FE04F0FF00012802D06FF07F0038BD4FFA49
:20436C00A4F038BD010003044009002000B500213C220823ADF13C0D684601F06DF908489C
:20438C0000F1D80107914FF44871089103210691044900236A46883001F04EF90FB000BDD3
:2043AC0008020020E50E0000F8B5064614460D46102000F0B9FD071C10D00421072200F017
:2043CC00D5FF00F007FC38727E72BD72FC6000F0BBFD034A394600F0B9F8F8BD0420F8BD42
:2043EC009555000070B50446606810F07F4F18BF6FF0020011D100F085FE084D06462878F4
:20440C0028B1686800F0B8FB606800F0CCFB60686860304600F074FF002070BD580F002088
:20442C003EB50546FFF764FC041C15D1287902A900F018F968B10821ADF80010A8680190F1
:20444C000321ADF80210684600F0A6FA6FF005003EBDBDF80800A88020463EBD0D4938B54F
:20446C00091DD1F8EC3209681B3800FB00F409060A161906091604FB01F543F3072141432C
:20448C00C910604301EBA521424301EBA24000EB234038BDA010005000B500213C220823ED
:2044AC00ADF13C0D684601F0D7F8084800F1A80107914FF42571089101210691044900237E
:2044CC006A46583001F0B8F80FB000BD000600204D1A000010B50446207B00F00F0002281B
:2044EC0011D1FFF7D9FBA168084C081A04F10C010968C968800801F57A71814203D26FF081
:20450C005041814200D2002010BDC0464009002038B50446FBF7DCFD05460B48401C007899
:20452C0068B1204600F01AFC04462846FBF7D4FD04F0FF04012C0CBF8120022038BD28465A
:20454C00FBF7CAFD012038BD400900201CB51446CA78012A02D18A880A4B1A8000F092FB2E
:20456C0030B9002000906946204600F045F818B100F0ACFD044603E00098447800F000FE83
:20458C0020461CBD4C0F002010B504460B4802680023D90750080143D007801A99414FF45C
:2045AC007A720023FCF7A6FE002908BFB0F1004F28BF6FF000406060002010BDE8590000F5
:2045CC002DE9B0430F46044600F0EEFF04F1280292E800034B464246FCF78CFE05460B467C
:2045EC002A464046494600F04FFE17B1303484E803002846BDE8B0833EB5054608200C4654
:20460C00ADF800002020ADF802001020ADF80400684600F0C1F928B90298002818BF6FF0F8
:20462C00040003D12846214600F06EFB3EBD704770B506460D460C2000F076FC041C0CD068
:20464C000421302200F092FE2681658100F07CFC034A2146FFF77AFF70BD042070BDC046BB
:20466C008F550000062880B50CDA0A4F820002EBC00207F10C00875A13181FB14FF6F870EA
:20468C00B84202D14FF0FF3080BD18880880002080BDC046B80C002010B5044600212C22A9
:2046AC000823ADF1300D684600F034FFE0200890A168606800236A4600F0BAFF002818BF33
:2046CC00002001D1FFF7BEFB0CB010BD10B5044600212C220823ADF1300D684600F01AFF69
:2046EC00E068A1680890606800236A4600F0A0FF002818BF002001D1FFF7A4FB0CB010BD8C
:20470C0010B5044600F0FEFC094B0022014633F80C0F30B1A04208BFD4B203D0521C062A10
:20472C00F5D3FF24084600F0EBFD204610BDC046B80C0020B0B50D460949441800F0C0FE2B
:20474C00002700B90127074A394610680028FCD025600120106009B100F0B8FEB0BDC04620
:20476C0000A00C4000800C4008B503200021FFF757FC012000F056FC18B10648006800F059
:20478C0029FB00F015FD044B083B586000F0D2FA186108BD80000010381A002038B5FBF7C2
:2047AC0097FC05460948E030007838B106480024342101222346FFF799FD00B1012428462A
:2047CC00FBF78AFC204638BD00A00C40680B0020F8B5064637680D4600242C601FB9FBF716
:2047EC0077FC374608E0FBF773FC00E03F6839680029FBD1BD4201D03D600124FBF76CFC6B
:20480C002046F8BDF0B5044605AFADF10C0D03B9084B97E860008DE86000FDF7E7F9011C63
:20482C0044BF00204FF0004102D42046FEF736FD03B0F0BDC540000000B5002124220823B9
:20484C00ADF1240D684600F037FF01200022054906906B4605920448ADF8102000F028FF02
:20486C0009B000BD655200006C020020F8B5044616460D46102000F057FB071C0ED02A46E8
:20488C00042100F073FD00F0A5F93872FC6000F05BFB39463246FFF759FEF8BD0420F8BDDB
:2048AC00094910B500200A4C08600120C86114342060216844F8280C04480068016A142099
:2048CC008847206810BDC04600002443B0010010182009401078802811D1508840F27F61FD
:2048EC0081420CD190883F21B1EBA02F07D1C0F3C211042903D100F07F00834201D00020A5
:20490C0070470120704770B5044604F128020CCA0846002100F0B8FC04F1300292E8600084
:20492C002D1846EB0106290C3004014300F00CF9383484E8600070BD10B5401E14460DD08D
:20494C00401E09D0801E05D0001F01D0FFF77AFA052004E0002002E0042000E0022022688C
:20496C0021469047002010BD10B50446A168606808601420FEF750FC38B10549A368054AB2
:20498C00096800F013FA002010BD6FF0030010BDE45900004549000010B504462088FFF709
:2049AC00AFFEFF2808BF4FF0FF300AD0054B810001EBC000195811B12046884710BD6FF0F7
:2049CC00010010BDCC0C00200A4A10B512680C464FF47A710023A1FB0001FCF78BFC00298F
:2049EC0008BFB0F1004F2EBF6FF002002060002010BDC046E859000038B5054600F082FB4D
:204A0C00084C03220146243C54F80C0F18B1A84202D0521EF8D10024084600F071FC204610
:204A2C0038BDC046B80C00200949020480B5120C41F8082CC0F3074041F8040C01200860A7
:204A4C0004480768002FFCD00020086080BDC04644600C4084088C4310B50A4C2368C1F324
:204A6C000F2102F00F02C0F38710090440EA022023F4806323601B041B0C0B43236001437C
:204A8C00616010BD1480024010B50446FBF720FB084BE21892F8E810491EC9B282F8E81067
:204AAC0021B99A680121A1408A439A60FBF714FB10BDC046680B002038B50446FBF708FBB1
:204ACC00084A02F108031D680121A14012192943196092F8E810491C82F8E810FBF7FCFAA1
:204AEC0038BDC046680B002010B500F025FE00F027FE032000F098FD06481030006830B1B0
:204B0C00034C204600F02CFC204600F026FC10BD65530000A401002008B500F00DFD01281A
:204B2C0001D0FFF7E0F9074800F07AFD00F0C6F900F072FD00F06CFD00F066FD00F060FD0C
:204B4C0008BDC046F54A000010B50C4600F030FB211AB1F1004F08D8011B091DC90F05D111
:204B6C00001DA04288BF041C00E0041D0148046010BDC0461820094038B5044601250DE077
:204B8C00C0F11F0005FA00F1052881EA040403DB401FFDF77DFF01E0FFF776FFB4FA84F08E
:204BAC002028EDD138BD38B5044601250DE0C0F11F0005FA00F1052881EA040403DB401F07
:204BCC00FDF7D0FF01E0FFF777FFB4FA84F02028EDD138BD0EB55020ADF800000020ADF8FF
:204BEC000200064800788DF806006846FFF7D4FE002814BFFF209DF807000EBD0802002035
:204C0C0010B5044600F07EFA074934F8042C6FF3DF3224F8042C4A690861241F944238BF7A
:204C2C004C6100F06DFB10BD780C002038B50C46054600F067FA002144F80C1C296811B937
:204C4C002C6006E0114651F80C2C002AFAD141F80C4C00F055FB38BD10B5044660680C3030
:204C6C0080B2FEF7D9FA50B1A18800230181FF22036000F10C0182721846A16010BD6FF05E
:204C8C00030010BD00B5ADF1140D8DF8040003910822ADF80020ADF802201020ADF8060016
:204CAC0002208DF808006846FFF776FE05B000BD094902460823F431C87F30F07F0005D00A
:204CCC00B1F91C00824208BF081C04D05B1E01F12001F1D1002070477409002038B5202090
:204CEC00EFF3118580F31188064CA068002100F0C7FC6169081AA169814238BF002085F3AE
:204D0C00118838BD7801002010B50C46ADF1180D02900821ADF8001019216846ADF8021077
:204D2C004FF0FF310191FFF737FE0499216006B010BDFEE70748816841F31002064991F95E
:204D4C0000100068A0F5407041430811121A803210127047285009400C130050084910B5F0
:204D6C000246A1F11C0318680028FCD100240C601A60D8690028FCD00C60586810BDC0467B
:204D8C001C10044038B5FBF7A3F9074C054694F8E000012804D1FEF79BFE002084F8E0000A
:204DAC002846FBF799F938BD680B002010B5044610460A46211C14BF0028022006D0C86060
:204DCC008A6003480B6100F041F8002010BDC046680B002070B5054600F072FB002400B9CD
:204DEC000124054E30680028FCD0A847012030600CB100F06BFB70BD00800C4008B5FBF748
:204E0C0067F9064A117880B229B90549096800230B7001231370FBF75FF908BDD20F002025
:204E2C00B059000010B5084C06492069814202D1FBF756F9606104F1BC00042100F048FACC
:204E4C0010BDC046112600004009002038B50D460446FBF70FFB00212A4623461160596821
:204E6C005160596801B921460A605A60FBF734F938BDFEE706490868002818BF012005D1C1
:204E8C00044B4020012218600020CA617047C04604800C402C500C4008B500F0ADF900F0D9
:204EAC00804100F00200084305D003484FF00051BC3000F00DFA08BD40090020074808B51B
:204ECC001030006828B1034800F04AFA024800F044FA08BD954F0000C5520000A4010020C9
:204EEC00074810B51030006830B1044C204600F037FA204600F031FA10BDC046F7420000A5
:204F0C00A4010020074908B5283090E80C000020FCF7F0F9002908BFB0F1FF3F88BF4FF086
:204F2C00FF3008BD907E00000EB501900821ADF8001068460221ADF80210FFF72DFD002861
:204F4C0014BF002002980EBD0EB50820ADF800001A20ADF802006846FFF71EFD002814BFC2
:204F6C00FF209DF804000EBD08B542882D2A28BF6FF0010004D203490C3151F822108847D4
:204F8C0008BDC0466057000010B5064C206900F033FB0146A06800B9E160A068401CA06018
:204FAC0010BDC046A4010020054808B54168054801220838026048698969884708BDC0464B
:204FCC00E40100200C200940002181820449C0684969814203D10348006800F09DBB7047B7
:204FEC0078010020EC59000010B50446E088FFF787FBFF2808BF4FF0FF3003D0A071204632
:20500C00FEF77EFA10BD02294FF0000204D0012808BF4FF47A7203E0012808BF40F2EE22D6
:20502C0010467047042807BF4FF0C0421D234FF080521C2301483421FFF758B900A00C4003
:20504C00002948BF0021044A02EB8000026861F3050202607047C046001008400348016848
:20506C0003480160034800F033B9C046E0200240E0200260B8180020054A0C3212688242EC
:20508C0018BF032002D10846FFF742BA7047C04640090020054A0C321268824218BF03200C
:2050AC0002D10846FFF734BA7047C0464009002010B5FBF70DF884B200F016F82046FBF771
:2050CC000BF8014810BDC046B059000050B110F1040F08BF042006D010F1030F0CBF0220C6
:2050EC00012070470020704705490A68107828B90120107048680068FDF734BD7047C04671
:20510C00B059000010B500F01BFB80B260F30F04FAF7DEFF80B260F31F44204610BD1CB55D
:20512C00044660686946FFF74FFC20B9009860602046FDF79BFF1CBD08B5406810F07F4F30
:20514C0018BF6FF0020002D1FFF716FD002008BD08B5406810F07F4F18BF6FF0020002D10C
:20516C00FFF721FD002008BD0EB501900821ADF8001068460521ADF80210FFF70DFC0EBDA3
:20518C000EB501900821ADF8001068460321ADF80210FFF701FC0EBD10B50446A088FEF75E
:2051AC003BF80028A06014BF00206FF0030010BD04480168436802688A42FAD1080440EACF
:2051CC001340704708200940044884380068C0F302400428C8BF4FF0FF3070471813005090
:2051EC0008B503200121FEF71BFFFFF7E1FF0149086008BD381A0020044908310868C343D7
:20520C000B600A681042FBD17047C04608100440044908B591F8E60018B1D1F80C0100B1A5
:20522C00804708BD680B002038B50546FAF750FF2C680CB121682960FAF74EFF204638BDCF
:20524C00012814BF002140F2FF71024A002011607047C04600000460044B03F10A0211889D
:20526C0008431080186900F017BAC046080200200449B1F1FF3F07BF0020011C0868091D0F
:20528C00FDF7A6BDFFFFFFFF30B502FB01F403FB00444FF00005E2FB00542146284630BD5F
:2052AC0038B5044CE56800F03BF9226901462846904738BD4009002004498868401E88603C
:2052CC0003D10869C96800F093B97047A40100202022EFF3118382F31188426A114341622B
:2052EC0083F3118800F080B9034804490068814201D0FFF71EBD704798CA011070472820DC
:20530C0008B50090BDF80200FAF7E6FEBDF8000000F00AFA08BD08B5406820B10068FFF7A6
:20532C0053FE002008BD6FF0020008BDADF1080D01208DF800009DF800000028FBD102B071
:20534C00704710B50446FFF7CBFD032000F06CF9204600F075F910BD704703490860704792
:20536C000149091F08607047640F0020812342EAC112037042F47C4282800023C3707047E4
:20538C0008B500F02DF90248006800F02DF908BD8401002008B50846FFF78AFC002814BF7A
:2053AC008068002008BD00B50921ADF1240D684600F012F909B000BD10B504466068FDF77C
:2053CC00E7FEA060002010BD02490968416000207047C046E85900000246024808B590474E
:2053EC0008BDC04660570000102802D3014910380860704700EF00E010B5044600F078F823
:20540C006060002010BD10B50446FFF7C7F92071002010BD08B500F093F9FAF759FE0020EF
:20542C0008BD08B500F0D4F800F0CEF8002008BD08B540680C38FFF7E3FB002008BD10B560
:20544C00044600F049F96060002010BD006801092CBF042000F003007047D0F80320C31D21
:20546C0008461946FDF768BD08B500F09DF8000C0904084308BD704701491031086070478E
:20548C004009002008B5014688684968884708BD08B5406800F094F8002008BD08B5406833
:2054AC0000F08AF8002008BD08B54068FFF7A8FB002008BD08B5406800F0EEF8002008BD86
:2054CC00EFF3108072B6704700207047EFF3108062B67047002070470148083000687047E0
:2054EC00680B00200149ED31085C7047680B00200148DC3000687047680B0020D0F8032005
:20550C0008460021FDF788BF0148007D7047C046A401002001B9014900F04AB8A0010000F6
:20552C00014880687047C046C801002008B5FCF7B1FDFFF7D9FE08BD0148C0887047C0464A
:20554C00F001002008B5FFF71DFC002008BD01460879891DFFF786B80168002001B9012077
:20556C00704742F00202FCF7D7BC0020FEF78AB90023FFF7AFB90823FFF7ACB90623FFF72E
:20558C00A9B93023FFF7A6B90723FFF7A3B9816042607047FEF756BC0068704700687047FA
:2055AC000068704700207047FAF79ABD808A7047DFF800F0F1C50110DFF800F085C2011033
:2055CC00DFF800F081C20110DFF800F043C20110DFF800F055C10110DFF800F00DC3011031
:2055EC00DFF800F067BE0110DFF800F021B30110DFF800F04DC20110DFF800F049C201102C
:20560C00DFF800F009C30110DFF800F03DC20110DFF800F08DC20110DFF800F095B70110B8
:20562C00DFF800F081C60110DFF800F045C00110DFF800F079AB0110DFF800F025B10110B8
:20564C00DFF800F0D1C70110DFF800F0ADB50110DFF800F019AE0110DFF800F0D9C1011083
:20566C00DFF800F02DBF0110DFF800F0EDB30110DFF800F0BDBE0110DFF800F00DA8011002
:20568C00DFF800F095C00110DFF800F055C00110DFF800F0DDB20110DFF800F041AC0110B8
:2056AC00DFF800F0CDA00110DFF800F0E5C10110DFF800F079B50110DFF800F085C10110F7
:2056CC00DFF800F099C80110DFF800F011BF0110DFF800F013C10110DFF800F0D9B60110CA
:2056EC00DFF800F0F5B80110DFF800F085B00110DFF800F0CDC10110DFF800F029AF0110F6
:20570C00DFF800F03DC10110DFF800F009B70110DFF800F0C1C10110DFF800F0E3BF01103B
:20572C00DFF800F0C1C20110DFF800F049BA0110DFF800F0E1B50110DFF800F0D5C001104C
:08574C00DFF800F0F5C00110C8
:205754000180010005000000B6030000A5490000115100000D53000061390000F53E000078
:20577400654C00003D540000A5510000B55400000D350000FD3C0000F54F00002D440000A4
:20579400A13E0000C1540000A1550000A95400009D5400002F54000021540000A54600003A
:2057B4004B5400002B510000D5530000954500005B55000099340000754900001124000048
:2057D400E13F00007930000023530000F14300005D51000045510000813A000013540000DC
:2057F40005540000B5420000000000000000000051550000C5530000D94600000000000068
:205814000000000000000000000000008F3F00008F3F01008F3F02008F3F0300903F000166
:205834008F3F0101903F0002903F00038F3F01048F3F00058F1208048F3F00048F3F0006E8
:20585400513F00007F3F01003F3F04003F3F02003F3F01007F3F0200412C000039530000AB
:20587400F91B00003953000011480000251F00006F5500003953000039530000A15000000A
:205894008550000039530000395300003953000039530000A53C000039430000453F00000E
:2058B400A15300007B756E6B6E6F776E2D696E7374616E63652D6E616D657D007B656D70CB
:2058D40074792D696E7374616E63652D6E616D657D00C0467B7374617469632D696E737406
:2058F400616E63652D6E616D657D00C00B08C0800C2007C0FF2007C0FF2007C0FF00C080A1
:20591400FF400080FF00C080FF400080FF400080FF400080FE000000EBC70CEEC90CF1CBFD
:205934000CF44B14F74E19FA521DFD582500613101144202184E031C5A0424930530930066
:205954007FC80110C9BC011051B2011037C20110BDAD0110C1B1011071BA011069BB0110B8
:2059740021C00110FFFFFFFFC4090000000000001725000001001A010100000000000000FF
:2059940000000000000001000000000000000000C9290000BD37000001010100541A00207B
:2059B400E05900000000000000000000094E0000BD5000003D00000045B5011099A601109E
:2059D40019B801102C5900000D070000080000000F0000000A000000F00E00201D5200008A
:2059F800009F0000000103004000213039750084006C020104018F04015FB907FBF5353F9E
:205A1800BB150953696DFF706C65424C454272FF6F61646361737465F772020A40C11AFFD3
:205A38000D007B021542BE010001C5427FD3058B010570EFF405015F850085A3EF014DFF1D
:205A5800520000513D0000B1FD55A643A5490000C00EFF0020115100000D53FEA56F740738
:205A7800100000384035FF002D400140028460FB005D007000F80118A3FF84070083057EB2
:205A9800A403FF06E0EA2306010003EF04010235023008047FFF1763040038886045FF0082
:205AB800C3003801AC5260FF03A302AD01630268FF01438AFF004302287B04FF0000640D2A
:205AD800002000317C12B9B496020000581601B3C70BC201081015BF04013F06C5A7FABBBC
:205AF800438D14360100100F0091200175027D02F54007701BFB0123000C18F0003101BFC1
:205B180002281AB0003155300034380034400034480034D5500034580034600034E12F406A
:205B3800C537536110C2C66802F1C7E1902130AA0031980034A00034A80034B0FA0034B834
:205B5800003401051B080C7E15F0D85900006C58CB777DC000F03C09002003CD40D5501033
:205B7800F05411302C2A809C0163002000312B312AE93B46CF3BEFB54F0000D0F1FF0014A0
:205B98002AD152CC2E4008D240D815B0D26133800600F33039FFFFD37B02209300652DB024
:205BB8000031681930003170AA003478003480003488003490AA0034980034A00034A8009A
:205BD80034B0020034B80034DA992634FFF0007D000000D00F0020C4003059C8007000F1F9
:205BF800B8410070040191FF00200101000068190001730035FFF000F30100000700B99010
:205C18000E0020EC01A80252CC0F0133340100052000313C0034FFF0009D0000016CDC0274
:205C3800007200C014EF0E00200300C4254B001F004F530000FFF000FD000004B00D002024
:205C5800600E47002001010000310029F00170000031FFF0007B0100000F00300E00200190
:205C78006100FFF0F93800006754000009550000003D000000B00D0020FFF0000000000069
:205C980002000000810A0000000F08000000FFF00001000000FFF00001000004FFF0000174
:205CB800000004FFF0000000F859000008020020E65B0000440100200F5C0000000100202C
:205CD800305C0000A40100204F5C0000780100206C5C0000C8010020885C0000E40100207D
:205CF800985C0000D80F0020A05C000000020020A85C0000EC010020AF5C0000F001002046
:085D1800B65C0000F801002058
:020000040001F9
:20FFA80000008001100082FFFDFF58003AFFBFF3FFFFFFFFFFFFFFFFFFFFFFFFFFFFFFFFF8
:20FFC800FFFFFFFFFFFFFFFFFFFFFFFFFFFFFFFFFFFFFF00FFFFFFFF00FFFFFFC500C5FFAA
:18FFE800000000FF00000000FFFFFFFFFFFFFFFFFFFFFFFFFFFFFFFF12
:00000001FF
