:20000000B8410020AD45000001CA011001CA011001CA011001CA011001CA011001CA0110AD
:1C00200001CA011001CA011001CA011001CA011001CA011001CA01103FCA011082
:20003C002DE9F04114460F4600F04AF81FFA80F81F480068007808B905F07AFAE7B1386842
:20005C004FF0FF3518B140280AD3810B08D17E681EB1310A04D0310E02D1B9680F2908D98E
:20007C003DB10CB128462070082002F023FE002418E07968BA6803E04FF4807001220146E1
:20009C0004F0A8FE0B49012008600B4908684008FCD30A4800684168022088470CB10021C0
:2000BC0021700446404600F00FF82046BDE8F081585E0000A802504208800240CC010010B7
:2000DC00DFF800F049C10110DFF800F019C20110034808B5416809B10078884708BDC046F2
:0400FC00200E0020B2
:200100003C000000000000000000000034010000000000000000000001000000000000006D
:1C01200000000000000000000000000001000000000000000800000000000000BA
:20013C00340000000000000000000000680100000000000000000000010000000000000005
:14015C00010000000000000000000000080000000000000086
:2001700030000000000000000000000098010000040000000000000001000000FFFFFFFFA5
:10019000FF00000001000000080000000000000057
:2001A0002C0000000000000000000000C4010000040000000000000001000000FFFFFFFF4D
:0C01C000FFFFFFFF08000000000000002F
:2001CC0034050000E401000099A1011095A70110A5C2011009B2011045B80110000000000B
:0801EC00000000002F000000DC
:2001F400280000000000000000000000140200000000000000000000FFFFFFFF00000000B1
:080214000800000000000000DA
:20021C00300500003002000069C201106DC101101FC2011095BA011000000000000000008E
:04023C002D00000091
:20024000300500005402000075C20110A9B601109DBF011049B601100000000000000000DE
:040260002E0000006C
:200264002400000000000000000000008002000000000000000000000000000008000000CC
:040284000000000076
:20028800240000000000000000000000A40200000000000000000000000000000800000084
:0402A8000000000052
:2002AC00240000000000000000000000C8020000000000000100000000000000080000003B
:0402CC00000000002E
:2002D00000000000D40F002004000000000000000000000020000000700100003000000046
:2002F0001C020000DC0F00200400000000000000000000000C000000300400001800000069
:2003100040020000E40F0020040000000000000000000000240000004804000018000000EC
:2003300000000000EC0F002004000000000000000000000010000000A00100002C000000B1
:20035000CC010000F40F0020040000000000000000000000200000006402000024000000EF
:20037000FFFFFFFFFC0F00200400000000000000000000002800000088020000240000006C
:20039000FFFFFFFF04100020040000000000000000000000580000003C0100003400000050
:2003B000FFFFFFFF0C10002004000000000000000000000010000000600400001800000065
:2003D000FFFFFFFF141000200400000000000000000000001C000000AC02000024000000DB
:2003F000FFFFFFFF1C10002004000000000000000000000038000000F4010000280000004C
:20041000FFFFFFFF2410002004000000000000000000000054000000000100003C000000E7
:1804300018000000000000000000000040040000080000000000000050
:1804480018000000000000000000000058040000080000000000000020
:18046000180000000000000000000000700400000800000000000000F0
:0804780001000000985E000085
:04048000FFF72CBE98
:040484000100000073
:0404880000000E0062
:04048C0000000F005D
:040490003200000036
:040494000100000063
:040498007C0F0020B5
:04049C00000200005A
:0404A0000000000058
:0404A40001CA011078
:0404A8000000000050
:0404AC00000000004C
:0404B0000800000040
:0404B4000000230021
:0404B800640E0020AE
:0404BC00010000003B
:0404C000940F002075
:0404C400080000002C
:0404C8000000000030
:0404CC00000000002C
:0404D0000000000028
:0404D4000000000024
:0404D8000000000020
:0404DC00010000001B
:0404E000CC0E00201E
:0404E400060000000E
:0404E800010000000F
:0404EC008C0D002053
:0404F0000000000008
:0404F4000000000004
:0404F80000020000FE
:0404FC0000000000FC
:02050000704742
:020502002900CE
:020504000100F4
:020506002500CE
:020508002D00C4
:02050A002E00C1
:02050C002F00BE
:02050E000100EA
:0105100001E9
:0805140003000000745E00000A
:08051C000000000000000000D7
:0405240000000100D2
:0405280000000300CC
:04052C0087C401106F
:04053000380500008A
:040534003805000086
:0405380000000000BF
:04053C00900000002B
:040540009000000027
:0405440000000000B3
:04054800940F0020EC
:04054C003358000020
:040550002000000087
:04055400345E000011
:04055800FC5D000046
:04055C000DC30110BA
:040560002F4A00001E
:04056400CB50000078
:0405680099C801101D
:04056C009BC8011017
:040570000000000087
:04057400FB5D00002B
:04057800785D0000AA
:04057C00905D00008E
:04058000605D0000BA
:0205840008006D
:0205860009006A
:02058800010070
:02058A0000006F
:01058C00016D
:040590000000000067
:040594000000000063
:04059800000000005F
:04059C00000000005B
:0405A0005B5A0000A2
:0405A400C149000049
:0405A80009530000F3
:0405AC00394C0000C6
:0405B0009F4C00005C
:0405B400E14E000014
:0405B80035390000D1
:0405BC0005590000DD
:0405C000493E0000B0
:0405C40011C8011049
:0405C80021C8011035
:0405CC000800000023
:0405D0002400000003
:0405D400180000000B
:0405D80028000000F7
:0405DC0020000000FB
:0405E0003C000000DB
:0405E4000C00000007
:0405E80034000000DB
:2005EC002DE9F84F8046DD480122A0F130010A60D7490F68002FFCD0D74CD64AC02704F1A7
:20060C00040B1760DBF80010890804D22168090C41F0F00100E07221E34AE44D4FF0000A24
:20062C0082F85412A5F1D407C0F800A0A66838683146C0F304601628A8BF203800EB217050
:20064C00401C162805DA10F10A0FB8BF6FF0090000E01520E64AE74F00F01F0040F4F85016
:20066C001080386880083ABFE348C0F800A041F04061E24AA946C80E8F0EA9F13C0580F08F
:20068C00010000F00100106087F0010000F0010090602868C0F38367C0F38F21B00C22D253
:2006AC0046F3072000280BD542425046490805D17F0806BF0127391C4FF6FF71521EF5D1D1
:2006CC00002810DD4FF6FF72490041F001018A4207D27F0047F001070F2F92BF01210F277D
:2006EC00111C401EF0D141EA0741182004F01CFA28682F68C34DC0F3870140F2FF3253467F
:20070C0007F0030041EA002188B22C210090A5F1400003F095FE4D46A5F110073868C0F381
:20072C000D011C2004F000FAB54957F8080C014000F07C400143142004F0F6F957F80C1C55
:20074C0001F47C000904090C0143102004F0ECF957F8042CDBF80010C2F30350C2F3034348
:20076C00490812D221680C0510EB247003D41028A8BF0F2000E05046090413EB217303D47E
:20078C00102BA8BF0F2300E0534643EA001302F47F4002F0FF01B8F1220F40EA034041EAA7
:2007AC00000124BF02F0804211430C2004F0BCF9B8F1220F32BF01202868C0F30070914CF0
:2007CC00B8F1220F4FEA400040F0200084F8090126BF2868C0F3407001208B4FB8F1200F39
:2007EC0040F0100084F8090138BF514606D33968C80C00F44070C1F384510143282004F09E
:20080C0093F9B8F1200F26BF3868C0F301505046B8F1220F4FEA400040F0600084F80C01DD
:20082C0026BF2868C0F3C0605046B8F1220F4FEAC00040F0800084F8010126BF2868C0F3A5
:20084C0045505046B8F1200F4FEA800040F47C40A4F89C0138BF6D490AD3386801038A15DA
:20086C00920501F47C1100F00F00114341EA0031082004F059F94F464FF480002060A7F1C6
:20088C00D000816D40F20F226FF31F418A4213D901680068C1F30363C0F3034003B15B1EA3
:2008AC00072805D006280EBF0720801C00F00F003D4943EA00100870C6F381435B1E02D068
:2008CC005B1E27D022E03968880C1FD24FF4804020604F48D0F802204B0A03F0800322F093
:2008EC008F021343C1F303321A43C0F80220D0F801300A0A62F30303C0F80130026801F039
:20090C00E70322F0E70243EA020102E04FF0004120460160DBF80000C0F3C0030BB9402020
:20092C00A0624FF4007020642868C0F3C14040F0300084F8C800C6F381503A4E4FF04008F1
:20094C00B0B3401E0CD0401E29D0022128E0C0469402224300600C40AC3F005040100940EB
:20096C00012004F08BFD05460420294603F0ACFC042004F083FD8542FAD12648056825F03B
:20098C007F4004F017FA304614300068036807214FF06022280E98474FF480602060032135
:2009AC00042003F091FC0AE0026008408C1300500420012103F088FC174804F0FBF9203FA1
:2009CC0038681649164B47F6180500F03F0084F8CB0F32460D8018681068C16802208847B5
:2009EC001248114FC0F8008001213960BDE8F88F6E6208400000094094042A430000204349
:200A0C00FCFCFC0040A00C409813005000803F400A600840A83F0050BD37860070B00C40E1
:200A2C002C200940A00100109404604200600C402DE9F04F0120ADF1540DADF82200082713
:200A4C00ADF8207008A804F06DF9DD4C9DF8240020700A9804F128050021A060284605F091
:200A6C00C3F84FF00008E560E14DC4F8048005F1140005F10C0102F0C7FBDE49A86004F0D1
:200A8C00C4FFDD4A4FF4E02104F0C2FADB4AA8684FF0C05104F0BCFAD949C146C8224346A1
:200AAC0005F12000CDF8009003F034FCD5488DF846900121ADF83C900DF146026860032060
:200ACC008DF8470040F2023001F036FE40F2033002210FAA01F030FE04F1400540F20530B4
:200AEC0019212A4601F028FE04F118024FF44170394601F021FE40F2063001210DF14702C6
:200B0C0001F01AFE06204FF4965103F08BFF07204FF4965103F086FF38464FF4965103F08F
:200B2C0081FF09204FF4965103F07CFFB64B4FF601400C21424603F0D9FDDFF8D0A29AF888
:200B4C000100283D28BB04F114009AF80060CAF814009AF802B01396182004F0F1FB061C48
:200B6C0017D00421424604F041FE139804F047FB307286F809B04046B072C6F80C80C6F838
:200B8C001080C6F8148004F0EBFBA14A314603F09FFE04F1340004F1200102F035FB0B210E
:200BAC004246206103F0CEFEC34604F15C0041F2883201239749CDF800B003F0ABFB207870
:200BCC0004F01DFB944BC1B280224FF6174003F08DFD4FF00A0805F003F8ADF80870ADF8ED
:200BEC000A804FF0FF30039002A804F09BF80028F1D158460E90ADF82C700926ADF82E6064
:200C0C000BA804F08FF8DDF834900028CDF8389040F08580BDF83000102874D120789DF888
:200C2C00321088426FD1494608884FF6FF72824269D14888000A66D37848006864260109BA
:200C4C0001F0300A00F0FF007043020AB2FBF8F1584601FB08F1511A052988BF01206378AA
:200C6C004146B2FBF1F1002B0844C6B23BD080205B1EA8710B215A462069637003F062FEAB
:200C8C006748322103F07AFE637873BB8DF848B040F20230012112AA01F04EFD06204FF46E
:200CAC00965103F0BFFE07204FF4965103F0BAFE38464FF4965103F0B5FE09204FF49651F4
:200CCC0003F0B0FE0120012112AA8DF8480040F2023001F031FD5846A87120690B21012289
:200CEC0003F030FE01E05846A871A87906434AEA0600A871E87939462A46401CE8714FF42A
:200D0C00417001F019FD0E9848B1ADF810700320ADF81200CDF8149004A804F003F8E06825
:200D2C0004F05AFF00287FF456AFE068064604F04FFF864208BF5E4602D0866804F040FCC1
:200D4C005FEA0609EBD030460688761E3AD0761E42D18678002E3FD08DF849B040F202300E
:200D6C0001210DF1490201F0E7FC20690B215A4603F0E8FD2A48322103F000FE06204FF4DC
:200D8C00C86103F04FFE07204FF4C86103F04AFE38464FF4C86103F045FE09204FF4C8615B
:200DAC0003F040FE01213C200E4660700DF149028DF8496040F2023001F0BEFC0CE0C046DC
:200DCC00000600208078012806D116490A680DF13E00026089888180ADF818700520ADF871
:200DEC001A00CDF81C9006A803F09CFF97E7C046200E00202D5300000C0005800C00001021
:200E0C00ED000000315200000F5A000008020020235A000075580000075A00002850094057
:200E2C005C060020200200202DE9FE43974C0F460546F80B80F00081B80880F0ED80B80FB0
:200E4C006ED2A07A00284FD138094FD30025012665708F48267204F057FD8E492A4604F16D
:200E6C00600004F0E7FD6079012821D1A079F8B9DFF82482E669D4F81490D8F8000078B13B
:200E8C0004F096FCA0EB09004346000B3618A0611868B6EBC01F24BF281CE0610AD2E661BE
:200EAC0004F1BC004FF0005104F03EFC284619E06671284640F60903A38694F8413003F0B0
:200ECC00F00343F0010384F84130E58694F840302A4603F0F00384F84030704EA26304F18E
:200EEC0034013160606118E0380914D2B80BC0F0C48004F1240004F0A6FD061C08D0706807
:200F0C0030B17568F068B6F91C1000222023A84727F40057B1E00020A07227F00807ACE099
:200F2C00A968088840F60208804507D00A8B4FF61F60104040F43470088306E00A8A4FF65D
:200F4C001F60104040F4347008826069D0B1042004F094FAB0B104F02BFC6169814226BF76
:200F6C00401A401E401A000BE860E868698A401840F6C411E860814203D340F2EE22824273
:200F8C0000D9E960AE699EB14548B04210D094F8410010F00F0F0BD1698C08F107008842D8
:200FAC0006D128466FF4807100224FF00073B0473C4904F16000002204F03CFDA07958B176
:200FCC000220ADF80000684604F08EF80026A671BDF80800A4F85C000120607020794FF05B
:200FEC000008401C207104F1200084F8078004F02AFD002808BF47F0020702D0192004F08F
:20100C003BFC6E692EB1414628464FF080630A46B04727F0005730E004F12C05284604F073
:20102C0012FD01F085FC284604F00DFD27F0020708B147F0020720E0FFF74AF8014604F12A
:20104C00280004F000FD0646B569A80810D27EB125EA0500B0610846FFF73EF8706850B1C8
:20106C002A46F068B6F91C1075680023A84702E00846FFF731F827F4804727B104F1BC0018
:20108C00394604F051FBBDE8FE83C04668090020452F00009D520000B01A00200010044027
:2010AC0043270000312500002DE9F04F0128ADF1140D40F0F280DFF81492D9F8DC00012832
:2010CC0040F0E9800220C9F8DC0004F07DFD0290012003F0D9F920B101210646C9F8DC10DA
:2010EC00D5E004F06DFD03906E484FF00008C0F80080012004F0C2F9012818BFCDF80080F4
:20110C0004D1404602F04AFF0120009066486E4CC0F800801934D4F8FF0F112004F02AFC6A
:20112C0000280CBF46460126102004F023FC08B146F002060F2004F01DFC08B146F004068E
:20114C000B2004F017FC30B1584800685849006B0246088890470A2004F00CFC00284046D9
:20116C0018BF01204FF0805B0BF5DC7528B128685049006B0246088890474F4801270760BE
:20118C0028688069014646F0200088474B48076004F0EAFB00F001010191400815D2484848
:2011AC0004F09CFB8246BAF1040FF8D0BAF1010F06D1DBF8D8014068024641480321904798
:2011CC004049086820F003000860404600F080F82868D4F8FF1F806B8047019801280ED0D5
:2011EC00BAF1010F06D1DBF8D801406802463448394690473349086840F0030008602A48EA
:20120C000760286840690146304688470B2004F0B1FB28B128682649C06A0246088890471A
:20122C000A2004F0A7FB28B128682249C06A024608889047204807600322C9F8DC201F4B1A
:20124C00C3F800802868406B0146304688470128F8D1042003F018F9124807601A48D4F877
:20126C00FF1F01688909FCD30098012802D1384602F094FE04F072FB082003F005F906461E
:20128C000398C9F8DC7004F097FC02F07BFD029804F08EFC02E0042600E00126304605B053
:2012AC00BDE8F08F0C40094000022243B8010010F65C0000F25C0000282008608001044321
:2012CC00004003402422084014100940900B00202DE9F84FDFF8ECB10746ABF13500DFF803
:2012EC00D8A10068800880F0D78003F0E9FE79490831D1F8008000254FEA28725FEA98516A
:20130C0002F101020AD2C0F13E0110F10A0F4FEAE101D8BF08218A42B8BF0A1C634BD3F828
:20132C007C11C1F304611629A8BF20391B68C3F30443162BA8BF203B99468918162905DADB
:20134C0011F10A0FB8BF6FF0090100E01521584B584E01F01F0242F4F8521A80326812F05F
:20136C00030F18BF0125D20828BF45F002050FB145F00405524692F90730C31A052B04DA12
:20138C009379AB4208BF918866D0DFF830E10F28A0F10F0C25DB0CEB0013A3F1F00C4FEA94
:2013AC002C26072E88BF07263446062C88BF06245EF82470042303EB84037446E358DB1B98
:2013CC0003F0FF04EF0824BFC3F307273C44AF0824BFC3F307473C446F0828BF04EB1364EB
:2013EC0001E0002426465EF826E0EF080EF0FF0324BFCEF307273B44AF0824BFCEF3074723
:20140C003B446F0828BF03EB1E63A4B2ACEB0626A9EB01017443002904F1800403EB142347
:20142C00D8BF0121342408F0FF074C43A1B27943B1FBF3F14FF6FF738B4238BF191C80280B
:20144C0089B2918005DA10F1800FB8BF6FF07F0000E07F20D0719571194800681F29106029
:20146C004FF0000008D340F2FF128A4206D24908401C8A42FBD301E01F219180124F0F393D
:20148C00090940EAC10047EA0001CBF8FB1F0026CBF8FF6FBDE8F88F0C490D4F5246082040
:2014AC000F60921D1070BDE8F88FC0463C1100506E62084024220840B41A00209C13005020
:2014CC00082009403500094000E7A48030100940FDFDA400AC3F00502DE9F04F08274FF0E1
:2014EC000109ADF1540DADF8187006A8ADF81A9003F018FC714C9DF81C00002632467049E1
:20150C002070089866701346206104F16400CDF8009002F0FFFE0720207284F802904FF03C
:20152C00030A84F806A04FF0040BE67104F10900067000F13A01109100F10F01119100F1F6
:20154C001B011291153013900A20ADF80A00ADF808704FF0FF35039502A803F0E3FB002834
:20156C0078D130460C90ADF824700925ADF8265009A803F0D7FBDDF82C800028CDF83080EE
:20158C0068D1BDF82800102859D120789DF82A10884254D145462878D02850D1A978081CE8
:2015AC0034D0801E17D0401E01282CD86D78002D3DD103290CD0A58935B1E3782BB142480E
:2015CC00294603F0DBF900E0E67084F801A030E0022060702DE06B78002B28D1EB78617923
:2015EC0053B9607802280CD0374804F032FA40B9484604F05DF804E0109A304602F0A0FDF3
:20160C0068706D789DB9012E13D018E06B7821796BB91198ED1C2A461368036092888280E4
:20162C004846129A84F8019002F08AFD08B184F801B065691DB12D680DB16078A8470C989E
:20164C0040B1ADF81070ADF812A0CDF8148004A803F068FB60894108FFF476AF20F001005B
:20166C00E5786081002D3FF46FAFA079E5798DF8340013998DF835500A680DF136031A6099
:20168C00898899800621207A657A8DF83C000D4A8DF83D500DA802F0A5FF00283FF454AFA1
:2016AC00606984F801B000283FF44EAF016800293FF44AAF5846884746E7C0460802002048
:2016CC00BD5600002F5A00006C0200202DE9F0411C4615468C4208BF854282BF00230022EE
:2016EC00E5E0002C08BF002D0AD100290EBF00286FF000006FF0000100F0E1F8BDE8F08162
:20170C005FF000085FF0000E002C08BF8D429CBF2C1C0025070C47EA01470E0CB44208BF1C
:20172C00BD429EBF5FEA044444EA15445FEA0545070A47EA01670E0AB44208BFBD429EBFBB
:20174C005FEA042444EA15645FEA0525470847EAC1774E08B44208BFBD4200F29380870894
:20176C0047EA81778E08B44208BFBD427CD8C70847EA4177CE08B44208BFBD4266D80709F6
:20178C0047EA01770E09B44208BFBD4250D8470947EAC1674E09B44208BFBD423AD887093B
:2017AC0047EA81678E09B44208BFBD4224D8C70947EA4167CE09B44208BFBD420DD8E601AD
:2017CC0046EA5566EF01B14208BFB84201D3C01BB14158EB08085EEB0E0EA60146EA956643
:2017EC004FEA8517B14208BFB84201D3C01BB14158EB08084EEB0E0E660146EAD5666F01C9
:20180C00B14208BFB84201D3C01BB14158EB08084EEB0E0E260146EA15762F01B14208BFF3
:20182C00B84201D3C01BB14158EB08085EEB0E0EE60046EA5576EF00B14208BFB84201D3F1
:20184C00C01BB14158EB08084EEB0E0EA60046EA9576AF00B14208BFB84201D3C01BB14122
:20186C0058EB08084EEB0E0E660046EAD5766F00B14208BFB84201D3C01BB14158EB0808BC
:20188C005EEB0E0EA14208BFA84201D3401BA14158EB08085EEB0E0EA34208BFAA423EBFE5
:2018AC002D0A45EA0465240A89D3734642461E4617460B46024631463846BDE8F081704766
:2018CC002DE9F843814604F043F8002100B901216B4E30680028FCD06C4D01242D1DEF6AF3
:2018EC00346009B104F03AF8DFF89881C7F3072008F1BC01086004F02BF8002100B9214621
:20190C0030680028FCD02F68346009B104F026F8C7F38440C8F8C00004F01AF801460020CD
:20192C0001B92046014630680028FCD0ED69346009B104F013F8C5F38120C8F8D000B9F56E
:20194C00C061C8F8B81000F0968098F8D80068B9C8F8D410D8F8C000C8F8C800D8F8BC708B
:20196C00C8F8C470D8F8D060C8F8CC60D8F8D410D8F8BC60002954BF02206FF00100454692
:20198C0005F1C8031A6801EB41014018411000EB917002EBA0021A60D5F8C810C5F8C460A6
:2019AC0000291CDD1E293DDDD5F8CC0030B93429B4BF15391E21C5F8C81025E02A29BABF53
:2019CC00D5F8C8000B381E20C5F8C800D5F8C4003F28B4BF401C3F20C5F8C4001FE0D5F8ED
:2019EC00CC00032812D011F10B0FC6BFD5F8C8000B30201CC5F8C800D5F8C4000028CCBF8C
:201A0C00401E0020C5F8C400032009E011F1150FC6BFD5F8C8001530201CC5F8C800002049
:201A2C00C5F8CC00B5F8C400174E30214FF47F4208230090304602F003FD009404214FF4C7
:201A4C0000321123304602F0FBFCB5F8C80004214FF4F80212230090304602F0F1FCB5F817
:201A6C00CC0020214FF440620A230090304602F0E7FCBDE8F883002088F8D800BDE8F883A8
:201A8C0000800C40900B002000A00C4000A00C402DE9F04FADF1840D00F0B6FC02F0ACFC1B
:201AAC000026012804D103F0BBFD022808BF01265F490868C0F38150012806D151F80C0C36
:201ACC000127010E07FA01F006435A48614F007807F12C00036802F08FFC03F07F03012814
:201AEC0004D103F09DFD022808BF5B1C524D2B602C463BB1FF2104F140001F467F1E00F839
:201B0C00011BFBD14D4800684FF0000900F0FF01FE291BD0DFF824C100F0FF074946012226
:201B2C00FF2F0CD0BB427FD902FA07F73E427BD100F0FF0047EA0909201880F840105CF8EE
:201B4C00040F491C00F0FF07FE2FE9D1092001F023F93A48002124220823606017A804F067
:201B6C0023F84FF0010804F1240017AA8DF87480414604F015F8236843B3002794354FF06B
:201B8C00040BBA4608FA07F0064219D119EA000F04BF07F0FF0141F4C04105D03819274967
:201BAC0090F8400051F82010254800F0B3FFF8B24FF0FF3103F070FC2368C5F800A001E088
:201BCC00C5F800B07F1C2D1D9F42DBD301A800213022082303F0E0FF0025FF20102101ABDE
:201BEC000990184A009504F1080003F0D1FF0DA828220823294603F0C7FF04F160000DAA2B
:201C0C001395114914952B4603F0BAFF0F4951F80D0C20F4F85040F4005041F80D0C474677
:201C2C00C1F8FF7F0A4E376021B0BDE8F08FC046B43F0050C01A0020C0180020A85D00003D
:201C4C00007FC767C1540000694500000D30094008000940181300502DE9F04F6C4CE2685F
:201C6C000746880FADF1140DC0F0C2805068406808B18047E26851685F4E886808B9CD684D
:201C8C007DB13568002DFCD00022326010B18047E0684168C86800B180475E48503803F07E
:201CAC0023FA4FF00008C6F80080544846F81C0C534803F029FE40F60A09A4F8349063793A
:201CCC00A4F83680BD6894F84000C34604F1340A00F0F00084F84000012BC4F838B094F881
:201CEC004100A5F8028000F0F00040F0010084F8410001D17B7C93B1B8680088A9F1080152
:201D0C00814205D0298B4FF60F400840288304E0298A4FF60F400840288287F81180394836
:201D2C00016883680193C368406B00911022694620F0784040F0805003903348029301F00B
:201D4C0015FA494600E01D466B6813B118888142F9D1C5F804A0687B00F0F000687304F1DE
:201D6C00200003F070FE80680088A9F10701814220D0491C81421DD03B8CEBB197F82C00DE
:201D8C0097F82D30C7F824B000F0F00087F82C0003F0F00040F0010087F82D0007F1200253
:201DAC00A2639AF80D00A7F8228000F0F0008AF80D0001E0C4F8148030680028FCD0C6F848
:201DCC000080012003F05AFB012808D0687B00F0F00040F0010068730C4803F095FDB96844
:201DEC000A8A4FF6FF3010400882B86846F81C0C05B0BDE8F08FC0461C10044001010E040C
:201E0C00350E00004C13005018000021ED3D000068090020510007062DE9F84F994692465E
:201E2C008B460646FEF754F9604C0090B4F93210B4F930000AAF401A40F6F871014008290B
:201E4C0080F29E80B4F9300004F59475401C6FF31F3020860820B4F93080EB7F33F07F03C0
:201E6C0004D0401E05F12005F7D1002506F1700003F0C6FAC5F808B085F81EA0C5F8049001
:201E8C00A5F81C804A48EE6097E80C00202100271940104005F1100383E8030004F12000F5
:201EAC00EF770368002B5ED1294602F08BFE00285FD0A6F8B880E87F40F08000E87796F8D0
:201ECC00BA00012804BF86F8BA70A771607A40B1607830B10120A0726772A7712079401CF3
:201EEC0020710098FEF7F8F8606A00285BD16078002834D1E079012855D0FEF7E9F80646DC
:201F0C00207A40BBA86802F0A7FC2B49294AE36809681060B0B1DD681068401BB0FBF1F063
:201F2C00012898BF012104D9DB681068C01AB0FBF1F19834204603F01FFE204603F018FE43
:201F4C0030462EE03046FEF7C7F804F1BC00042103F0EAFB27E0194901200870F0E7192007
:201F6C0003F08AFC1FE004F12000294602F02AFE48B9B4F9300000F6FF706FF31F302086A5
:201F8C006FF001080CE0A6F8B880E87F40F08000E87796F8BA00012804BF86F8BA70A771A1
:201FAC000098FEF799F84046BDE8F88F68090020F1EFFF9FB01A0020905E0000AC1A002078
:201FCC002DE9FC415E4C574D574EDFF860815A4F94F8E410481E0B2861D8DFE800F07B2C9E
:201FEC0043062343062343067664042907D001220A2945F8212C14BF0220032004E02021B9
:20200C00012045F8211C024684F8E200002045F8390C0827C5F8FF7FC5F8F37F45F8392C96
:20202C00BDE8FC81052914BF09200620002584F8E400356070E094F8E1700120383D002F16
:20204C00C5F81B0004BF0620002102D00021F160032084F8E400032045F8010C3160306835
:20206C00800859D294F8E400012503280DD00021404660220523009102F0E2F994F8E400E4
:20208C00062814BF0A200720D1E702200090002160220523404602F0D3F90420C7E703F0A4
:2020AC0063FDBDE8FC812249002622480E60012505600E2000F006FE022002F0ABFE84F843
:2020CC00E45084F8E360BDE8FC81002038600C2578601FE019480068006801462020884798
:2020EC002C3D41F61D560F2000214FF4C072072345F8010C4046C5F803600225009502F034
:20210C009FF9404600214FF4C072072302F0AEFA0120386084F8E45004F1780003F028FD4D
:20212C00BDE8FC8139400C4038600C4000A00C402C500C4004800C4034600C40A0010010B3
:20214C00900B00202DE9F8435C4C04F1200003F07AFC15460E460090FDF7BAFF05F0010758
:20216C008146B6F1FF3F0CD1606A20B9B4F93200401C06B202E0606AB0F91C60002084F8C7
:20218C005F00304602F05AFF0326002800F08A80616ADFF81C81814258D0009FB8422ED007
:2021AC003FB100990A68904209D0096800290091F7D1832E41D04846FDF78EFF3DE004F197
:2021CC00980003F01DF900980168AA0802D20A6802600846002202600091009818B948469D
:2021EC00FDF77AFF28E0C17F41F00401C177684603F046FA0146404602F0E4FCEDE704F167
:20220C00980003F0FDF8A8083ABF206A0068002020624846FDF760FF0099C87F40F0040000
:20222C00C877684603F02CFA0146404602F0CAFC009808B1A808EFD28326E079012834D016
:20224C0004F1BC00022103F06FFA2EE0A90803D3216A009100262662C27F0121B940114333
:20226C00C17703F0ADFC0446002F14BF1148124802F03AFF4846FDF72FFFA80801D3009888
:20228C0020B9204603F098FC83260EE0C17F41F00401C177684603F0F3F90146404602F0DB
:2022AC0091FCECE74846FDF717FF3046BDE8F8839409002001000204010001046809002029
:2022CC00F8B5414C201D0368B3F1FF3F08BF002302F092F8002876D13C4E20683468070F95
:2022EC0004F0FF04802C28BF002402F085F84FF0FF3578B1401E07D0401E012802D9801EE4
:20230C0013D014E08FB112E0381C5CD0801E0ED114340BE03846401E55D0801E53D0001F97
:20232C0051D0401E03D1163400E00A3465B2162D49DB27482749002501270560264E0F60E4
:20234C00264C376020680028FCD1274A161D2449244F306820F0030001433868C0080CD232
:20236C00106810F0030F0AD041F003003060106800F003000328FAD101E041F001011B4851
:20238C003160006820B11A4800681846FEF728F9184819490560194F0A686FF35B4247EAF8
:2023AC000200086016490868C0F30130012806D10A681448104040F400320A600860206816
:2023CC000028FCD1F8BDFEE718130050A0100050840460425C600C40082204430C0068428E
:2023EC0004000020B03F00500040034080012843000120438C2108404820034000003901C1
:20240C0004000940FFFFFCFC2DE9F041444C94F8E700ADF1280D00286FD1394F387B012587
:20242C000021242284F8E7507E6884F8E6000823C4F80C6101A803F093FB002604F10C0089
:20244C00069601ABADF814602E490796324603F083FB2D4904F1300001AB324603F07CFBE9
:20246C002A4904F1540001AB324603F075FBB868014628468847DFF89C8025487B7B00789B
:20248C00D8F80410C1F381571BB1032F03D184F8E150032F16D0022F14D0012F26D10320CA
:2024AC001D4C009031464FF040521C23204601F0C7FF009531464FF400720923204601F02F
:2024CC00BFFF13E0022002F0BDFC032F0CBF4FF47A7142F21071114800685434B1FBF0F1BC
:2024EC00204603F049FB204603F042FBD8F80000C00802D2304602F0A5FC0AB0BDE8F08158
:20250C00485E000063370000D9330000F1350000C01A0020B03F005000A00C40905E00002A
:20252C00900B0020F8B503F093F83F4E3D4F0446A00822D3796A01B33D46002068628A69B2
:20254C00086906F108032040104340F0020088610A6918689043186001F1100090E80C006A
:20256C0030681A1C9043306005F12C0002F02AFB022105F1BC0003F0D7F8786AA10814D2DD
:20258C0000F110020CCA002122400B4008BF002A0BD0016985690C40B8622C434FF480418B
:2025AC00846107F1BC0003F0BFF8786A002837D107F12004204603F046FA051C30D0F86884
:2025CC00E968884226D1A86802F046F917490860E0B906F1080128690A68104308603268E3
:2025EC0005F1100393E80300081C1043306000233361A86846F80C0C06F11000006800288D
:20260C00FAD0204603F03CF87D62F8BD086801F065FAF8BD07F1BC004FF4805103F084F817
:20262C00F8BDC046680900200C100440B01A00202DE9F0430646ADF11C0D03F089FA02F034
:20264C00A1FB4FF000090546CDF80C9003F0A4F930F0010002D00398A84202D16FF00400A0
:20266C0066E070684C4658B1B0F1FF3F05D004A902F070FB30B1804659E04FF0FF3000E0A9
:20268C002046049003F0ACFA04994FF00108471802E00A463BE004936868049903F054FAC5
:2026AC0000282DD0684601F04FFCD8B99DF8040005A902F0D1F988B9B368BDF814009DF8B1
:2026CC000610029A984748B1BDF814009DF80670B081029BB773C846336111E0029903A8BF
:2026EC0002F054FC0498641CB0F1FF3FD4D00028D2D003F075FA3B1A02D004989842CAD288
:20270C00039F02F02BFF05F1080647B13A4652F80C1C0029BDD1316842F80C1C376003F0C5
:20272C001BF824B1686803F00BFA641EFAD1404607B0BDE8F083FEE7F8B50E463B4D3D4947
:20274C001746A0F20232082A06D8DFE802F0302A5B4C221B6D140DC0282865DA022E63D102
:20276C00398802F05FF9F8BD012E5DD1387804285ADA093113E0012E56D13878082853DA90
:20278C0008310CE0012E4FD1387804284CDAC91D05E0012E48D13878042845DC891D087089
:2027AC00F8BD022E40D138880C310880F8BD012E3AD1E9783878E87051B9002834D0687824
:2027CC00012818BF03282FD1012002F071FFF8BD387848BB6878022826D1154A002008212E
:2027EC0001F000FFF8BD05F1430400211F22204600F078FF39463246204600F0B7FC6E71DD
:20280C0000200DE005F1240400211F22204600F069FF39463246204600F0A8FC2E710120B0
:20282C003146224601F08CFCF8BDC04608020020295A000008020020F8B5364C0D46A80870
:20284C0046D2E80865D304F1200003F0FCF800280EBFE068C068E06041682F4A0978116077
:20286C00416812680978914207D087692FB16FF0FF0100224FF00073B847022002F0E2FA0C
:20288C00112000F089FA0120E071E168087C10B16079012803D00E2000F07EFAE168496823
:2028AC001E488F680FB9CF681FB10021C1611C4F07601C4A40F2FF711160002787611A49E0
:2028CC0041611A4803F020F8192003F035F9F8BD04F12C06304603F0B6F800F029F8304609
:2028EC0003F0B1F825F0020504F1200158B9E80803D2084603F0A7F858B104F1980002F0C0
:20290C007FFD042101E045F0020104F1BC0002F00BFFF8BD68090020D02108400010044071
:20292C00510007060000046002000040651C0000F8B5071C72D0B86840F6030120264A1CEE
:20294C0002E04068761EF6B260B15EB10388994218BF9A42F5D1F9681CC820311CC149C822
:20296C0081E849007868BA690025BD61C8B1F87F42F00202002300F00700401E09D0401E7E
:20298C0004D0801E08D14FF0805304E04FF0804301E04FF000532A467C68F868B7F91C10E5
:2029AC00A047FDF795FB1E4C0646B4F93200401C6FF31F30608604F12C000168CD7702F058
:2029CC005FFE3046FDF788FBF868B0F9B810B4F93220914222D1217801291FD090F8BA60B7
:2029EC00BEB90668AEB1E2680E4912680968B2F1FF3F13D0B6FBF1F2012A8CBFB6FBF1F19A
:202A0C000121703003F0B8F8F868703003F0B0F8F8BD80F8BA50284601F060F8F8BDC04601
:202A2C0068090020905E0000F0B5ADF1340DFFF7EBFC304908682822082340F002000860B2
:202A4C0001A8002103F0A0F82B4E2C490524002301AA079406F1BC0003F092F800213022F2
:202A6C00082301A803F098F80025FF271921244AADF81C5001AB099706F16000009503F0C4
:202A8C0087F82822082301A8294603F07DF81D49079406F1F00001AA2B4603F071F801A8AD
:202AAC0029463022082303F077F80124ADF81C40099706F17C001A2101AB134A009503F0B7
:202ACC0067F812492A4606F19800134603F044F80F4802F019FF86F85F507571F571357228
:202AEC007572B5727561B4714FF6FF70A6F85C000DB0F0BD00200940680900200557000053
:202B0C009D5200006D360000FD3F0000BD510000452800002DE9F0470D4606465FFA85FA9C
:202B2C00280824BF2E4845402E494FEA8A03C85885EA00023240C2F300672B4A06EA0504B1
:202B4C00B043224006F4E0240243B4F5E02F01D1500E14D306F4E020074310D002F4E027E1
:202B6C00B7F5A02707D0B7F5803704BF22F4003242F4A02203E022F4803242F4C022DFF8FF
:202B8C006C80CA5008F1D00739680122002002FA0AF40C4218BF101C5FEA000906D1F00DFE
:202BAC0004D34146C5F3805001F80A00300E0BD3FDF78EFA290E34BF0021211C3A68A24379
:202BCC0011433960FDF788FAB9F1000F06D0F00D04D34046C5F3805100F80A10BDE8F087E6
:202BEC00006000A000100840FF7F077F00200240F8B502F0ADFE00F03DFF02F0B5FE0446A6
:202C0C0004F00C000C284FD0E0081ED202F02CFA274E376805460120014602F010FC316807
:202C2C006943884211D2234C8220B0FBF7F0291A204602F0A1FF204602F09AFF0120FEF74A
:202C4C0033FA204602F0DCFB2FE020092CD21A4802F044FE0428FAD01849620906D228B1CD
:202C6C000A460846016821F0010104E00A460846016841F001010160D2F898004FF080543A
:202C8C0040F00300C2F89800D4F8B8018069014620208847D4F8B801094C806B21688047CA
:202CAC0001202060206800E030BF02F057FEF8BD905E00009C0B0020004003408C210840E7
:202CCC002C2009402DE9F8430446FDF701FA81462D48021992F8ED10491ECFB2002F82F85A
:202CEC00ED704BD12B4D05EB84052E78698836F07F0788461AD1F10911D24FF08054D4F8A6
:202D0C00B801806901464046884704F5DC742068406B0146404688470228F8D121E000EB72
:202D2C008800D0F80011002088471AE04FF08054D4F8B801006A014640468847D4F8B8011A
:202D4C00806A014640468847D4F8B801006B01464046884701210D4A0D481160016889081C
:202D6C00FCD306F03F003F2801D0FFF7ABFF687800F03F003F2801D0FFF7A4FF4846FDF709
:202D8C00ABF9BDE8F883C046900B00202820086028200840C85C00002DE9F0410646FDF7B7
:202DAC0097F92D4D8046A91991F8ED00421C002881F8ED204AD1294C04EB8604277807F054
:202DCC003F003F2801D0FFF7E7FF607800F03F003F2801D0FFF7E0FF668837F07F001AD101
:202DEC00F80911D24FF08054D4F8B801406901463046884704F5DC742068406B01463046DD
:202E0C0088470128F8D121E005EB8605D5F80011012088471AE04FF08054D4F8B801C069E0
:202E2C00014630468847D4F8B801406A014630468847D4F8B801C06A0146304688470121E2
:202E4C00074A0848116001688908FCD34046FDF743F9BDE8F081C046900B0020C85C0000DA
:202E6C0028200860282008402DE9F041314C0546A0781F4616468846ADF1380D012803D071
:202E8C00FFF7D2FD0120A070B8F1000F09D0C5F8048036B1AE60FDF71BF9E17819B1FDF74A
:202EAC001BF900203FE0491CC9B2E170FDF714F901243FB91D494CC909A84CC006C909AFA5
:202ECC0080E80600386828607868E860387C2874B8686C746861788A6882F86800B1A86109
:202EEC000021A02205F1200000F0FCFB684600212422082302F058FE8DF8184005F1380053
:202F0C0000216A4602F04CFE684600212422082302F026FE0649069505F1700000226B461F
:202F2C0002F01AFE28460EB0BDE8F081205E00001D5A000068090020F8B5304D0C460646EB
:202F4C00A0083CD2A00F51D3294F3868294C20F0020040F400703860032144F8041C41F24E
:202F6C003003A360012121605022A26021604FF4CA60A0602160204844F80C1C02F0C4FC0B
:202F8C00A81C0078012803D006F1380002F0D8FD002402203C6001F03DFF1120FFF792FE31
:202FAC00307C10B90E20FFF78DFE2846144A047211784472D1B11470BC30042114E005F15F
:202FCC002C06304602F03FFDFFF7B2FC304602F03AFD30B924F00204A00F07D34FF00051B0
:202FEC0000E0022105F1BC0002F09EFBF8BDC046000004600C4104404528000068090020D7
:20300C00AC1A00202DE9F0412B482A490860FEF73FFD2D4C0025032004F1180141F80C5F85
:20302C00401E8D60FAD1241F062004F14C010A46401E22F80C5BFBD10820204F0880204A3F
:20304C008F602049121D22F00303CF1A6762E3612362E66904F12008944618460A4601E075
:20306C0026F8025BB142FBD8B910E82700EB810121F8045C4FF6FC761F8006EA0C0300F1FF
:20308C00E807D21A676106EA0201EC39A0F8E810284600F027FAA061D8F80000606100F0D8
:2030AC007DFC01F043FB01F0B9FB02F041FD2846BDE8F0816409002025450000AD5300000C
:2030CC00C11A0020B8410020A40C0020F0B520480127F84201D001F043F9204D204F214E48
:2030EC00BD4206D203CD0478A4003459401CA047F6E71D48002800D08047164D164FBD4265
:20310C0002D210CDA047FAE7F0BD03251BE0416808300A1C2A400BD11A1C2A40AB4305D0AA
:20312C00046804300C600431043BF9D1131C05D0047801300C700131013BF9D1021C2A404C
:20314C0001D0A84304300368002BE0D17047C046FFFFFFFF0000000000000000786100009A
:20316C00D86100003461000059C50110002A4AD05FEA000C8B071CD1830722D1102A08D39C
:20318C0070B4103A78C978C0103AFBD270BC103238D0042A2CD3082A05D30C2A24BF08C98E
:2031AC0008C008C908C008C908C092072AD0920F22E00B780370491C401C521E22D08B0728
:2031CC00F7D1C30714D18307D8D0121F12D308C903801B0C4380001D121FF8D20AE008C913
:2031EC0003701B0A43701B0A83701B0AC370001D121FF4D2121D05D00B780370491C401C39
:20320C00521EF9D1604670472DE9F843234D884606464FF0FF3105F12400814602F094FC5E
:20322C0000200CE0FF2909D02A688A4204D905EB8101D1F894700FB1002627E0401CB8F109
:20324C00000F03D018F82010FE29EBD10024346074600127B46011E0FF280ED005EB80002F
:20326C000B787268C0F8946007FA03F0104370600A680949304601F0CBFE641CB8F1000FF6
:20328C0004D008EB84010878FE28E5D1484602F057FC3046BDE8F883007FC767C01800206C
:2032AC002DE9F8432020EFF3118780F31188214CA068012102F038FC4FF001094FF000089E
:2032CC0065692168A4F81C906A1A2168A4F81E80461B401A904227D387F3118840462D1897
:2032EC00361A4846294602F01BFCB042F7D92021EFF3118781F31188E18B012903D14046F2
:20330C00294602F00DFCB0F1FF3F06D0A169801B814238BF081C291801E0A069411902F088
:20332C00FBFBA4F820902560A4F81C8087F31188BDE8F88378010020B0B50446A768ADF15A
:20334C00280D5FBB0C2000F0CDF8071C1DD0684600212422082302F003FC002306976A4680
:20336C006168ADF810301848059302F0D1FB386070B90820ADF824000C25ADF8265009A82E
:20338C0001F0D0FC384601F0EBFD6FF0030018E0E06878602069B860A7600AE002F0DEF839
:2033AC000546386802F02CF82069B860284602F0D3F93868616802F0DFFB386802F0D8FB99
:2033CC0000200AB0B0BDC046215900002DE99843FCF77EFE1F4CDFF87880814604F1E000E4
:2033EC00007850B94446A0680146022088470746102001F049F82FB320E000F095FC00283C
:20340C0020460FD1144909683222B2FBF1F101B9012100F13004204602F0AEFB204602F04F
:20342C00A7FB0FE044460022A16880F8E020022088470746102001F027F81FB1A068014625
:20344C00032088474846FCF747FEBDE89883C046485E0000900B0020905E000070B51E4D03
:20346C00AC68064602F0D0F84FF47A71001B4843030C01F025FE2969401A48BF404240F684
:20348C00B831F618B14210D306280EDAE9688C420BD8286848B1114A091B51438A0C02EB1C
:2034AC001141884288BF011C08E00D49486840080ED208687D2100F0FF004143C82905D320
:2034CC00B1F57A6F88BF4FF47A6103E0C82101E04FF4FA61084670BD981A002040420F00C3
:2034EC00AC3F0050F8B5001D84B214F0030002D0241A241DA4B202F031F81A49102C0246D5
:20350C004F690A61C8BF8F69388800231E46C10BCD0319D126B984420ADD3B46012617E005
:20352C001988091889B28C42198011DC1F4608469FB1001B80B20428B4BF3C88385344F4B8
:20354C0000443C803F1D08E080F40040002680B23F1838880028DAD10027104602F0FCF8C2
:20356C003846F8BDA00C0020F8B50E46044602F027FB0546304601F061FD071C03D128466C
:20358C0002F01AFB28E0F87F10F0070F1DD114487968884202D079682166786002214FF01A
:2035AC00E04204F1580080E80600284602F004FB04F138004FF0FF3102F0C6FA04F1680711
:2035CC000020206697E80300F8BD284602F0F4FAF87F10F0070FFBD102200021F8BDC0465D
:2035EC00B94300001CB5042001F048FF022818D0032816D016480068C0F38150032814BF2B
:20360C0041F288324FF47A721248144C016854342046B2FBF1F102F0AFFA204602F0A8FA4D
:20362C001CBD03200C4C009000214FF040521C23204600F005FF012000214FF400720923EC
:20364C000090204600F0FCFE022001F0E3FB1CBDB43F0050905E000000A00C40900B0020DC
:20366C00F8B5FCF735FD1C4C0746A06D10F4602F27D0A06D400CC6B2700807D2B00803D271
:20368C00F00828BF022602E0012600E00026751D68B200F0D7FCA36D06F111010120884097
:2036AC0023EA00013846A165FCF716FD04EB8600C76C4FB1A06C294600224FF00063B84780
:2036CC0002E03846FCF708FDA06D20B104F1F000002102F029F8F8BD6809002000221346CE
:2036EC000A46194671B510F0030F0BD0002A82BF00F8011BB2F1010210F0030FF6D1002AD4
:20370C0008BF71BD11F0FF0141EA0121042A18D341EA0141082A0FD30E46102A08D30C4605
:20372C000D46B2F10F0312F00F0272C0103BFCD812F0080F18BF42C012F0040F18BF40F8FB
:20374C00041B12F0020F18BF20F8021B12F0010F18BF017071BD704738B5054601201A4C21
:20376C0068712879B0B901F0F9FE2178002904BF6FF00704051C15D0491EC9B2217039B918
:20378C0001F0EAFF606801F0BDFB0020687118E0054613E001F0E2FE05462078FF2805D1F2
:2037AC006FF00604284601F0D7FF0BE0401CC0B20128207002D1606801F0BBFB284601F04C
:2037CC00CBFF0024204638BDC40F002070B50646B079F4680628A4F10C042CDA30790628FB
:2037EC0029DA01F0BBFE154DB27991000C3501EBC20149194968E1B101F0AEFF3079207185
:20380C00B0796071307AA071B179880000EBC1004019F1684068083001F0B8FBB1798800A1
:20382C0000EBC10040194068406802F089F9002070BD01F091FF6FF0020070BDE00C00204B
:20384C0038B519491A4C00204822C1F8F30F94F8E200C1F8FF2F20B3012817D0022807D029
:20386C0003281ED151F8310C00F024F80B2016E051F8315C2846FEF723F840F2FF50A842B0
:20388C0002D8801CA842F1D2082008E051F8310C00F0ECF9054800780028E7D0052084F849
:2038AC00E400FEF78DFB38BD39400C40565E0000900B002038B51A4CA0F5C060D4F8B810D6
:2038CC00C4F8D4000029B8BF49420028B8BF4042814220DAB4F8BC00124D30214FF47F4227
:2038EC0008230090284600F0ABFDB4F8C00004214FF4F80212230090284600F0A1FDB4F8C0
:20390C00D00020214FF440620A230090284600F097FD012000E0002084F8D80038BDC04686
:20392C00900B002000A00C402DE9F8438146EFF31188202080F31188174D154C134F0126A7
:20394C0005F11C000660A4F114000660F86A016A14208847D9F81000810C14BF000C042093
:20396C002060386802682321002090470948066054F8180C20F4C02040F4803044F8180C17
:20398C002E6088F31188BDE8F883C04684010010182009408002244300002443B0B5ADF1EA
:2039AC00400D02F011F9044600213C220823684602F0AAF8114841680691816800680490FE
:2039CC000F480068002205900E480891694602F097F8071C0DD001F0C1FD0546384600F0DE
:2039EC0027FC30B1284601F0B7FE204602F0E0F801E000F053FB10B0B0BDC046FC5B0000CA
:203A0C00A40C00206558000030B5401E4FF00004ADF12C0D0AD0401E04D0401E20D1FEF760
:203A2C00CFFA1DE000F038FA044619E001A821462422082302F094F806940D4DADF8144063
:203A4C0009490794012201AB05F1780002F084F8064A23462C2105F19C00009302F098F815
:203A6C0020460BB030BDC046193C00004D380000900B0020164880B507683FB315498B684C
:203A8C0003EA5300C00E21D2134A106880081DD2486880081AD21068096810F0050F4FEA73
:203AAC00114101F0F00101F5E0710AD1B9420DD2190F38BF40F00100D90E38BF40F0040068
:203ACC0003E0B94202D920F00500106080BDC04628500940AC3F005000000940B0B5074662
:203AEC00FCF7F6FA154C0546207918B3401EC0B22071F8B904F1BC00082101F015FECFB157
:203B0C00E068703001F07CFCE1680D48CA680068BA1AB2FBF0F2012A98BF012103D9C968FC
:203B2C007F1AB7FBF0F19834204602F025F8204602F01EF82846FCF7CFFAB0BD6809002076
:203B4C00905E0000F8B5844640F6FF741CF8013B002210E0481B401E10F8015B7F1E01F82E
:203B6C00015BF9D103E01CF8010B01F8010B521C5B08082AEADA5808F5D21CF8010B1CF8E9
:203B8C00015B05F00F07FF1CC5F30315122F45EA001508D11CF8016B300A24BF1CF8010BAC
:203BAC0060F3DF16BF19AC42D4D1F8BDD0B5044601F0CEFF00F03CFB071C08BF6FF002048E
:203BCC001FD001F0CBFC0146A2880F480023243030F80C6F5EB902804760A268826023738E
:203BEC00786820610024084601F0B6FD09E0964208BF6FF00204F6D05B1C062BE8D300F03C
:203C0C004DFA2046D0BDC046BC0C00201648144A144908B5E4300078801E0A2807D8DFE898
:203C2C0000F01814100614100614100609C001F09BFF11E010688008FCD250688008FCD2D1
:203C4C000AE008688008FCD306E008688008FCD202E010688008FCD3FEF7B2F908BDC046DF
:203C6C0034600C4038600C40900B0020134910B50A684BF2F5214843040AC2F3814001289B
:203C8C0006D101F01DFA00F0ABFD604304EB90540C4901F1E500007830B90948006820F0D5
:203CAC007F402418640802E0002081F8E50006480460210C41600123836010BDB43F00509A
:203CCC0010200940900B00203C600C40B0B5044601F062FE30F0010008BF6FF004041ED07F
:203CEC0001F036FF054601F039FC01460D480622403030F80C7F6FB1A388BB4208D1406871
:203D0C0000680022854208BF0122A260002403E0521EEED14FF0FF34084601F01DFD2046F3
:203D2C00B0BDC046A00C002008B5012001F0A6FB01281DD00F4834210122002300F096FC3E
:203D4C00002808BF002014D00B48006801F008FA01F05AFC0A4A93681168D060C01A074B4B
:203D6C00A1EB91014343180C884228BF011C1160012008BD00A00C408000001040420F003D
:203D8C00981A002098B5154B1B1D18680004070C21D001F095F9104991F90720824205DDA9
:203DAC0010F1800FB8BF6FF07F00C8718C88BC4210D80A68D3F8D40F801A801C1F2888BFFB
:203DCC001F203F1B4008C7404FF6FF70E719B84238BF071C8F8098BDB41A0020301009404C
:203DEC00084610B500F0005100F0040008431CD0012001F043FB104C012811D00B480168C6
:203E0C003220B0FBF1F2012A8CBFB0FBF1F101216434204601F0B0FE204601F0A9FE10BD29
:203E2C00034801F071FD0348046010BD905E0000350E0000001004409C0900201549096837
:203E4C0021280ADC212819D00C380FD00D380FD0001F0FD0C01E0FD01AE0253810D0001F9D
:203E6C0010D0401E10D0401E10D011E0086870474868704788687047C868704708697047A5
:203E8C004869704788697047C8697047086A704700207047F001002038B5134D95F8E10052
:203EAC00002410B91148007860B1FCF711F995F8E310002906BF012185F8E3100124FCF712
:203ECC000BF90CB1002038BD022000F0BBFF0E20FEF762FF01F0CAF901280EBF01200020C5
:203EEC0085F8E20038BDC046900B0020565E000010B5FCF7EDF8124C611C097829B10F49C2
:203F0C000C68FCF7E9F8204610BDFCF7E5F801F04FFC0C4A002301F0E3FB626C00231400C1
:203F2C001B184FF07A024FF0905044EB0104C11842EB04021046001C10BDC046043004406B
:203F4C006809002000093D00D0B5044601F000FE00F018FF061C08BF6FF004001DD001F08F
:203F6C00FDFAB168002908BF002709D051F80C2C0023B2600F4641F80C3CFF2601F8026C1D
:203F8C0001F0EAFBA7603FB117F8080C207117F8070CA0710020D0BD0220D0BD012838B5EF
:203FAC001ED1012001F06AFA01281BD001F044FB0D4D0E480122322305F1E00100680A706B
:203FCC00B3FBF0F404B914463035284601F018FA2846214601F0D0FD284601F0C9FD01E0BD
:203FEC0000F0BCFD002038BD900B0020905E000038B51248104C0168114D0C40E143016013
:20400C00A10908D34068800905D328464FF40051BC3001F089FB14F4602F0BD0284600F1D2
:20402C0058010A6804F46024F03014430C60002101F07AFB38BDC04620000E00081004403E
:20404C006809002098B50446FCF742F88446104890F85F10C90803D390F85E10A14213D083
:20406C00B0F85C300B4F012202FA04F11943A0F85C10391D0B6804F10C07BA4093430B6026
:20408C000F680FB9002101706046FCF725F898BD680900200810044000BF704708B5FFF722
:2040AC00FBFFFEE738B50D4C0546A06820B10C48B0F1FF3F00D080470A4800688047606898
:2040CC0010B1014628468847206800B18047064800688047FFF7E2FF38BDC046AC0F002065
:2040EC00FFFFFFFFCC0F0020D00F0020DCB5044601F02EFD00F046FE064601F04DFC30F0ED
:20410C00010014BF002E6FF0040017D0606858B1B0F1FF3F05D0694600F01CFE30B10746DB
:20412C000BE04FF0FF3000E0002000907068009901F00AFD002700B901273846DCBDFEE71D
:20414C002DE9F0410646104890F8008014460D46102001F0F5F8071C12D00421072201F061
:20416C0045FB404601F04BF838727E72BD72FC6001F0F6F8054A394600F0AAFBBDE8F081BC
:20418C000420BDE8F081C046080200203B5A0000F8B5044601F0DCFC00F04AF8071C19D016
:2041AC0001F0DCF984460D480021243030F80C6F6EB94FF6F872028047600025856021715B
:2041CC007868A060604601F0C7FA2846F8BD491C0629EBD3FFF762FFF8BDC046BC0C00202C
:2041EC00F8B516460C46FBF773FF02460F484178832554B1641E02D0641E10D00DE0817952
:20420C00012904D0B0F85C1005E0476A0FB9802506E0406A818B318002E0032500E03170A5
:20422C001046FBF759FF2846F8BDC046680900202DE9F843804601F091F90F4C03250026DD
:20424C00814654F80C7F5FB93046C4F800800146A6600A4601F050FC606018B9FFF71EFF6C
:20426C00474501D1264601E06D1EEAD1484601F073FA3046BDE8F883BC0C0020B0B5054627
:20428C0001F066FC044601F087FB30F0010008BF6FF0040414D001F061F90A4A002132F8E5
:2042AC000C7F4FB153681B689C4204BF2971002404D0491C0629F2D36FF0040401F04CFAFF
:2042CC002046B0BDE00C00207CB5114D04460E46600807D3B0B20021009001220B4628468F
:2042EC0000F0AEF8A00807D3B0B20090002102220123284600F0A4F8E00807D3B0B2009091
:20430C0000210C220223284600F09AF87CBDC04600A00C40F0B50E4615461C4607460021DE
:20432C0024220823ADF1240D684601F019FC0E9806900020059009484FF47A71AAB26B4600
:20434C000068ADF81040B1FBF0F080B231464243384601F001FC09B0F0BDC046905E000074
:20436C00F8B506460F4D104F7388002417E0A20002EBC402921951689068D26852B9AF4280
:20438C000BD00A7855F822200346491C08461946904701E0FEF7EAFE7388641CA4B2A3427F
:2043AC00E5DCF8BD34610000406100002DE998430446276E9946904607B1B84702210020C6
:2043CC0001EA080110EA090008BF00290AD104F1580090E8060008EA010119EA020008BF84
:2043EC00002907D004F1680080E8000304F1380001F0A6FBBDE89883104A1068C0F30F31A5
:20440C004BF69A10884207D111680B20B0EB117F14BF0020042070472430884208BF012060
:20442C000BD04BF64130884208BF032005D0213888420CBF02204FF0FF30704718130050AA
:20444C00B0B500EB4100102B04AF00F5007403D3103B00F50174120C3D889D4045EA0245A7
:20446C0001F076FA002700B90127064A394610680028FCD025600120106009B101F06EFA63
:20448C00B0BDC04600800C4070B5104C0646204601F0AAFA0025B0B9204601F0D0FA044610
:2044AC00A06806420AD0E068226900210346304698470546012D08BF012005D0204601F0A7
:2044CC00C0FA041CECD1284670BDC046900B0020BFB50546082014460F46ADF8000004207E
:2044EC00ADF802000C200190684600F01BFC00280CBF02980020014618B9204601F060F823
:20450C0007E08C60284601F0F3FA17B1384601F017FB0090BFBD70470F4A01465068ADF16E
:20452C00080D08B9002050600846801E12D0801E10D0401E07D001208DF801009DF801000B
:20454C000028FBD106E001208DF800009DF800000028FBD102B07047000600202DE9F04170
:20456C0001F026FA0D4D2B688046A3B105F194070024012606FA04F018EA000F07D057F810
:20458C00240020B1026812B1214690472B68641CE4B29C42EED3BDE8F081C046C018002053
:2045AC000C4885460C4885446F4607208743BD460A486F4607600A48002803D07946491D2A
:2045CC008E460047FEF782FD01F07EF801F08CFAFEE7C046B8410020000400002C100020FE
:2045EC00C95900002DE9F04104460E48057890460E46102000F0A4FE071C10D0324604219D
:20460C0001F0F4F8284600F0FAFD3872FC6000F0A7FE3946424600F05BF9BDE8F08104203C
:20462C00BDE8F08108020020D0B504463C20FEF759FF071C14D000213C22082301F064FAB6
:20464C00207AB86160893862E068386160683946002201F055FA0646384600F081FC16B988
:20466C006FF00300D0BD0020D0BD7047F8B51E4640181446102E02D3103E801C240C0546A0
:20468C0001F066F9002700B9012707483B460768002FFCD02D88012101600BB101F05EF940
:2046AC002C403441A0B2F8BD00800C400E4938B5CA68824210D1487801280DD1FBF708FD61
:2046CC000546084800F010FD04462846FBF704FD04F0FF00012802D06FF07F0038BD4FFA81
:2046EC00A4F038BD01000304680900202DE9F0410646984614460D460E2000F021FE071C0E
:20470C0010D0812038700123FB70BE803D817C810022BA8100F024FE3946424600F0D8F8A6
:20472C00BDE8F0810420BDE8F081FEE700B500213C220823ADF13C0D684601F0E5F9084825
:20474C0000F1D80107914FF44871089103210691044900236A46883001F0C2F90FB000BD9B
:20476C0008020020E514000070B50446606810F07F4F18BF6FF0020011D100F0EFFE084DB9
:20478C000646287828B1686800F0BCFB606800F0D0FB60686860304600F0DEFF002070BD2E
:2047AC00C40F00203EB50546FFF7CEFB041C15D1287902A900F050F968B10821ADF800107B
:2047CC00A86801900321ADF80210684600F0AAFA6FF005003EBDBDF80800A88020463EBD6A
:2047EC000D4938B5091DD1F8EC3209681B3800FB00F409060A161906091604FB01F543F312
:20480C0007214143C910604301EBA521424301EBA24000EB234038BDA010005000B5002146
:20482C003C220823ADF13C0D684601F06DF9084800F1D00107914FF4257108910121069122
:20484C00044900236A46803001F04AF90FB000BD000600203D0A000010B50446207B00F0C5
:20486C000F00022811D1FFF743FBA168084C081A04F10C010968C968800801F57A7181428E
:20488C0003D26FF05041814200D2002010BDC0466809002038B50446FBF71AFC05460B4851
:2048AC00401C007868B1204600F01EFC04462846FBF712FC04F0FF04012C0CBF8120022025
:2048CC0038BD2846FBF708FC012038BD680900201CB51446CA78012A02D18A880A4B1A8060
:2048EC0000F080FB30B9002000906946204600F07DF818B100F016FE044603E000984478E0
:20490C0000F06AFE20461CBDB80F002010B504460B4802680023D90750080143D007801A31
:20492C0099414FF47A720023FCF7D0FE002908BFB0F1004F28BF6FF000406060002010BD6B
:20494C00905E000080B517460A4A603A13688B4205D902EB8102D2F89420904201D0022004
:20496C0080BD002207B101220348E0384254002080BDC04620190020E020024038B50D46BA
:20498C00044601F066F810B1204600F039FD084800684FF47A71B1FBF0F080B205FB00F190
:2049AC00204601F0E9F8204601F0E2F838BDC046905E00002DE9B0430F46044601F047F8C1
:2049CC0004F1280292E800034B464246FCF77EFE05460B462A464046494600F081FE17B14F
:2049EC00303484E803002846BDE8B0833EB5054608200C46ADF800002020ADF8020010201E
:204A0C00ADF80400684600F08DF928B90298002818BF6FF0040003D12846214600F03AFB12
:204A2C003EBDFEE770B506460D460C2000F088FC041C0CD00421302200F0D8FE2681658160
:204A4C0000F08EFC034A2146FFF742FF70BD042070BDC046355A0000062880B50CDA0A4F30
:204A6C00820002EBC00207F10C00875A13181FB14FF6F870B84202D14FF0FF3080BD188854
:204A8C000880002080BDC046E00C002010B5044600212C220823ADF1300D684600F082FF70
:204AAC00E0200890A168606800236A4601F014F8002818BF002001D1FFF7F0FA0CB010BD57
:204ACC0010B5044600212C220823ADF1300D684600F068FFE068A1680890606800236A46BD
:204AEC0000F0FAFF002818BF002001D1FFF7D6FA0CB010BD10B5044600F030FD094B0022DF
:204B0C00014633F80C0F30B1A04208BFD4B203D0521C062AF5D3FF24084600F01DFE2046D1
:204B2C0010BDC046E00C0020B0B50D460949441800F00EFF002700B90127074A39461068D7
:204B4C000028FCD025600120106009B100F006FFB0BDC04600A00C4000800C4008B5032085
:204B6C000021FFF7B1FB012000F088FC18B10648006800F0F5FA00F047FD044B083B5860F5
:204B8C0000F09EFA186108BD80000010A01A002038B5FBF79DFA05460948E030007838B156
:204BAC0006480024342101222346FFF75FFD00B101242846FBF790FA204638BD00A00C403D
:204BCC00900B0020F8B5064637680D4600242C601FB9FBF77DFA374608E0FBF779FA00E088
:204BEC003F6839680029FBD1BD4201D03D600124FBF772FA2046F8BDF0B5044605AFADF120
:204C0C000C0D03B9084B97E860008DE86000FDF703F9011C44BF00204FF0004102D42046C0
:204C2C00FEF7A2FC03B0F0BDB9430000094910B500200A4C08600120C861143420602168E9
:204C4C0044F8280C04480068016A14208847206810BDC04600002443B001001018200940B2
:204C6C001078802811D1508840F27F6181420CD190883F21B1EBA02F07D1C0F3C21104291E
:204C8C0003D100F07F00834201D0002070470120704770B5044604F128020CCA08460021AD
:204CAC0000F01EFD04F1300292E860002D1846EB0106290C3004014300F00CF9383484E8E5
:204CCC00600070BD10B5401E14460DD0401E09D0801E05D0001F01D0FFF7E0F9052004E06F
:204CEC00002002E0042000E00220226821469047002010BD10B50446A1686068086014204F
:204D0C00FEF7F0FB38B10549A368054A096800F013FA002010BD6FF0030010BD8C5E0000A2
:204D2C00D14C000010B504462088FFF7E3FEFF2808BF4FF0FF300AD0054B810001EBC00009
:204D4C00195811B12046884710BD6FF0010010BDF40C00200A4A10B512680C464FF47A71B2
:204D6C000023A1FB0001FCF7B1FC002908BFB0F1004F2EBF6FF002002060002010BDC04626
:204D8C00905E000038B5054600F0E8FB084C03220146243C54F80C0F18B1A84202D0521E92
:204DAC00F8D10024084600F0D7FC204638BDC046E00C00200949020480B5120C41F8082C64
:204DCC00C0F3074041F8040C0120086004480768002FFCD00020086080BDC04644600C408A
:204DEC0084088C4310B50A4C2368C1F30F2102F00F02C0F38710090440EA022023F4806322
:204E0C0023601B041B0C0B4323600143616010BD1480024010B50446FBF75AF9084BE218A3
:204E2C0092F8E810491EC9B282F8E81021B99A680121A1408A439A60FBF74EF910BDC046DE
:204E4C00900B002038B50446FBF742F9084A02F108031D680121A14012192943196092F8B5
:204E6C00E810491C82F8E810FBF736F938BDC046900B002010B500F0A3FE00F0A5FE032074
:204E8C0000F026FE06481030006830B1034C204600F0A6FC204600F0A0FC10BDE5570000D9
:204EAC00A401002008B500F08FFD012801D0FFF746F9074800F008FE00F0FCF900F000FEA1
:204ECC0000F0FAFD00F0F4FD00F0EEFD08BDC046814E000010B50C4600F096FB211AB1F114
:204EEC00004F08D8011B091DC90F05D1001DA04288BF041C00E0041D0148046010BDC046A0
:204F0C001820094038B5044601250DE0C0F11F0005FA00F1052881EA040403DB401FFDF729
:204F2C00D1FE01E0FFF776FFB4FA84F02028EDD138BD38B5044601250DE0C0F11F0005FA14
:204F4C0000F1052881EA040403DB401FFDF724FF01E0FFF777FFB4FA84F02028EDD138BDF6
:204F6C0010B5044600F0FAFA074934F8042C6FF3DF3224F8042C4A690861241F944238BF9B
:204F8C004C6100F0E9FB10BDA00C002038B50C46054600F0E3FA002144F80C1C296811B9B4
:204FAC002C6006E0114651F80C2C002AFAD141F80C4C00F0D1FB38BD10B5044660680C3051
:204FCC0080B2FEF78FFA50B1A18800230181FF22036000F10C0182721846A16010BD6FF045
:204FEC00030010BD00B5ADF1140D8DF8040003910822ADF80020ADF802201020ADF80600B3
:20500C0002208DF808006846FFF78CFE05B000BD38B5094B1C6802F0FF05AC420BD902F0B6
:20502C00FF0403EB8403D3F89430984203D108461146FDF76FFD38BDC01800200949024623
:20504C000823C87F30F07F0005D0B1F91C00824208BF081C04D05B1E01F12001F1D10020A7
:20506C007047C046900A002038B52020EFF3118580F31188064CA068002100F055FD616975
:20508C00081AA169814238BF002085F3118838BD7801002010B50C46ADF1180D02900821CA
:2050AC00ADF8001019216846ADF802104FF0FF310191FFF737FE0499216006B010BD70470C
:2050CC000748816841F31002064991F900100068A0F5407041430811121A8032101270475C
:2050EC00285009400C130050084910B50246A1F11C0318680028FCD100240C601A60D869A5
:20510C000028FCD00C60586810BDC0461C10044038B5FAF7DDFF074C054694F8E000012833
:20512C0004D1FEF701FE002084F8E0002846FAF7D3FF38BD900B002010B5044610460A4688
:20514C00211C14BF0028022006D0C8608A6003480B6100F041F8002010BDC046900B002073
:20516C0070B5054600F0F4FB002400B90124054E30680028FCD0A847012030600CB100F0A6
:20518C00EDFB70BD00800C4008B5FAF7A1FF064A117880B229B90549096800230B70012366
:2051AC001370FAF799FF08BD3E100020585E000010B5084C06492069814202D100F0F8FA85
:2051CC00606104F1BC00042100F0AEFA10BDC046452800006809002038B50D460446FBF747
:2051EC0049F900212A462346116059685160596801B921460A605A60FAF76EFF38BD0EB568
:20520C008DF806005021ADF8001068460021ADF80210FFF787FD002814BFFF209DF807001B
:20522C000EBD000010B5044600F0AAF80246054881682AB1022313809470C068FFF748F982
:20524C0010BDC0460006002010B5044600F098F80246054881682AB1012313809470C0687E
:20526C00FFF736F910BDC0460006002006490868002818BF012005D1044B40200122186005
:20528C000020CA617047C04604800C402C500C4008B500F0DDF900F0804100F002000843F1
:2052AC0005D003484FF00051BC3000F03DFA08BD68090020074808B51030006828B10348F1
:2052CC0000F08EFA024800F088FA08BDCD5300001D570000A4010020074810B510300068B4
:2052EC0030B1044C204600F07BFA204600F075FA10BDC04623450000A4010020074908B5D4
:20530C00283090E80C000020FCF7E0F9002908BFB0F1FF3F88BF4FF0FF3008BD907E000062
:20532C0008B50C2000F04EFA00280CBF0121002102480170203000F01BFC08BD200E0020E5
:20534C000EB501900821ADF8001068460221ADF80210FFF7E7FC002814BF002002980EBD2E
:20536C000EB50820ADF800001A20ADF802006846FFF7D8FC002814BFFF209DF804000EBDBA
:20538C000EB50820ADF800000420ADF8020001906846FFF7C7FC002814BF002002980EBD2E
:2053AC0008B542882D2A28BF6FF0010004D203490C3151F82210884708BDC046085C0000E4
:2053CC0010B5064C206900F06BFB0146A06800B9E160A068401CA06010BDC046A401002086
:2053EC00054808B54168054801220838026048698969884708BDC046E40100200C20094025
:20540C00002181820449C0684969814203D10348006800F0ADBB704778010020945E000051
:20542C0010B50446E088FFF765FBFF2808BF4FF0FF3003D0A0712046FEF7C8F910BD02293F
:20544C004FF0000204D0012808BF4FF47A7203E0012808BF40F2EE221046704710788028BA
:20546C0009D1508840F27F61814204D19088834208BF012000D0002070470000042807BF66
:20548C004FF0C0421D234FF080521C2301483421FFF7ECB800A00C40002948BF0021044A6C
:2054AC0002EB8000026861F3050202607047C046001008400348016803480160034800F09C
:2054CC0033B9C046E0200240E020026020190020054A0C321268824218BF032002D10846EB
:2054EC00FFF7D8B97047C04668090020054A0C321268824218BF032002D10846FFF7CAB96C
:20550C007047C0466809002010B5FAF7E1FD84B200F016F82046FAF7DFFD014810BDC0461A
:20552C00585E000050B110F1040F08BF042006D010F1030F0CBF0220012070470020704724
:20554C0005490A68107828B90120107048680068FDF722BC7047C046585E000010B500F063
:20556C0033FB80B260F30F04FAF7B2FD80B260F31F44204610BD1CB5044660686946FFF716
:20558C00E9FB20B9009860602046FDF7D5FE1CBD08B5406810F07F4F18BF6FF0020002D1A6
:2055AC00FFF7B0FC002008BD08B5406810F07F4F18BF6FF0020002D1FFF7BBFC002008BD88
:2055CC000EB501900821ADF8001068460521ADF80210FFF7A7FB0EBD0EB501900821ADF87D
:2055EC00001068460321ADF80210FFF79BFB0EBD10B50446A088FDF775FF0028A06014BF15
:20560C0000206FF0030010BD04480168436802688A42FAD1080440EA13407047082009401D
:20562C00044884380068C0F302400428C8BF4FF0FF3070471813005008B503200121FEF7AF
:20564C0043FEFFF7E1FF0149086008BDA01A0020044908310868C3430B600A681042FBD1DF
:20566C007047C04608100440044908B591F8E60018B1D1F80C0100B1804708BD900B0020F5
:20568C0038B50546FAF724FD2C680CB121682960FAF722FD204638BD012814BF002140F297
:2056AC00FF71024A002011607047C04600000460044B03F10A02118808431080186900F03C
:2056CC003FBAC046080200200449B1F1FF3F07BF0020011C0868091DFDF794BCFFFFFFFF8F
:2056EC0030B502FB01F403FB00444FF00005E2FB00542146284630BD38B5044CE56800F0D4
:20570C0057F9226901462846904738BD6809002004498868401E886003D10869C96800F0A7
:20572C00BBB97047A40100202022EFF3118382F31188426A1143416283F3118800F0A8B9A4
:20574C00034804490068814201D0FEF7EEBF704798CA01107047282008B50090BDF80200DA
:20576C00FAF7BAFCBDF8000000F022FA08BD08B5406820B10068FFF743FE002008BD6FF0D7
:20578C00020008BDADF1080D01208DF800009DF800000028FBD102B0704710B50446FFF7E6
:2057AC009BFD032000F094F9204600F09DF910BD034A1168506813688B42FAD17047C0469E
:2057CC00082009400146034820380068C84000F001007047E02002407047034908607047E6
:2057EC000149091F08607047D00F0020812342EAC112037042F47C4282800023C3707047F4
:20580C0008B500F041F90248006800F041F908BD8401002008B50846FFF710FC002814BF47
:20582C008068002008BD00B50921ADF1240D684600F026F909B000BD10B504466068FDF7E3
:20584C000DFEA060002010BD02490968416000207047C046905E00000246024808B59047F6
:20586C0008BDC046085C0000024800680B210122FFF768B810060020102802D30149103801
:20588C000860704700EF00E010B5044600F078F86060002010BD10B50446FFF779F92071EA
:2058AC00002010BD08B500F08FF9FAF711FC002008BD08B500F0E0F800F0DAF8002008BDAB
:2058CC0008B540680C38FFF74BFB002008BD10B5044600F085F96060002010BD0068010956
:2058EC002CBF042000F003007047D0F80320C31D08461946FDF73ABC08B500F0A8F8000C28
:20590C000904084308BD000001491031086070476809002008B5014688684968884708BDEA
:20592C0008B5406800F0A0F8002008BD08B5406800F096F8002008BD08B54068FFF710FB5B
:20594C00002008BD08B5406800F0FAF8002008BDEFF3108072B6704700207047EFF3108090
:20596C0062B67047002070470148083000687047900B00200149ED31085C7047900B0020DC
:20598C000148DC3000687047900B0020D0F8032008460021FDF7A6BE0148007D7047C04697
:2059AC00A401002001B9014900F056B8A0010000014880687047C046C801002008B5FCF7EC
:2059CC007FFCFFF7BDFE08BD0148C0887047C046F001002008B5FFF79BFB002008BD0146F6
:2059EC000879891DFFF738B80168002001B90120704742F00202FCF7A5BB4FF61743FFF755
:205A0C002DBD4FF60143FFF729BD00B1016070470020FEF763B80023FFF722B90823FFF71D
:205A2C001FB90623FFF71CB93023FFF719B90723FFF716B9816042607047FEF72FBB006803
:205A4C007047006870470068704700207047FFF7AFBE808A70470000DFF800F0F1C50110BC
:205A6C00DFF800F085C20110DFF800F081C20110DFF800F043C20110DFF800F055C1011015
:205A8C00DFF800F00DC30110DFF800F067BE0110DFF800F021B30110DFF800F04DC20110C2
:205AAC00DFF800F049C20110DFF800F009C30110DFF800F03DC20110DFF800F08DC2011055
:205ACC00DFF800F095B70110DFF800F081C60110DFF800F045C00110DFF800F079AB01109E
:205AEC00DFF800F025B10110DFF800F0D1C70110DFF800F02DBF0110DFF800F0ADB501107E
:205B0C00DFF800F019AE0110DFF800F0D9C10110DFF800F0EDB30110DFF800F0BDBE01109D
:205B2C00DFF800F00DA80110DFF800F095C00110DFF800F055C00110DFF800F0DDB201104B
:205B4C00DFF800F041AC0110DFF800F0CDA00110DFF800F0E5C10110DFF800F079B50110AB
:205B6C00DFF800F085C10110DFF800F099C80110DFF800F0E3BF0110DFF800F0C1C20110ED
:205B8C00DFF800F085B00110DFF800F0CDC10110DFF800F029AF0110DFF800F03DC1011000
:205BAC00DFF800F009B70110DFF800F0C1C10110DFF800F049BA0110DFF800F0E1B501109E
:205BCC00DFF800F0D5C00110DFF800F0F5C00110DFF800F011BF0110DFF800F013C101106B
:105BEC00DFF800F0D9B60110DFF800F0F5B80110BD
:205BFC000180010005000000B6030000314D00006955000065570000B93B00009D4100007F
:205C1C00C54F0000CD580000FD55000045590000D9370000553F00002D540000B147000022
:205C3C00F940000051590000475A0000395900002D590000BF580000B1580000994A0000A9
:205C5C00DB580000835500005558000019490000EB59000065370000014D00003D2600007D
:205C7C0089420000453300007B57000075470000B55500009D550000D93C0000A35800002B
:205C9C0095580000354600000000000000000000E159000045580000CD4A00000000000092
:205CBC000000000000000000000000008F3F00008F3F01008F3F02008F3F0300903F0001BA
:205CDC008F3F0101903F0002903F00038F3F01048F3F00058F1208048F3F00048F3F00063C
:205CFC00513F00007F3F01003F3F04003F3F02003F3F01007F3F0200752E0000915700006D
:205D1C00251E000091570000054C000051210000FF5900009157000091570000F954000004
:205D3C00DD54000091570000915700009157000091570000FD3E0000B9460000ED4100000E
:205D5C00215800007B756E6B6E6F776E2D696E7374616E63652D6E616D657D007B656D7099
:205D7C0074792D696E7374616E63652D6E616D657D00C0467B7374617469632D696E737459
:205D9C00616E63652D6E616D657D00C00B0880800C2007C0FF2007C0FF2007C0FF00C08034
:205DBC00FF400080FF00C080FF400080FF400080FF400080FE000000EBC70CEEC90CF1CB51
:205DDC000CF44B14F74E19FA521DFD582500613101144202184E031C5A04249305309300BA
:205DFC007FC80110C9BC011051B2011037C20110BDAD0110C1B1011071BA011069BB01100C
:205E1C0021C00110FFFFFFFFC4090000000000004327000001001A01010000000000000024
:205E3C0000000000000001000000000000000000FD2B0000153A000001010100BC1A0020D5
:205E5C00885E0000000000000000000095510000155500003D00000045B5011099A6011058
:205E7C0019B80110D45D00000D070000080000000F0000000A0000005C0F00207556000068
:205EA000009F0000000103004000213039750084006C020104018F04015FBD07FB55523E71
:205EC000B10604FF4100BF000B088080FE3F5F0915FF0953696D706C6542FF4C4542726FD4
:205EE0006164637F6173746572020A428FFA05C30105307FF50530F50085A66F01A556FFD4
:205F00000000A93F0000575AFEA8C3314D00002C0F007F20695500006557A7EF74FF07108D
:205F2000000038403500FF2D40014002846000FD5D007000F80118A384FF070083057EA46F
:205F40000306FFE0EA230601000304F7010235023008047F17FF6304003888604500FFC3AE
:205F6000003801AC526003FFA302AD0163026801FF438AFF00430228043DFF00008C0D0056
:205F800020003112B9BEB716020000C01601B30B63C201081015BF04013F06C5A7BDC30B70
:205FA0000D5818D77C15700175027D017D9EC1A10C2000C080BF0AC1CF0640FC0BB0203BFC
:205FC0000100780E0020A4003101BF029401B000319C0034A4AA0034AC0034B40034BC0037
:205FE00034C41A0034CC0034AD32CBF757A1150248CD2802F1CEA1FC083000310425F0AAE4
:2060000000310C00341400341C003424BE003401051B08341A30805F5E0000145DD237689B
:2060200000F05F6409002003D400BC2AB035C02AF02C2EC09C010C300030EC2F712F29778A
:2060400046D5FBED53005D00D7B1FF0014D812CC3280350813711020B3800600F33479338D
:20606000FFFFDA3B022000E531F00031A9D432F00031DC0034E40034EC2A0034F40034FC4E
:2060800000340406700031550C00341400341C003424003400E1592A74FFF0007D00000058
:2060A0003C1000203000305934007000F1B8410070040191FF002001010000D019000173A9
:2060C0000035FFF000F30100000700B9FC0E0020EC01A802523810013334010005200031CE
:2060E0003C0034FFF0009D0000016CDC02007200C080EF0E00200300C4B14E001F00A757A7
:206100000000FFF000FD000004D80D0020CC0EC70020010100003100295C0F0300200031AE
:20612000FFF0007B0100000F009C0E0020016100FFF00000513B0000F758000099590000FD
:20614000003D000000D80D0020FFF0000000000002000000810A0000000F08000000FFF07B
:206160000001000000FFF00001000004FFF00001000004FFF0000000A05E0000080200201F
:206180009B60000044010020C460000000010020E5600000A4010020046100007801002052
:2061A00022610000C801002040610000E401002050610000401000205861000000020020D1
:1861C00060610000EC01002067610000F00100206E610000F801002038
:020000040001F9
:20FFA80000008001100082FFFDFF58003AFFBFF3FFFFFFFFFFFFFFFFFFFFFFFFFFFFFFFFF8
:20FFC800FFFFFFFFFFFFFFFFFFFFFFFFFFFFFFFFFFFFFF00FFFFFFFF00FFFFFFC500C5FFAA
:18FFE800000000FF00000000FFFFFFFFFFFFFFFFFFFFFFFFFFFFFFFF12
:00000001FF
